{
  "contractName": "AcapzFoundersWallet",
  "abi": [
    {
      "inputs": [
        {
          "internalType": "address",
          "name": "__ownerZero",
          "type": "address"
        }
      ],
      "stateMutability": "nonpayable",
      "type": "constructor"
    },
    {
      "anonymous": false,
      "inputs": [
        {
          "indexed": true,
          "internalType": "address",
          "name": "sender",
          "type": "address"
        },
        {
          "indexed": false,
          "internalType": "uint256",
          "name": "value",
          "type": "uint256"
        }
      ],
      "name": "Deposit",
      "type": "event"
    },
    {
      "anonymous": false,
      "inputs": [
        {
          "indexed": true,
          "internalType": "address",
          "name": "founder",
          "type": "address"
        },
        {
          "indexed": false,
          "internalType": "string",
          "name": "founderName",
          "type": "string"
        }
      ],
      "name": "FounderAdded",
      "type": "event"
    },
    {
      "anonymous": false,
      "inputs": [
        {
          "indexed": true,
          "internalType": "address",
          "name": "founder",
          "type": "address"
        }
      ],
      "name": "FounderRemoved",
      "type": "event"
    },
    {
      "anonymous": false,
      "inputs": [
        {
          "indexed": true,
          "internalType": "address",
          "name": "previousOwner",
          "type": "address"
        },
        {
          "indexed": true,
          "internalType": "address",
          "name": "newOwner",
          "type": "address"
        }
      ],
      "name": "OwnershipTransferred",
      "type": "event"
    },
    {
      "inputs": [
        {
          "internalType": "uint256",
          "name": "",
          "type": "uint256"
        }
      ],
      "name": "founders",
      "outputs": [
        {
          "internalType": "address",
          "name": "_founderAddress",
          "type": "address"
        },
        {
          "internalType": "string",
          "name": "_name",
          "type": "string"
        },
        {
          "internalType": "string",
          "name": "_pos",
          "type": "string"
        },
        {
          "internalType": "string",
          "name": "_contact",
          "type": "string"
        },
        {
          "internalType": "bool",
          "name": "canSignTx",
          "type": "bool"
        }
      ],
      "stateMutability": "view",
      "type": "function"
    },
    {
      "inputs": [],
      "name": "nonce",
      "outputs": [
        {
          "internalType": "uint256",
          "name": "",
          "type": "uint256"
        }
      ],
      "stateMutability": "view",
      "type": "function"
    },
    {
      "inputs": [],
      "name": "owner",
      "outputs": [
        {
          "internalType": "address",
          "name": "",
          "type": "address"
        }
      ],
      "stateMutability": "view",
      "type": "function"
    },
    {
      "inputs": [],
      "name": "renounceOwnership",
      "outputs": [],
      "stateMutability": "nonpayable",
      "type": "function"
    },
    {
      "inputs": [
        {
          "internalType": "address",
          "name": "newOwner",
          "type": "address"
        }
      ],
      "name": "transferOwnership",
      "outputs": [],
      "stateMutability": "nonpayable",
      "type": "function"
    },
    {
      "stateMutability": "payable",
      "type": "receive"
    },
    {
      "inputs": [
        {
          "internalType": "address[]",
          "name": "_founders",
          "type": "address[]"
        },
        {
          "internalType": "string[]",
          "name": "_names",
          "type": "string[]"
        }
      ],
      "name": "init",
      "outputs": [],
      "stateMutability": "nonpayable",
      "type": "function"
    },
    {
      "inputs": [
        {
          "internalType": "address",
          "name": "founder",
          "type": "address"
        },
        {
          "internalType": "string",
          "name": "__name",
          "type": "string"
        },
        {
          "internalType": "string",
          "name": "__pos",
          "type": "string"
        },
        {
          "internalType": "string",
          "name": "__contact",
          "type": "string"
        },
        {
          "internalType": "bool",
          "name": "canSignTx",
          "type": "bool"
        }
      ],
      "name": "addFounder",
      "outputs": [],
      "stateMutability": "nonpayable",
      "type": "function"
    },
    {
      "inputs": [
        {
          "internalType": "address",
          "name": "founderAddress",
          "type": "address"
        }
      ],
      "name": "getFounderByAddress",
      "outputs": [
        {
          "components": [
            {
              "internalType": "address",
              "name": "_founderAddress",
              "type": "address"
            },
            {
              "internalType": "string",
              "name": "_name",
              "type": "string"
            },
            {
              "internalType": "string",
              "name": "_pos",
              "type": "string"
            },
            {
              "internalType": "string",
              "name": "_contact",
              "type": "string"
            },
            {
              "internalType": "bool",
              "name": "canSignTx",
              "type": "bool"
            }
          ],
          "internalType": "struct AcapzFoundersWallet.Founder",
          "name": "",
          "type": "tuple"
        }
      ],
      "stateMutability": "view",
      "type": "function"
    },
    {
      "inputs": [],
      "name": "getOwner",
      "outputs": [
        {
          "internalType": "address",
          "name": "",
          "type": "address"
        }
      ],
      "stateMutability": "view",
      "type": "function"
    },
    {
      "inputs": [
        {
          "internalType": "address",
          "name": "token",
          "type": "address"
        },
        {
          "internalType": "address[]",
          "name": "__founders",
          "type": "address[]"
        },
        {
          "internalType": "uint256[]",
          "name": "values",
          "type": "uint256[]"
        }
      ],
      "name": "assignFundsToFounders",
      "outputs": [],
      "stateMutability": "nonpayable",
      "type": "function"
    }
  ],
  "bytecode": "0x6080604052600060035560006009556000600b60006101000a81548160ff0219169083151502179055506000600b60016101000a81548160ff0219169083151502179055503480156200005157600080fd5b50604051620024f6380380620024f68339818101604052810190620000779190620004c4565b620000976200008b620002de60201b60201c565b620002e660201b60201c565b60016003819055506040518060a001604052808273ffffffffffffffffffffffffffffffffffffffff1681526020016040518060400160405280600a81526020017f6f776e6572207a65726f0000000000000000000000000000000000000000000081525081526020016040518060400160405280600e81526020017f636f6e7472616374206f776e657200000000000000000000000000000000000081525081526020016040518060400160405280600481526020017f6e6f6e65000000000000000000000000000000000000000000000000000000008152508152602001600015158152506008600080815260200190815260200160002060008201518160000160006101000a81548173ffffffffffffffffffffffffffffffffffffffff021916908373ffffffffffffffffffffffffffffffffffffffff1602179055506020820151816001019080519060200190620001f6929190620003aa565b50604082015181600201908051906020019062000215929190620003aa565b50606082015181600301908051906020019062000234929190620003aa565b5060808201518160040160006101000a81548160ff02191690831515021790555090505060016009819055506008600080815260200190815260200160002060000160009054906101000a900473ffffffffffffffffffffffffffffffffffffffff16600160006101000a81548173ffffffffffffffffffffffffffffffffffffffff021916908373ffffffffffffffffffffffffffffffffffffffff160217905550506200055a565b600033905090565b60008060009054906101000a900473ffffffffffffffffffffffffffffffffffffffff169050816000806101000a81548173ffffffffffffffffffffffffffffffffffffffff021916908373ffffffffffffffffffffffffffffffffffffffff1602179055508173ffffffffffffffffffffffffffffffffffffffff168173ffffffffffffffffffffffffffffffffffffffff167f8be0079c531659141344cd1fd0a4f28419497f9722a3daafe3b4186f6b6457e060405160405180910390a35050565b828054620003b89062000525565b90600052602060002090601f016020900481019282620003dc576000855562000428565b82601f10620003f757805160ff191683800117855562000428565b8280016001018555821562000428579182015b82811115620004275782518255916020019190600101906200040a565b5b5090506200043791906200043b565b5090565b5b80821115620004565760008160009055506001016200043c565b5090565b600080fd5b600073ffffffffffffffffffffffffffffffffffffffff82169050919050565b60006200048c826200045f565b9050919050565b6200049e816200047f565b8114620004aa57600080fd5b50565b600081519050620004be8162000493565b92915050565b600060208284031215620004dd57620004dc6200045a565b5b6000620004ed84828501620004ad565b91505092915050565b7f4e487b7100000000000000000000000000000000000000000000000000000000600052602260045260246000fd5b600060028204905060018216806200053e57607f821691505b602082108103620005545762000553620004f6565b5b50919050565b611f8c806200056a6000396000f3fe6080604052600436106100955760003560e01c8063aa6adb3c11610059578063aa6adb3c146101cc578063affed0e0146101f5578063d8e75f6214610220578063da2dad6f14610261578063f2fde38b1461028a576100f4565b80633574e78c146100f95780634ffb95a714610122578063715018a61461015f578063893d20e8146101765780638da5cb5b146101a1576100f4565b366100f45760003411156100f2573373ffffffffffffffffffffffffffffffffffffffff167fe1fffcc4923d04b559f4d29a8bfc6cda04eb5b0d3c460751c2402c5c5cc9109c346040516100e9919061121c565b60405180910390a25b005b600080fd5b34801561010557600080fd5b50610120600480360381019061011b9190611427565b6102b3565b005b34801561012e57600080fd5b50610149600480360381019061014491906114f6565b61054d565b604051610156919061164d565b60405180910390f35b34801561016b57600080fd5b506101746108f0565b005b34801561018257600080fd5b5061018b610978565b604051610198919061167e565b60405180910390f35b3480156101ad57600080fd5b506101b66109a2565b6040516101c3919061167e565b60405180910390f35b3480156101d857600080fd5b506101f360048036038101906101ee9190611850565b6109cb565b005b34801561020157600080fd5b5061020a610aab565b604051610217919061121c565b60405180910390f35b34801561022c57600080fd5b50610247600480360381019061024291906118db565b610ab1565b604051610258959493929190611961565b60405180910390f35b34801561026d57600080fd5b5061028860048036038101906102839190611a7a565b610cac565b005b34801561029657600080fd5b506102b160048036038101906102ac91906114f6565b610e45565b005b6102bb610f3c565b73ffffffffffffffffffffffffffffffffffffffff166102d96109a2565b73ffffffffffffffffffffffffffffffffffffffff161461032f576040517f08c379a000000000000000000000000000000000000000000000000000000000815260040161032690611b47565b60405180910390fd5b84600460008273ffffffffffffffffffffffffffffffffffffffff1673ffffffffffffffffffffffffffffffffffffffff16815260200190815260200160002060009054906101000a900460ff161561038757600080fd5b6040518060a001604052808773ffffffffffffffffffffffffffffffffffffffff16815260200186815260200185815260200184815260200183151581525060086000600954815260200190815260200160002060008201518160000160006101000a81548173ffffffffffffffffffffffffffffffffffffffff021916908373ffffffffffffffffffffffffffffffffffffffff160217905550602082015181600101908051906020019061043e929190611119565b50604082015181600201908051906020019061045b929190611119565b506060820151816003019080519060200190610478929190611119565b5060808201518160040160006101000a81548160ff021916908315150217905550905050600954600a60008873ffffffffffffffffffffffffffffffffffffffff1673ffffffffffffffffffffffffffffffffffffffff1681526020019081526020016000208190555060016009546104f19190611b96565b6009819055508573ffffffffffffffffffffffffffffffffffffffff167f753c6ff61a3c58ce4b4bfdc3bbf7375a9ebbc192a9818d18527b3469cbec52358660405161053d9190611bec565b60405180910390a2505050505050565b61055561119f565b81600460008273ffffffffffffffffffffffffffffffffffffffff1673ffffffffffffffffffffffffffffffffffffffff16815260200190815260200160002060009054906101000a900460ff166105ac57600080fd5b600073ffffffffffffffffffffffffffffffffffffffff168373ffffffffffffffffffffffffffffffffffffffff160361061b576040517f08c379a000000000000000000000000000000000000000000000000000000000815260040161061290611c5a565b60405180910390fd5b6000600a60008573ffffffffffffffffffffffffffffffffffffffff1673ffffffffffffffffffffffffffffffffffffffff168152602001908152602001600020549050600081036106a2576040517f08c379a000000000000000000000000000000000000000000000000000000000815260040161069990611cc6565b60405180910390fd5b600860008281526020019081526020016000206040518060a00160405290816000820160009054906101000a900473ffffffffffffffffffffffffffffffffffffffff1673ffffffffffffffffffffffffffffffffffffffff1673ffffffffffffffffffffffffffffffffffffffff16815260200160018201805461072690611d15565b80601f016020809104026020016040519081016040528092919081815260200182805461075290611d15565b801561079f5780601f106107745761010080835404028352916020019161079f565b820191906000526020600020905b81548152906001019060200180831161078257829003601f168201915b505050505081526020016002820180546107b890611d15565b80601f01602080910402602001604051908101604052809291908181526020018280546107e490611d15565b80156108315780601f1061080657610100808354040283529160200191610831565b820191906000526020600020905b81548152906001019060200180831161081457829003601f168201915b5050505050815260200160038201805461084a90611d15565b80601f016020809104026020016040519081016040528092919081815260200182805461087690611d15565b80156108c35780601f10610898576101008083540402835291602001916108c3565b820191906000526020600020905b8154815290600101906020018083116108a657829003601f168201915b505050505081526020016004820160009054906101000a900460ff16151515158152505092505050919050565b6108f8610f3c565b73ffffffffffffffffffffffffffffffffffffffff166109166109a2565b73ffffffffffffffffffffffffffffffffffffffff161461096c576040517f08c379a000000000000000000000000000000000000000000000000000000000815260040161096390611b47565b60405180910390fd5b6109766000610f44565b565b6000600160009054906101000a900473ffffffffffffffffffffffffffffffffffffffff16905090565b60008060009054906101000a900473ffffffffffffffffffffffffffffffffffffffff16905090565b6109d3610f3c565b73ffffffffffffffffffffffffffffffffffffffff166109f16109a2565b73ffffffffffffffffffffffffffffffffffffffff1614610a47576040517f08c379a0000000000000000000000000000000000000000000000000000000008152600401610a3e90611b47565b60405180910390fd5b60005b8251811015610aa557610a9284848381518110610a6a57610a69611d46565b5b6020026020010151848481518110610a8557610a84611d46565b5b6020026020010151611008565b8080610a9d90611d75565b915050610a4a565b50505050565b60025481565b60086020528060005260406000206000915090508060000160009054906101000a900473ffffffffffffffffffffffffffffffffffffffff1690806001018054610afa90611d15565b80601f0160208091040260200160405190810160405280929190818152602001828054610b2690611d15565b8015610b735780601f10610b4857610100808354040283529160200191610b73565b820191906000526020600020905b815481529060010190602001808311610b5657829003601f168201915b505050505090806002018054610b8890611d15565b80601f0160208091040260200160405190810160405280929190818152602001828054610bb490611d15565b8015610c015780601f10610bd657610100808354040283529160200191610c01565b820191906000526020600020905b815481529060010190602001808311610be457829003601f168201915b505050505090806003018054610c1690611d15565b80601f0160208091040260200160405190810160405280929190818152602001828054610c4290611d15565b8015610c8f5780601f10610c6457610100808354040283529160200191610c8f565b820191906000526020600020905b815481529060010190602001808311610c7257829003601f168201915b5050505050908060040160009054906101000a900460ff16905085565b600b60009054906101000a900460ff1615610cfc576040517f08c379a0000000000000000000000000000000000000000000000000000000008152600401610cf390611e09565b60405180910390fd5b60005b84849050811015610e2357610e10858583818110610d2057610d1f611d46565b5b9050602002016020810190610d3591906114f6565b848484818110610d4857610d47611d46565b5b9050602002810190610d5a9190611e38565b8080601f016020809104026020016040519081016040528093929190818152602001838380828437600081840152601f19601f820116905080830192505050505050506040518060400160405280600781526020017f666f756e646572000000000000000000000000000000000000000000000000008152506040518060400160405280600481526020017f6e6f6e650000000000000000000000000000000000000000000000000000000081525060016102b3565b8080610e1b90611d75565b915050610cff565b6001600b60006101000a81548160ff0219169083151502179055505050505050565b610e4d610f3c565b73ffffffffffffffffffffffffffffffffffffffff16610e6b6109a2565b73ffffffffffffffffffffffffffffffffffffffff1614610ec1576040517f08c379a0000000000000000000000000000000000000000000000000000000008152600401610eb890611b47565b60405180910390fd5b600073ffffffffffffffffffffffffffffffffffffffff168173ffffffffffffffffffffffffffffffffffffffff1603610f30576040517f08c379a0000000000000000000000000000000000000000000000000000000008152600401610f2790611f0d565b60405180910390fd5b610f3981610f44565b50565b600033905090565b60008060009054906101000a900473ffffffffffffffffffffffffffffffffffffffff169050816000806101000a81548173ffffffffffffffffffffffffffffffffffffffff021916908373ffffffffffffffffffffffffffffffffffffffff1602179055508173ffffffffffffffffffffffffffffffffffffffff168173ffffffffffffffffffffffffffffffffffffffff167f8be0079c531659141344cd1fd0a4f28419497f9722a3daafe3b4186f6b6457e060405160405180910390a35050565b81600460008273ffffffffffffffffffffffffffffffffffffffff1673ffffffffffffffffffffffffffffffffffffffff16815260200190815260200160002060009054906101000a900460ff1661105f57600080fd5b61106a848484611071565b5050505050565b60008063a9059cbb848460405160240161108c929190611f2d565b6040516020818303038152906040529060e01b6020820180517bffffffffffffffffffffffffffffffffffffffffffffffffffffffff83818316178352505050509050602060008251602084016000896127105a03f13d600081146110fc5760208114611104576000935061110f565b81935061110f565b600051158215171593505b5050509392505050565b82805461112590611d15565b90600052602060002090601f016020900481019282611147576000855561118e565b82601f1061116057805160ff191683800117855561118e565b8280016001018555821561118e579182015b8281111561118d578251825591602001919060010190611172565b5b50905061119b91906111e6565b5090565b6040518060a00160405280600073ffffffffffffffffffffffffffffffffffffffff1681526020016060815260200160608152602001606081526020016000151581525090565b5b808211156111ff5760008160009055506001016111e7565b5090565b6000819050919050565b61121681611203565b82525050565b6000602082019050611231600083018461120d565b92915050565b6000604051905090565b600080fd5b600080fd5b600073ffffffffffffffffffffffffffffffffffffffff82169050919050565b60006112768261124b565b9050919050565b6112868161126b565b811461129157600080fd5b50565b6000813590506112a38161127d565b92915050565b600080fd5b600080fd5b6000601f19601f8301169050919050565b7f4e487b7100000000000000000000000000000000000000000000000000000000600052604160045260246000fd5b6112fc826112b3565b810181811067ffffffffffffffff8211171561131b5761131a6112c4565b5b80604052505050565b600061132e611237565b905061133a82826112f3565b919050565b600067ffffffffffffffff82111561135a576113596112c4565b5b611363826112b3565b9050602081019050919050565b82818337600083830152505050565b600061139261138d8461133f565b611324565b9050828152602081018484840111156113ae576113ad6112ae565b5b6113b9848285611370565b509392505050565b600082601f8301126113d6576113d56112a9565b5b81356113e684826020860161137f565b91505092915050565b60008115159050919050565b611404816113ef565b811461140f57600080fd5b50565b600081359050611421816113fb565b92915050565b600080600080600060a0868803121561144357611442611241565b5b600061145188828901611294565b955050602086013567ffffffffffffffff81111561147257611471611246565b5b61147e888289016113c1565b945050604086013567ffffffffffffffff81111561149f5761149e611246565b5b6114ab888289016113c1565b935050606086013567ffffffffffffffff8111156114cc576114cb611246565b5b6114d8888289016113c1565b92505060806114e988828901611412565b9150509295509295909350565b60006020828403121561150c5761150b611241565b5b600061151a84828501611294565b91505092915050565b61152c8161126b565b82525050565b600081519050919050565b600082825260208201905092915050565b60005b8381101561156c578082015181840152602081019050611551565b8381111561157b576000848401525b50505050565b600061158c82611532565b611596818561153d565b93506115a681856020860161154e565b6115af816112b3565b840191505092915050565b6115c3816113ef565b82525050565b600060a0830160008301516115e16000860182611523565b50602083015184820360208601526115f98282611581565b915050604083015184820360408601526116138282611581565b9150506060830151848203606086015261162d8282611581565b915050608083015161164260808601826115ba565b508091505092915050565b6000602082019050818103600083015261166781846115c9565b905092915050565b6116788161126b565b82525050565b6000602082019050611693600083018461166f565b92915050565b600067ffffffffffffffff8211156116b4576116b36112c4565b5b602082029050602081019050919050565b600080fd5b60006116dd6116d884611699565b611324565b90508083825260208201905060208402830185811115611700576116ff6116c5565b5b835b8181101561172957806117158882611294565b845260208401935050602081019050611702565b5050509392505050565b600082601f830112611748576117476112a9565b5b81356117588482602086016116ca565b91505092915050565b600067ffffffffffffffff82111561177c5761177b6112c4565b5b602082029050602081019050919050565b61179681611203565b81146117a157600080fd5b50565b6000813590506117b38161178d565b92915050565b60006117cc6117c784611761565b611324565b905080838252602082019050602084028301858111156117ef576117ee6116c5565b5b835b81811015611818578061180488826117a4565b8452602084019350506020810190506117f1565b5050509392505050565b600082601f830112611837576118366112a9565b5b81356118478482602086016117b9565b91505092915050565b60008060006060848603121561186957611868611241565b5b600061187786828701611294565b935050602084013567ffffffffffffffff81111561189857611897611246565b5b6118a486828701611733565b925050604084013567ffffffffffffffff8111156118c5576118c4611246565b5b6118d186828701611822565b9150509250925092565b6000602082840312156118f1576118f0611241565b5b60006118ff848285016117a4565b91505092915050565b600082825260208201905092915050565b600061192482611532565b61192e8185611908565b935061193e81856020860161154e565b611947816112b3565b840191505092915050565b61195b816113ef565b82525050565b600060a082019050611976600083018861166f565b81810360208301526119888187611919565b9050818103604083015261199c8186611919565b905081810360608301526119b08185611919565b90506119bf6080830184611952565b9695505050505050565b600080fd5b60008083601f8401126119e4576119e36112a9565b5b8235905067ffffffffffffffff811115611a0157611a006119c9565b5b602083019150836020820283011115611a1d57611a1c6116c5565b5b9250929050565b60008083601f840112611a3a57611a396112a9565b5b8235905067ffffffffffffffff811115611a5757611a566119c9565b5b602083019150836020820283011115611a7357611a726116c5565b5b9250929050565b60008060008060408587031215611a9457611a93611241565b5b600085013567ffffffffffffffff811115611ab257611ab1611246565b5b611abe878288016119ce565b9450945050602085013567ffffffffffffffff811115611ae157611ae0611246565b5b611aed87828801611a24565b925092505092959194509250565b7f4f776e61626c653a2063616c6c6572206973206e6f7420746865206f776e6572600082015250565b6000611b31602083611908565b9150611b3c82611afb565b602082019050919050565b60006020820190508181036000830152611b6081611b24565b9050919050565b7f4e487b7100000000000000000000000000000000000000000000000000000000600052601160045260246000fd5b6000611ba182611203565b9150611bac83611203565b9250827fffffffffffffffffffffffffffffffffffffffffffffffffffffffffffffffff03821115611be157611be0611b67565b5b828201905092915050565b60006020820190508181036000830152611c068184611919565b905092915050565b7f61646472657373207a65726f206973206e6f74206120666f756e646572000000600082015250565b6000611c44601d83611908565b9150611c4f82611c0e565b602082019050919050565b60006020820190508181036000830152611c7381611c37565b9050919050565b7f63616e6e6f742063616c6c20666f756e646572207a65726f0000000000000000600082015250565b6000611cb0601883611908565b9150611cbb82611c7a565b602082019050919050565b60006020820190508181036000830152611cdf81611ca3565b9050919050565b7f4e487b7100000000000000000000000000000000000000000000000000000000600052602260045260246000fd5b60006002820490506001821680611d2d57607f821691505b602082108103611d4057611d3f611ce6565b5b50919050565b7f4e487b7100000000000000000000000000000000000000000000000000000000600052603260045260246000fd5b6000611d8082611203565b91507fffffffffffffffffffffffffffffffffffffffffffffffffffffffffffffffff8203611db257611db1611b67565b5b600182019050919050565b7f616c726561647920696e697469616c697a656400000000000000000000000000600082015250565b6000611df3601383611908565b9150611dfe82611dbd565b602082019050919050565b60006020820190508181036000830152611e2281611de6565b9050919050565b600080fd5b600080fd5b600080fd5b60008083356001602003843603038112611e5557611e54611e29565b5b80840192508235915067ffffffffffffffff821115611e7757611e76611e2e565b5b602083019250600182023603831315611e9357611e92611e33565b5b509250929050565b7f4f776e61626c653a206e6577206f776e657220697320746865207a65726f206160008201527f6464726573730000000000000000000000000000000000000000000000000000602082015250565b6000611ef7602683611908565b9150611f0282611e9b565b604082019050919050565b60006020820190508181036000830152611f2681611eea565b9050919050565b6000604082019050611f42600083018561166f565b611f4f602083018461120d565b939250505056fea2646970667358221220a5ad5d66de2d8d590b1a47d84744ed9a04f142bb12271fef66b71ac309b44fa764736f6c634300080d0033",
  "immutableReferences": {},
  "source": "// SPDX-License-Identifier: MIT\npragma solidity ^0.8.1;\n\nimport \"@openzeppelin/contracts/utils/Address.sol\";\nimport \"@openzeppelin/contracts/utils/Context.sol\";\nimport \"@openzeppelin/contracts/utils/cryptography/draft-EIP712.sol\";\nimport \"@openzeppelin/contracts/utils/math/SafeMath.sol\";\nimport \"@openzeppelin/contracts/access/Ownable.sol\";\nimport \"../core/secureTokenTransfer.sol\";\nimport \"../tokens/AkapzToken.sol\";\ncontract AcapzFoundersWallet is SecureTokenTransfer, Context, Ownable {\n    \n\n    using Address for address;\n    using SafeMath for uint256;\n\n    address private _owner;\n\n    uint256 public nonce;\n    uint256 private threshold = 0;\n\n    struct Founder  {\n        address _founderAddress;\n        string _name;\n        string _pos;\n        string _contact;\n        bool canSignTx;\n    }\n\n    mapping(address => bool) private isFounder;\n    mapping(address => bool) private canSign;\n    mapping(address => Founder) private founderData;\n    mapping(address => bool) private founderInWallet;\n\n    event FounderAdded(address indexed founder, string founderName);\n    event FounderRemoved(address indexed founder);\n\n    mapping(uint256 => Founder) public founders;\n    // @dev founder zero is the owner of the contract cannot be called or sign\n    uint internal count= 0;\n\n    mapping(address => uint) private foundersId;\n\n    bool private initialized = false;\n\n    bytes32 private constant DOMAIN_SEPARATOR_TYPEHASH = keccak256(abi.encodePacked(\"EIP712Domain(uint256 chainId, address verifyingContract\"));\n    bytes32 private constant SAFE_TX_TYPEHASH = keccak256(abi.encodePacked( \"SafeTx(address to,uint256 value,bytes data,uint8 operation,uint256 safeTxGas,uint256 baseGas,uint256 gasPrice,address gasToken,address refundReceiver,uint256 nonce)\"));\n\n    bool private lockedStatus = false;\n\n\n    constructor(address  __ownerZero) {\n        threshold = 1;\n        // @dev will set founder zero as owner of the contract\n        founders[0] = Founder({\n            _founderAddress: __ownerZero,\n            _name: \"owner zero\",\n            _pos: \"contract owner\",\n            _contact: \"none\",\n            canSignTx: false\n        });\n        count = 1;\n\n        _owner = founders[0]._founderAddress;\n\n\n    }\n\n    function init(address[] calldata _founders, string[] calldata _names) external notInitialized {\n        uint i = 0;\n        for (i == 0; i < _founders.length; i++) {\n            addFounder(_founders[i], _names[i], \"founder\", \"none\", true);\n        }\n        initialized = true;\n    }\n\n    function addFounder(address founder, string memory __name, string memory __pos, string memory __contact, bool canSignTx) public onlyOwner founderDoesNotExists(founder) {\n\n        founders[count]= Founder({\n            _founderAddress:founder,\n            _name: __name,\n            _pos:__pos,\n            _contact: __contact,\n            canSignTx: canSignTx});\n\n            foundersId[founder] = count;\n\n            count = count+1;\n            emit FounderAdded(founder, __name);\n\n    }\n\n    function getFounderByAddress(address founderAddress) public view founderExists(founderAddress) returns(Founder memory) {\n        require(founderAddress != address(0), \"address zero is not a founder\");\n        uint256 fid = foundersId[founderAddress];\n        require(fid != 0, \"cannot call founder zero\");\n\n        return founders[fid];\n    }\n\n    modifier isNotFounderZero() {\n        require(foundersId[msg.sender] != 0, \"cannot use founder zero for op\");\n        _;\n    }\n\n    modifier founderDoesNotExists(address founder) {\n        require(!isFounder[founder]);\n        _;\n    }\n\n    modifier founderExists(address founder) {\n        require(isFounder[founder]);\n        _;\n    }\n\n    modifier notInitialized() {\n        require(!initialized, \"already initialized\");\n        _;\n    }\n\n    function getOwner()  public virtual view returns(address) {\n        return _owner;\n    }\n\n    receive() external payable {\n        if(msg.value > 0) {\n            emit Deposit(msg.sender, msg.value);\n        }\n    }\n\n   event Deposit(address indexed sender, uint value);\n\n   function assignFundsToFounders(address token, address[] memory __founders, uint256[] memory values) public onlyOwner {\n\n       uint i = 0;\n       for(i == 0; i < __founders.length; i++) {\n           _assignFunds(token, __founders[i], values[i]);\n       }\n\n   }\n\n   function _assignFunds(address token, address _founder, uint256 amt) private founderExists(_founder) {\n       SecureTokenTransfer.transferToken(token, _founder, amt);\n   }\n\n\n}",
  "sourcePath": "/Users/nicolascloutier/GolandProjects/contracts/contracts/wallets/AcapzFoundersWallet.sol",
  "compiler": {
    "name": "solc",
    "version": "0.8.13+commit.abaa5c0e.Emscripten.clang"
  },
  "schemaVersion": "3.4.7",
  "updatedAt": "2022-05-01T15:48:00.352Z",
  "devdoc": {
    "kind": "dev",
    "methods": {
      "owner()": {
        "details": "Returns the address of the current owner."
      },
      "renounceOwnership()": {
        "details": "Leaves the contract without owner. It will not be possible to call `onlyOwner` functions anymore. Can only be called by the current owner. NOTE: Renouncing ownership will leave the contract without an owner, thereby removing any functionality that is only available to the owner."
      },
      "transferOwnership(address)": {
        "details": "Transfers ownership of the contract to a new account (`newOwner`). Can only be called by the current owner."
      }
    },
    "version": 1
  },
  "userdoc": {
    "kind": "user",
    "methods": {},
    "version": 1
  }
}