{
  "contractName": "AkapzToken",
  "abi": [
    {
      "inputs": [],
      "stateMutability": "nonpayable",
      "type": "constructor"
    },
    {
      "anonymous": false,
      "inputs": [
        {
          "indexed": false,
          "internalType": "address",
          "name": "previousAdmin",
          "type": "address"
        },
        {
          "indexed": false,
          "internalType": "address",
          "name": "newAdmin",
          "type": "address"
        }
      ],
      "name": "AdminChanged",
      "type": "event"
    },
    {
      "anonymous": false,
      "inputs": [
        {
          "indexed": true,
          "internalType": "address",
          "name": "owner",
          "type": "address"
        },
        {
          "indexed": true,
          "internalType": "address",
          "name": "spender",
          "type": "address"
        },
        {
          "indexed": false,
          "internalType": "uint256",
          "name": "value",
          "type": "uint256"
        }
      ],
      "name": "Approval",
      "type": "event"
    },
    {
      "anonymous": false,
      "inputs": [
        {
          "indexed": true,
          "internalType": "address",
          "name": "beacon",
          "type": "address"
        }
      ],
      "name": "BeaconUpgraded",
      "type": "event"
    },
    {
      "anonymous": false,
      "inputs": [
        {
          "indexed": false,
          "internalType": "string",
          "name": "name",
          "type": "string"
        },
        {
          "indexed": false,
          "internalType": "address",
          "name": "by",
          "type": "address"
        },
        {
          "indexed": false,
          "internalType": "uint256",
          "name": "on",
          "type": "uint256"
        }
      ],
      "name": "Initialized",
      "type": "event"
    },
    {
      "anonymous": false,
      "inputs": [
        {
          "indexed": false,
          "internalType": "address",
          "name": "account",
          "type": "address"
        }
      ],
      "name": "Paused",
      "type": "event"
    },
    {
      "anonymous": false,
      "inputs": [
        {
          "indexed": true,
          "internalType": "bytes32",
          "name": "role",
          "type": "bytes32"
        },
        {
          "indexed": true,
          "internalType": "bytes32",
          "name": "previousAdminRole",
          "type": "bytes32"
        },
        {
          "indexed": true,
          "internalType": "bytes32",
          "name": "newAdminRole",
          "type": "bytes32"
        }
      ],
      "name": "RoleAdminChanged",
      "type": "event"
    },
    {
      "anonymous": false,
      "inputs": [
        {
          "indexed": true,
          "internalType": "bytes32",
          "name": "role",
          "type": "bytes32"
        },
        {
          "indexed": true,
          "internalType": "address",
          "name": "account",
          "type": "address"
        },
        {
          "indexed": true,
          "internalType": "address",
          "name": "sender",
          "type": "address"
        }
      ],
      "name": "RoleGranted",
      "type": "event"
    },
    {
      "anonymous": false,
      "inputs": [
        {
          "indexed": true,
          "internalType": "bytes32",
          "name": "role",
          "type": "bytes32"
        },
        {
          "indexed": true,
          "internalType": "address",
          "name": "account",
          "type": "address"
        },
        {
          "indexed": true,
          "internalType": "address",
          "name": "sender",
          "type": "address"
        }
      ],
      "name": "RoleRevoked",
      "type": "event"
    },
    {
      "anonymous": false,
      "inputs": [
        {
          "indexed": true,
          "internalType": "address",
          "name": "from",
          "type": "address"
        },
        {
          "indexed": true,
          "internalType": "address",
          "name": "to",
          "type": "address"
        },
        {
          "indexed": false,
          "internalType": "uint256",
          "name": "value",
          "type": "uint256"
        }
      ],
      "name": "Transfer",
      "type": "event"
    },
    {
      "anonymous": false,
      "inputs": [
        {
          "indexed": false,
          "internalType": "address",
          "name": "account",
          "type": "address"
        }
      ],
      "name": "Unpaused",
      "type": "event"
    },
    {
      "anonymous": false,
      "inputs": [
        {
          "indexed": true,
          "internalType": "address",
          "name": "implementation",
          "type": "address"
        }
      ],
      "name": "Upgraded",
      "type": "event"
    },
    {
      "inputs": [],
      "name": "Akapz",
      "outputs": [
        {
          "internalType": "address",
          "name": "",
          "type": "address"
        }
      ],
      "stateMutability": "view",
      "type": "function"
    },
    {
      "inputs": [],
      "name": "BURNER_ROLE",
      "outputs": [
        {
          "internalType": "bytes32",
          "name": "",
          "type": "bytes32"
        }
      ],
      "stateMutability": "view",
      "type": "function"
    },
    {
      "inputs": [],
      "name": "DEFAULT_ADMIN_ROLE",
      "outputs": [
        {
          "internalType": "bytes32",
          "name": "",
          "type": "bytes32"
        }
      ],
      "stateMutability": "view",
      "type": "function"
    },
    {
      "inputs": [],
      "name": "MINTER_ROLE",
      "outputs": [
        {
          "internalType": "bytes32",
          "name": "",
          "type": "bytes32"
        }
      ],
      "stateMutability": "view",
      "type": "function"
    },
    {
      "inputs": [],
      "name": "PAUSER_ROLE",
      "outputs": [
        {
          "internalType": "bytes32",
          "name": "",
          "type": "bytes32"
        }
      ],
      "stateMutability": "view",
      "type": "function"
    },
    {
      "inputs": [],
      "name": "UPGRADER_ROLE",
      "outputs": [
        {
          "internalType": "bytes32",
          "name": "",
          "type": "bytes32"
        }
      ],
      "stateMutability": "view",
      "type": "function"
    },
    {
      "inputs": [],
      "name": "WETH9",
      "outputs": [
        {
          "internalType": "address",
          "name": "",
          "type": "address"
        }
      ],
      "stateMutability": "view",
      "type": "function"
    },
    {
      "inputs": [
        {
          "internalType": "address",
          "name": "owner",
          "type": "address"
        },
        {
          "internalType": "address",
          "name": "spender",
          "type": "address"
        }
      ],
      "name": "allowance",
      "outputs": [
        {
          "internalType": "uint256",
          "name": "",
          "type": "uint256"
        }
      ],
      "stateMutability": "view",
      "type": "function"
    },
    {
      "inputs": [
        {
          "internalType": "address",
          "name": "spender",
          "type": "address"
        },
        {
          "internalType": "uint256",
          "name": "amount",
          "type": "uint256"
        }
      ],
      "name": "approve",
      "outputs": [
        {
          "internalType": "bool",
          "name": "",
          "type": "bool"
        }
      ],
      "stateMutability": "nonpayable",
      "type": "function"
    },
    {
      "inputs": [
        {
          "internalType": "address",
          "name": "account",
          "type": "address"
        }
      ],
      "name": "balanceOf",
      "outputs": [
        {
          "internalType": "uint256",
          "name": "",
          "type": "uint256"
        }
      ],
      "stateMutability": "view",
      "type": "function"
    },
    {
      "inputs": [],
      "name": "cap",
      "outputs": [
        {
          "internalType": "uint256",
          "name": "",
          "type": "uint256"
        }
      ],
      "stateMutability": "view",
      "type": "function"
    },
    {
      "inputs": [],
      "name": "decimals",
      "outputs": [
        {
          "internalType": "uint8",
          "name": "",
          "type": "uint8"
        }
      ],
      "stateMutability": "view",
      "type": "function"
    },
    {
      "inputs": [
        {
          "internalType": "address",
          "name": "spender",
          "type": "address"
        },
        {
          "internalType": "uint256",
          "name": "subtractedValue",
          "type": "uint256"
        }
      ],
      "name": "decreaseAllowance",
      "outputs": [
        {
          "internalType": "bool",
          "name": "",
          "type": "bool"
        }
      ],
      "stateMutability": "nonpayable",
      "type": "function"
    },
    {
      "inputs": [
        {
          "internalType": "bytes32",
          "name": "role",
          "type": "bytes32"
        }
      ],
      "name": "getRoleAdmin",
      "outputs": [
        {
          "internalType": "bytes32",
          "name": "",
          "type": "bytes32"
        }
      ],
      "stateMutability": "view",
      "type": "function"
    },
    {
      "inputs": [
        {
          "internalType": "bytes32",
          "name": "role",
          "type": "bytes32"
        },
        {
          "internalType": "uint256",
          "name": "index",
          "type": "uint256"
        }
      ],
      "name": "getRoleMember",
      "outputs": [
        {
          "internalType": "address",
          "name": "",
          "type": "address"
        }
      ],
      "stateMutability": "view",
      "type": "function"
    },
    {
      "inputs": [
        {
          "internalType": "bytes32",
          "name": "role",
          "type": "bytes32"
        }
      ],
      "name": "getRoleMemberCount",
      "outputs": [
        {
          "internalType": "uint256",
          "name": "",
          "type": "uint256"
        }
      ],
      "stateMutability": "view",
      "type": "function"
    },
    {
      "inputs": [
        {
          "internalType": "bytes32",
          "name": "role",
          "type": "bytes32"
        },
        {
          "internalType": "address",
          "name": "account",
          "type": "address"
        }
      ],
      "name": "grantRole",
      "outputs": [],
      "stateMutability": "nonpayable",
      "type": "function"
    },
    {
      "inputs": [
        {
          "internalType": "bytes32",
          "name": "role",
          "type": "bytes32"
        },
        {
          "internalType": "address",
          "name": "account",
          "type": "address"
        }
      ],
      "name": "hasRole",
      "outputs": [
        {
          "internalType": "bool",
          "name": "",
          "type": "bool"
        }
      ],
      "stateMutability": "view",
      "type": "function"
    },
    {
      "inputs": [
        {
          "internalType": "address",
          "name": "spender",
          "type": "address"
        },
        {
          "internalType": "uint256",
          "name": "addedValue",
          "type": "uint256"
        }
      ],
      "name": "increaseAllowance",
      "outputs": [
        {
          "internalType": "bool",
          "name": "",
          "type": "bool"
        }
      ],
      "stateMutability": "nonpayable",
      "type": "function"
    },
    {
      "inputs": [],
      "name": "name",
      "outputs": [
        {
          "internalType": "string",
          "name": "",
          "type": "string"
        }
      ],
      "stateMutability": "view",
      "type": "function"
    },
    {
      "inputs": [],
      "name": "paused",
      "outputs": [
        {
          "internalType": "bool",
          "name": "",
          "type": "bool"
        }
      ],
      "stateMutability": "view",
      "type": "function"
    },
    {
      "inputs": [],
      "name": "proxiableUUID",
      "outputs": [
        {
          "internalType": "bytes32",
          "name": "",
          "type": "bytes32"
        }
      ],
      "stateMutability": "view",
      "type": "function"
    },
    {
      "inputs": [
        {
          "internalType": "bytes32",
          "name": "role",
          "type": "bytes32"
        },
        {
          "internalType": "address",
          "name": "account",
          "type": "address"
        }
      ],
      "name": "renounceRole",
      "outputs": [],
      "stateMutability": "nonpayable",
      "type": "function"
    },
    {
      "inputs": [
        {
          "internalType": "bytes32",
          "name": "role",
          "type": "bytes32"
        },
        {
          "internalType": "address",
          "name": "account",
          "type": "address"
        }
      ],
      "name": "revokeRole",
      "outputs": [],
      "stateMutability": "nonpayable",
      "type": "function"
    },
    {
      "inputs": [
        {
          "internalType": "bytes4",
          "name": "interfaceId",
          "type": "bytes4"
        }
      ],
      "name": "supportsInterface",
      "outputs": [
        {
          "internalType": "bool",
          "name": "",
          "type": "bool"
        }
      ],
      "stateMutability": "view",
      "type": "function"
    },
    {
      "inputs": [],
      "name": "swapRouter",
      "outputs": [
        {
          "internalType": "contract ISwapRouter",
          "name": "",
          "type": "address"
        }
      ],
      "stateMutability": "view",
      "type": "function"
    },
    {
      "inputs": [],
      "name": "symbol",
      "outputs": [
        {
          "internalType": "string",
          "name": "",
          "type": "string"
        }
      ],
      "stateMutability": "view",
      "type": "function"
    },
    {
      "inputs": [],
      "name": "totalSupply",
      "outputs": [
        {
          "internalType": "uint256",
          "name": "",
          "type": "uint256"
        }
      ],
      "stateMutability": "view",
      "type": "function"
    },
    {
      "inputs": [
        {
          "internalType": "address",
          "name": "to",
          "type": "address"
        },
        {
          "internalType": "uint256",
          "name": "amount",
          "type": "uint256"
        }
      ],
      "name": "transfer",
      "outputs": [
        {
          "internalType": "bool",
          "name": "",
          "type": "bool"
        }
      ],
      "stateMutability": "nonpayable",
      "type": "function"
    },
    {
      "inputs": [
        {
          "internalType": "address",
          "name": "from",
          "type": "address"
        },
        {
          "internalType": "address",
          "name": "to",
          "type": "address"
        },
        {
          "internalType": "uint256",
          "name": "amount",
          "type": "uint256"
        }
      ],
      "name": "transferFrom",
      "outputs": [
        {
          "internalType": "bool",
          "name": "",
          "type": "bool"
        }
      ],
      "stateMutability": "nonpayable",
      "type": "function"
    },
    {
      "inputs": [
        {
          "internalType": "address",
          "name": "newImplementation",
          "type": "address"
        }
      ],
      "name": "upgradeTo",
      "outputs": [],
      "stateMutability": "nonpayable",
      "type": "function"
    },
    {
      "inputs": [
        {
          "internalType": "address",
          "name": "newImplementation",
          "type": "address"
        },
        {
          "internalType": "bytes",
          "name": "data",
          "type": "bytes"
        }
      ],
      "name": "upgradeToAndCall",
      "outputs": [],
      "stateMutability": "payable",
      "type": "function"
    },
    {
      "inputs": [
        {
          "internalType": "string",
          "name": "name_",
          "type": "string"
        },
        {
          "internalType": "string",
          "name": "symbol_",
          "type": "string"
        },
        {
          "internalType": "uint256",
          "name": "initialSupply",
          "type": "uint256"
        },
        {
          "internalType": "address",
          "name": "owner_",
          "type": "address"
        },
        {
          "internalType": "uint256",
          "name": "cap_",
          "type": "uint256"
        }
      ],
      "name": "initialize",
      "outputs": [],
      "stateMutability": "nonpayable",
      "type": "function"
    },
    {
      "inputs": [],
      "name": "pause",
      "outputs": [],
      "stateMutability": "nonpayable",
      "type": "function"
    },
    {
      "inputs": [],
      "name": "unpause",
      "outputs": [],
      "stateMutability": "nonpayable",
      "type": "function"
    },
    {
      "inputs": [
        {
          "internalType": "uint256",
          "name": "amount",
          "type": "uint256"
        }
      ],
      "name": "burn",
      "outputs": [],
      "stateMutability": "nonpayable",
      "type": "function"
    },
    {
      "inputs": [
        {
          "internalType": "address",
          "name": "account",
          "type": "address"
        },
        {
          "internalType": "uint256",
          "name": "amount",
          "type": "uint256"
        }
      ],
      "name": "burnFrom",
      "outputs": [],
      "stateMutability": "nonpayable",
      "type": "function"
    },
    {
      "inputs": [
        {
          "internalType": "address",
          "name": "to",
          "type": "address"
        },
        {
          "internalType": "uint256",
          "name": "amount",
          "type": "uint256"
        }
      ],
      "name": "mint",
      "outputs": [],
      "stateMutability": "nonpayable",
      "type": "function"
    },
    {
      "inputs": [
        {
          "internalType": "string",
          "name": "logoUrl",
          "type": "string"
        }
      ],
      "name": "setLogoUrl",
      "outputs": [],
      "stateMutability": "nonpayable",
      "type": "function"
    },
    {
      "inputs": [],
      "name": "logoUri",
      "outputs": [
        {
          "internalType": "string",
          "name": "",
          "type": "string"
        }
      ],
      "stateMutability": "view",
      "type": "function"
    }
  ],
  "bytecode": "0x60a06040523073ffffffffffffffffffffffffffffffffffffffff1660809073ffffffffffffffffffffffffffffffffffffffff168152503480156200004457600080fd5b50600060019054906101000a900460ff166200006f5760008054906101000a900460ff161562000080565b6200007f6200013c60201b60201c565b5b620000c2576040517f08c379a0000000000000000000000000000000000000000000000000000000008152600401620000b99062000204565b60405180910390fd5b60008060019054906101000a900460ff16159050801562000113576001600060016101000a81548160ff02191690831515021790555060016000806101000a81548160ff0219169083151502179055505b8015620001355760008060016101000a81548160ff0219169083151502179055505b5062000226565b600062000154306200015a60201b620019751760201c565b15905090565b6000808273ffffffffffffffffffffffffffffffffffffffff163b119050919050565b600082825260208201905092915050565b7f496e697469616c697a61626c653a20636f6e747261637420697320616c72656160008201527f647920696e697469616c697a6564000000000000000000000000000000000000602082015250565b6000620001ec602e836200017d565b9150620001f9826200018e565b604082019050919050565b600060208201905081810360008301526200021f81620001dd565b9050919050565b60805161535b6200025e60003960008181610bf701528181610c8501528181610fbe0152818161104c01526110fc015261535b6000f3fe60806040526004361061023b5760003560e01c806370a082311161012e578063a9059cbb116100ab578063d547741f1161006f578063d547741f146108a2578063dd62ed3e146108cb578063e63ab1e914610908578063f72c0d8b14610933578063fede02761461095e5761023b565b8063a9059cbb146107a9578063bf748234146107e6578063c31c9c071461080f578063ca15c8731461083a578063d5391393146108775761023b565b806391d14854116100f257806391d14854146106ae57806395d89b41146106eb578063a217fddf14610716578063a457c2d714610741578063a7d0df0c1461077e5761023b565b806370a08231146105c957806374cba8451461060657806379cc6790146106315780638456cb591461065a5780639010d07c146106715761023b565b806336568abe116101bc57806342966c681161018057806342966c68146105035780634aa4a4fc1461052c5780634f1ef2861461055757806352d1902d146105735780635c975abb1461059e5761023b565b806336568abe146104345780633659cfe61461045d57806339509351146104865780633f4ba83a146104c357806340c10f19146104da5761023b565b8063248a9ca311610203578063248a9ca31461034d578063282c51f31461038a5780632f2ff15d146103b5578063313ce567146103de578063355274ea146104095761023b565b806301ffc9a71461024057806306fdde031461027d578063095ea7b3146102a857806318160ddd146102e557806323b872dd14610310575b600080fd5b34801561024c57600080fd5b5061026760048036038101906102629190613771565b610987565b60405161027491906137b9565b60405180910390f35b34801561028957600080fd5b50610292610a01565b60405161029f919061386d565b60405180910390f35b3480156102b457600080fd5b506102cf60048036038101906102ca9190613923565b610a94565b6040516102dc91906137b9565b60405180910390f35b3480156102f157600080fd5b506102fa610ab7565b6040516103079190613972565b60405180910390f35b34801561031c57600080fd5b506103376004803603810190610332919061398d565b610ac2565b60405161034491906137b9565b60405180910390f35b34801561035957600080fd5b50610374600480360381019061036f9190613a16565b610af1565b6040516103819190613a52565b60405180910390f35b34801561039657600080fd5b5061039f610b11565b6040516103ac9190613a52565b60405180910390f35b3480156103c157600080fd5b506103dc60048036038101906103d79190613a6d565b610b35565b005b3480156103ea57600080fd5b506103f3610b5e565b6040516104009190613ac9565b60405180910390f35b34801561041557600080fd5b5061041e610b67565b60405161042b9190613972565b60405180910390f35b34801561044057600080fd5b5061045b60048036038101906104569190613a6d565b610b72565b005b34801561046957600080fd5b50610484600480360381019061047f9190613ae4565b610bf5565b005b34801561049257600080fd5b506104ad60048036038101906104a89190613923565b610d7d565b6040516104ba91906137b9565b60405180910390f35b3480156104cf57600080fd5b506104d8610e28565b005b3480156104e657600080fd5b5061050160048036038101906104fc9190613923565b610ea2565b005b34801561050f57600080fd5b5061052a60048036038101906105259190613b11565b610f20565b005b34801561053857600080fd5b50610541610fa4565b60405161054e9190613b4d565b60405180910390f35b610571600480360381019061056c9190613c9d565b610fbc565b005b34801561057f57600080fd5b506105886110f8565b6040516105959190613a52565b60405180910390f35b3480156105aa57600080fd5b506105b36111b1565b6040516105c091906137b9565b60405180910390f35b3480156105d557600080fd5b506105f060048036038101906105eb9190613ae4565b6111c9565b6040516105fd9190613972565b60405180910390f35b34801561061257600080fd5b5061061b611213565b6040516106289190613b4d565b60405180910390f35b34801561063d57600080fd5b5061065860048036038101906106539190613923565b61123a565b005b34801561066657600080fd5b5061066f6112ca565b005b34801561067d57600080fd5b5061069860048036038101906106939190613cf9565b611344565b6040516106a59190613b4d565b60405180910390f35b3480156106ba57600080fd5b506106d560048036038101906106d09190613a6d565b611373565b6040516106e291906137b9565b60405180910390f35b3480156106f757600080fd5b506107006113de565b60405161070d919061386d565b60405180910390f35b34801561072257600080fd5b5061072b611471565b6040516107389190613a52565b60405180910390f35b34801561074d57600080fd5b5061076860048036038101906107639190613923565b611478565b60405161077591906137b9565b60405180910390f35b34801561078a57600080fd5b50610793611563565b6040516107a0919061386d565b60405180910390f35b3480156107b557600080fd5b506107d060048036038101906107cb9190613923565b6115f6565b6040516107dd91906137b9565b60405180910390f35b3480156107f257600080fd5b5061080d60048036038101906108089190613dda565b611619565b005b34801561081b57600080fd5b506108246116c5565b6040516108319190613e82565b60405180910390f35b34801561084657600080fd5b50610861600480360381019061085c9190613a16565b6116ec565b60405161086e9190613972565b60405180910390f35b34801561088357600080fd5b5061088c611710565b6040516108999190613a52565b60405180910390f35b3480156108ae57600080fd5b506108c960048036038101906108c49190613a6d565b611734565b005b3480156108d757600080fd5b506108f260048036038101906108ed9190613e9d565b61175d565b6040516108ff9190613972565b60405180910390f35b34801561091457600080fd5b5061091d6117e5565b60405161092a9190613a52565b60405180910390f35b34801561093f57600080fd5b50610948611809565b6040516109559190613a52565b60405180910390f35b34801561096a57600080fd5b5061098560048036038101906109809190613edd565b61182d565b005b60007f5a05180f000000000000000000000000000000000000000000000000000000007bffffffffffffffffffffffffffffffffffffffffffffffffffffffff1916827bffffffffffffffffffffffffffffffffffffffffffffffffffffffff191614806109fa57506109f982611998565b5b9050919050565b60606101308054610a1190613fbf565b80601f0160208091040260200160405190810160405280929190818152602001828054610a3d90613fbf565b8015610a8a5780601f10610a5f57610100808354040283529160200191610a8a565b820191906000526020600020905b815481529060010190602001808311610a6d57829003601f168201915b5050505050905090565b600080610a9f611a12565b9050610aac818585611a1a565b600191505092915050565b600061012f54905090565b600080610acd611a12565b9050610ada858285611be4565b610ae5858585611c70565b60019150509392505050565b600060c96000838152602001908152602001600020600101549050919050565b7f3c11d16cbaffd01df69ce1c404f6340ee057498f5f00246190ea54220576a84881565b610b3e82610af1565b610b4f81610b4a611a12565b611ef5565b610b598383611f92565b505050565b60006012905090565b600061019154905090565b610b7a611a12565b73ffffffffffffffffffffffffffffffffffffffff168173ffffffffffffffffffffffffffffffffffffffff1614610be7576040517f08c379a0000000000000000000000000000000000000000000000000000000008152600401610bde90614062565b60405180910390fd5b610bf18282611fc6565b5050565b7f000000000000000000000000000000000000000000000000000000000000000073ffffffffffffffffffffffffffffffffffffffff163073ffffffffffffffffffffffffffffffffffffffff1603610c83576040517f08c379a0000000000000000000000000000000000000000000000000000000008152600401610c7a906140f4565b60405180910390fd5b7f000000000000000000000000000000000000000000000000000000000000000073ffffffffffffffffffffffffffffffffffffffff16610cc2611ffa565b73ffffffffffffffffffffffffffffffffffffffff1614610d18576040517f08c379a0000000000000000000000000000000000000000000000000000000008152600401610d0f90614186565b60405180910390fd5b610d2181612051565b610d7a81600067ffffffffffffffff811115610d4057610d3f613b72565b5b6040519080825280601f01601f191660200182016040528015610d725781602001600182028036833780820191505090505b5060006120e5565b50565b600080610d88611a12565b9050610e1d81858561012e60008673ffffffffffffffffffffffffffffffffffffffff1673ffffffffffffffffffffffffffffffffffffffff16815260200190815260200160002060008973ffffffffffffffffffffffffffffffffffffffff1673ffffffffffffffffffffffffffffffffffffffff16815260200190815260200160002054610e1891906141d5565b611a1a565b600191505092915050565b610e597f65d7a28e3265b37a6474929f336521b332c1681b933f6cb9f3376673440d862a610e54611a12565b611373565b610e98576040517f08c379a0000000000000000000000000000000000000000000000000000000008152600401610e8f9061429d565b60405180910390fd5b610ea0612253565b565b610ed37f9f2df0fed2c77648de5860a4cc508cd0818c85b8b8a1ab4ceeef8d981c8956a6610ece611a12565b611373565b610f12576040517f08c379a0000000000000000000000000000000000000000000000000000000008152600401610f099061432f565b60405180910390fd5b610f1c82826122f6565b5050565b610f517f3c11d16cbaffd01df69ce1c404f6340ee057498f5f00246190ea54220576a848610f4c611a12565b611373565b610f90576040517f08c379a0000000000000000000000000000000000000000000000000000000008152600401610f879061439b565b60405180910390fd5b610fa1610f9b611a12565b82612360565b50565b73c02aaa39b223fe8d0a0e5c4f27ead9083c756cc281565b7f000000000000000000000000000000000000000000000000000000000000000073ffffffffffffffffffffffffffffffffffffffff163073ffffffffffffffffffffffffffffffffffffffff160361104a576040517f08c379a0000000000000000000000000000000000000000000000000000000008152600401611041906140f4565b60405180910390fd5b7f000000000000000000000000000000000000000000000000000000000000000073ffffffffffffffffffffffffffffffffffffffff16611089611ffa565b73ffffffffffffffffffffffffffffffffffffffff16146110df576040517f08c379a00000000000000000000000000000000000000000000000000000000081526004016110d690614186565b60405180910390fd5b6110e882612051565b6110f4828260016120e5565b5050565b60007f000000000000000000000000000000000000000000000000000000000000000073ffffffffffffffffffffffffffffffffffffffff163073ffffffffffffffffffffffffffffffffffffffff1614611188576040517f08c379a000000000000000000000000000000000000000000000000000000000815260040161117f9061442d565b60405180910390fd5b7f360894a13ba1a3210667c828492db98dca3e2076cc3735a920a3ca505d382bbc60001b905090565b60006101c460009054906101000a900460ff16905090565b600061012d60008373ffffffffffffffffffffffffffffffffffffffff1673ffffffffffffffffffffffffffffffffffffffff168152602001908152602001600020549050919050565b61023260019054906101000a900473ffffffffffffffffffffffffffffffffffffffff1681565b61126b7f3c11d16cbaffd01df69ce1c404f6340ee057498f5f00246190ea54220576a848611266611a12565b611373565b6112aa576040517f08c379a00000000000000000000000000000000000000000000000000000000081526004016112a19061439b565b60405180910390fd5b6112bc826112b6611a12565b83611be4565b6112c68282612360565b5050565b6112fb7f65d7a28e3265b37a6474929f336521b332c1681b933f6cb9f3376673440d862a6112f6611a12565b611373565b61133a576040517f08c379a0000000000000000000000000000000000000000000000000000000008152600401611331906144bf565b60405180910390fd5b611342612556565b565b600061136b8260fb60008681526020019081526020016000206125fa90919063ffffffff16565b905092915050565b600060c9600084815260200190815260200160002060000160008373ffffffffffffffffffffffffffffffffffffffff1673ffffffffffffffffffffffffffffffffffffffff16815260200190815260200160002060009054906101000a900460ff16905092915050565b606061013180546113ee90613fbf565b80601f016020809104026020016040519081016040528092919081815260200182805461141a90613fbf565b80156114675780601f1061143c57610100808354040283529160200191611467565b820191906000526020600020905b81548152906001019060200180831161144a57829003601f168201915b5050505050905090565b6000801b81565b600080611483611a12565b9050600061012e60008373ffffffffffffffffffffffffffffffffffffffff1673ffffffffffffffffffffffffffffffffffffffff16815260200190815260200160002060008673ffffffffffffffffffffffffffffffffffffffff1673ffffffffffffffffffffffffffffffffffffffff1681526020019081526020016000205490508381101561154a576040517f08c379a000000000000000000000000000000000000000000000000000000000815260040161154190614551565b60405180910390fd5b6115578286868403611a1a565b60019250505092915050565b6060610231805461157390613fbf565b80601f016020809104026020016040519081016040528092919081815260200182805461159f90613fbf565b80156115ec5780601f106115c1576101008083540402835291602001916115ec565b820191906000526020600020905b8154815290600101906020018083116115cf57829003601f168201915b5050505050905090565b600080611601611a12565b905061160e818585611c70565b600191505092915050565b61023060009054906101000a900473ffffffffffffffffffffffffffffffffffffffff1673ffffffffffffffffffffffffffffffffffffffff163373ffffffffffffffffffffffffffffffffffffffff16146116aa576040517f08c379a00000000000000000000000000000000000000000000000000000000081526004016116a1906145bd565b60405180910390fd5b8061023190805190602001906116c1929190613662565b5050565b61022860009054906101000a900473ffffffffffffffffffffffffffffffffffffffff1681565b600061170960fb6000848152602001908152602001600020612614565b9050919050565b7f9f2df0fed2c77648de5860a4cc508cd0818c85b8b8a1ab4ceeef8d981c8956a681565b61173d82610af1565b61174e81611749611a12565b611ef5565b6117588383611fc6565b505050565b600061012e60008473ffffffffffffffffffffffffffffffffffffffff1673ffffffffffffffffffffffffffffffffffffffff16815260200190815260200160002060008373ffffffffffffffffffffffffffffffffffffffff1673ffffffffffffffffffffffffffffffffffffffff16815260200190815260200160002054905092915050565b7f65d7a28e3265b37a6474929f336521b332c1681b933f6cb9f3376673440d862a81565b7f189ab7a9244df0848122154315af71fe140f3db0fe014031783b0946b8c9d2e381565b600060019054906101000a900460ff166118555760008054906101000a900460ff161561185e565b61185d612629565b5b61189d576040517f08c379a00000000000000000000000000000000000000000000000000000000081526004016118949061464f565b60405180910390fd5b60008060019054906101000a900460ff1615905080156118ed576001600060016101000a81548160ff02191690831515021790555060016000806101000a81548160ff0219169083151502179055505b6118f561263a565b6118fd61268b565b61190a86868686866126dc565b3061023260016101000a81548173ffffffffffffffffffffffffffffffffffffffff021916908373ffffffffffffffffffffffffffffffffffffffff160217905550801561196d5760008060016101000a81548160ff0219169083151502179055505b505050505050565b6000808273ffffffffffffffffffffffffffffffffffffffff163b119050919050565b60007f7965db0b000000000000000000000000000000000000000000000000000000007bffffffffffffffffffffffffffffffffffffffffffffffffffffffff1916827bffffffffffffffffffffffffffffffffffffffffffffffffffffffff19161480611a0b5750611a0a826128b1565b5b9050919050565b600033905090565b600073ffffffffffffffffffffffffffffffffffffffff168373ffffffffffffffffffffffffffffffffffffffff1603611a89576040517f08c379a0000000000000000000000000000000000000000000000000000000008152600401611a80906146e1565b60405180910390fd5b600073ffffffffffffffffffffffffffffffffffffffff168273ffffffffffffffffffffffffffffffffffffffff1603611af8576040517f08c379a0000000000000000000000000000000000000000000000000000000008152600401611aef90614773565b60405180910390fd5b8061012e60008573ffffffffffffffffffffffffffffffffffffffff1673ffffffffffffffffffffffffffffffffffffffff16815260200190815260200160002060008473ffffffffffffffffffffffffffffffffffffffff1673ffffffffffffffffffffffffffffffffffffffff168152602001908152602001600020819055508173ffffffffffffffffffffffffffffffffffffffff168373ffffffffffffffffffffffffffffffffffffffff167f8c5be1e5ebec7d5bd14f71427d1e84f3dd0314c0f7b2291e5b200ac8c7c3b92583604051611bd79190613972565b60405180910390a3505050565b6000611bf0848461175d565b90507fffffffffffffffffffffffffffffffffffffffffffffffffffffffffffffffff8114611c6a5781811015611c5c576040517f08c379a0000000000000000000000000000000000000000000000000000000008152600401611c53906147df565b60405180910390fd5b611c698484848403611a1a565b5b50505050565b600073ffffffffffffffffffffffffffffffffffffffff168373ffffffffffffffffffffffffffffffffffffffff1603611cdf576040517f08c379a0000000000000000000000000000000000000000000000000000000008152600401611cd690614871565b60405180910390fd5b600073ffffffffffffffffffffffffffffffffffffffff168273ffffffffffffffffffffffffffffffffffffffff1603611d4e576040517f08c379a0000000000000000000000000000000000000000000000000000000008152600401611d4590614903565b60405180910390fd5b611d5983838361291b565b600061012d60008573ffffffffffffffffffffffffffffffffffffffff1673ffffffffffffffffffffffffffffffffffffffff16815260200190815260200160002054905081811015611de1576040517f08c379a0000000000000000000000000000000000000000000000000000000008152600401611dd890614995565b60405180910390fd5b81810361012d60008673ffffffffffffffffffffffffffffffffffffffff1673ffffffffffffffffffffffffffffffffffffffff168152602001908152602001600020819055508161012d60008573ffffffffffffffffffffffffffffffffffffffff1673ffffffffffffffffffffffffffffffffffffffff1681526020019081526020016000206000828254611e7891906141d5565b925050819055508273ffffffffffffffffffffffffffffffffffffffff168473ffffffffffffffffffffffffffffffffffffffff167fddf252ad1be2c89b69c2b068fc378daa952ba7f163c4a11628f55a4df523b3ef84604051611edc9190613972565b60405180910390a3611eef848484612973565b50505050565b611eff8282611373565b611f8e57611f248173ffffffffffffffffffffffffffffffffffffffff166014612978565b611f328360001c6020612978565b604051602001611f43929190614a89565b6040516020818303038152906040526040517f08c379a0000000000000000000000000000000000000000000000000000000008152600401611f85919061386d565b60405180910390fd5b5050565b611f9c8282612bb4565b611fc18160fb6000858152602001908152602001600020612c9590919063ffffffff16565b505050565b611fd08282612cc5565b611ff58160fb6000858152602001908152602001600020612da790919063ffffffff16565b505050565b60006120287f360894a13ba1a3210667c828492db98dca3e2076cc3735a920a3ca505d382bbc60001b612dd7565b60000160009054906101000a900473ffffffffffffffffffffffffffffffffffffffff16905090565b61023060009054906101000a900473ffffffffffffffffffffffffffffffffffffffff1673ffffffffffffffffffffffffffffffffffffffff163373ffffffffffffffffffffffffffffffffffffffff16146120e2576040517f08c379a00000000000000000000000000000000000000000000000000000000081526004016120d9906145bd565b60405180910390fd5b50565b6121117f4910fdfa16fed3260ed0e7147f7cc6da11a60208b5b9406d12a635614ffd914360001b612de1565b60000160009054906101000a900460ff16156121355761213083612deb565b61224e565b8273ffffffffffffffffffffffffffffffffffffffff166352d1902d6040518163ffffffff1660e01b8152600401602060405180830381865afa92505050801561219d57506040513d601f19601f8201168201806040525081019061219a9190614ad8565b60015b6121dc576040517f08c379a00000000000000000000000000000000000000000000000000000000081526004016121d390614b77565b60405180910390fd5b7f360894a13ba1a3210667c828492db98dca3e2076cc3735a920a3ca505d382bbc60001b8114612241576040517f08c379a000000000000000000000000000000000000000000000000000000000815260040161223890614c09565b60405180910390fd5b5061224d838383612ea4565b5b505050565b61225b6111b1565b61229a576040517f08c379a000000000000000000000000000000000000000000000000000000000815260040161229190614c75565b60405180910390fd5b60006101c460006101000a81548160ff0219169083151502179055507f5db9ee0a495bf2e6ff9c91a7834c1ba4fdd244a5e8aa4e537bd38aeae4b073aa6122df611a12565b6040516122ec9190613b4d565b60405180910390a1565b6122fe610b67565b81612307610ab7565b61231191906141d5565b1115612352576040517f08c379a000000000000000000000000000000000000000000000000000000000815260040161234990614ce1565b60405180910390fd5b61235c8282612ed0565b5050565b6123917f3c11d16cbaffd01df69ce1c404f6340ee057498f5f00246190ea54220576a84861238c611a12565b611373565b6123d0576040517f08c379a00000000000000000000000000000000000000000000000000000000081526004016123c79061439b565b60405180910390fd5b6123dc8260008361291b565b600061022960008473ffffffffffffffffffffffffffffffffffffffff1673ffffffffffffffffffffffffffffffffffffffff16815260200190815260200160002054905081811015612464576040517f08c379a000000000000000000000000000000000000000000000000000000000815260040161245b90614d73565b60405180910390fd5b81810361022960008573ffffffffffffffffffffffffffffffffffffffff1673ffffffffffffffffffffffffffffffffffffffff168152602001908152602001600020819055508161022b60008282546124be9190614d93565b925050819055508161022e60008282546124d891906141d5565b92505081905550600073ffffffffffffffffffffffffffffffffffffffff168373ffffffffffffffffffffffffffffffffffffffff167fddf252ad1be2c89b69c2b068fc378daa952ba7f163c4a11628f55a4df523b3ef8460405161253d9190613972565b60405180910390a361255183600084612973565b505050565b61255e6111b1565b1561259e576040517f08c379a000000000000000000000000000000000000000000000000000000000815260040161259590614e13565b60405180910390fd5b60016101c460006101000a81548160ff0219169083151502179055507f62e78cea01bee320cd4e420270b5ea74000d11b0c9f74754ebdbfc544b05a2586125e3611a12565b6040516125f09190613b4d565b60405180910390a1565b60006126098360000183612f3a565b60001c905092915050565b600061262282600001612f65565b9050919050565b600061263430611975565b15905090565b600060019054906101000a900460ff16612689576040517f08c379a000000000000000000000000000000000000000000000000000000000815260040161268090614ea5565b60405180910390fd5b565b600060019054906101000a900460ff166126da576040517f08c379a00000000000000000000000000000000000000000000000000000000081526004016126d190614ea5565b60405180910390fd5b565b600060019054906101000a900460ff1661272b576040517f08c379a000000000000000000000000000000000000000000000000000000000815260040161272290614ea5565b60405180910390fd5b6127358585612f76565b61273d612ff9565b612745613066565b612761670de0b6b3a76400008261275c9190614ec5565b6130b7565b8161023060006101000a81548173ffffffffffffffffffffffffffffffffffffffff021916908373ffffffffffffffffffffffffffffffffffffffff1602179055506127b76000801b6127b2611a12565b613154565b6127e87f9f2df0fed2c77648de5860a4cc508cd0818c85b8b8a1ab4ceeef8d981c8956a66127e3611a12565b613154565b6128197f65d7a28e3265b37a6474929f336521b332c1681b933f6cb9f3376673440d862a612814611a12565b613154565b61284a7f3c11d16cbaffd01df69ce1c404f6340ee057498f5f00246190ea54220576a848612845611a12565b613154565b61287b7f189ab7a9244df0848122154315af71fe140f3db0fe014031783b0946b8c9d2e3612876611a12565b613154565b600061022e81905550600061022f819055506128aa82670de0b6b3a7640000856128a59190614ec5565b610ea2565b5050505050565b60007f01ffc9a7000000000000000000000000000000000000000000000000000000007bffffffffffffffffffffffffffffffffffffffffffffffffffffffff1916827bffffffffffffffffffffffffffffffffffffffffffffffffffffffff1916149050919050565b612926838383613162565b61292e6111b1565b1561296e576040517f08c379a000000000000000000000000000000000000000000000000000000000815260040161296590614f91565b60405180910390fd5b505050565b505050565b60606000600283600261298b9190614ec5565b61299591906141d5565b67ffffffffffffffff8111156129ae576129ad613b72565b5b6040519080825280601f01601f1916602001820160405280156129e05781602001600182028036833780820191505090505b5090507f300000000000000000000000000000000000000000000000000000000000000081600081518110612a1857612a17614fb1565b5b60200101907effffffffffffffffffffffffffffffffffffffffffffffffffffffffffffff1916908160001a9053507f780000000000000000000000000000000000000000000000000000000000000081600181518110612a7c57612a7b614fb1565b5b60200101907effffffffffffffffffffffffffffffffffffffffffffffffffffffffffffff1916908160001a90535060006001846002612abc9190614ec5565b612ac691906141d5565b90505b6001811115612b66577f3031323334353637383961626364656600000000000000000000000000000000600f861660108110612b0857612b07614fb1565b5b1a60f81b828281518110612b1f57612b1e614fb1565b5b60200101907effffffffffffffffffffffffffffffffffffffffffffffffffffffffffffff1916908160001a905350600485901c945080612b5f90614fe0565b9050612ac9565b5060008414612baa576040517f08c379a0000000000000000000000000000000000000000000000000000000008152600401612ba190615055565b60405180910390fd5b8091505092915050565b612bbe8282611373565b612c9157600160c9600084815260200190815260200160002060000160008373ffffffffffffffffffffffffffffffffffffffff1673ffffffffffffffffffffffffffffffffffffffff16815260200190815260200160002060006101000a81548160ff021916908315150217905550612c36611a12565b73ffffffffffffffffffffffffffffffffffffffff168173ffffffffffffffffffffffffffffffffffffffff16837f2f8788117e7eff1d82e926ec794901d17c78024a50270940304540a733656f0d60405160405180910390a45b5050565b6000612cbd836000018373ffffffffffffffffffffffffffffffffffffffff1660001b6131ba565b905092915050565b612ccf8282611373565b15612da357600060c9600084815260200190815260200160002060000160008373ffffffffffffffffffffffffffffffffffffffff1673ffffffffffffffffffffffffffffffffffffffff16815260200190815260200160002060006101000a81548160ff021916908315150217905550612d48611a12565b73ffffffffffffffffffffffffffffffffffffffff168173ffffffffffffffffffffffffffffffffffffffff16837ff6391f5c32d9c69d2a47ea670b442974b53935d1edc7fd64eb21e047a839171b60405160405180910390a45b5050565b6000612dcf836000018373ffffffffffffffffffffffffffffffffffffffff1660001b61322a565b905092915050565b6000819050919050565b6000819050919050565b612df481611975565b612e33576040517f08c379a0000000000000000000000000000000000000000000000000000000008152600401612e2a906150e7565b60405180910390fd5b80612e607f360894a13ba1a3210667c828492db98dca3e2076cc3735a920a3ca505d382bbc60001b612dd7565b60000160006101000a81548173ffffffffffffffffffffffffffffffffffffffff021916908373ffffffffffffffffffffffffffffffffffffffff16021790555050565b612ead8361333e565b600082511180612eba5750805b15612ecb57612ec9838361338d565b505b505050565b612ed8610b67565b81612ee1610ab7565b612eeb91906141d5565b1115612f2c576040517f08c379a0000000000000000000000000000000000000000000000000000000008152600401612f2390614ce1565b60405180910390fd5b612f368282613471565b5050565b6000826000018281548110612f5257612f51614fb1565b5b9060005260206000200154905092915050565b600081600001805490509050919050565b600060019054906101000a900460ff16612fc5576040517f08c379a0000000000000000000000000000000000000000000000000000000008152600401612fbc90614ea5565b60405180910390fd5b816101309080519060200190612fdc929190613662565b50806101319080519060200190612ff4929190613662565b505050565b600060019054906101000a900460ff16613048576040517f08c379a000000000000000000000000000000000000000000000000000000000815260040161303f90614ea5565b60405180910390fd5b60006101c460006101000a81548160ff021916908315150217905550565b600060019054906101000a900460ff166130b5576040517f08c379a00000000000000000000000000000000000000000000000000000000081526004016130ac90614ea5565b60405180910390fd5b565b600060019054906101000a900460ff16613106576040517f08c379a00000000000000000000000000000000000000000000000000000000081526004016130fd90614ea5565b60405180910390fd5b60008111613149576040517f08c379a000000000000000000000000000000000000000000000000000000000815260040161314090615153565b60405180910390fd5b806101918190555050565b61315e8282611f92565b5050565b61316d8383836135d3565b6131756111b1565b156131b5576040517f08c379a00000000000000000000000000000000000000000000000000000000081526004016131ac90614f91565b60405180910390fd5b505050565b60006131c683836135d8565b61321f578260000182908060018154018082558091505060019003906000526020600020016000909190919091505582600001805490508360010160008481526020019081526020016000208190555060019050613224565b600090505b92915050565b6000808360010160008481526020019081526020016000205490506000811461333257600060018261325c9190614d93565b90506000600186600001805490506132749190614d93565b90508181146132e357600086600001828154811061329557613294614fb1565b5b90600052602060002001549050808760000184815481106132b9576132b8614fb1565b5b90600052602060002001819055508387600101600083815260200190815260200160002081905550505b856000018054806132f7576132f6615173565b5b600190038181906000526020600020016000905590558560010160008681526020019081526020016000206000905560019350505050613338565b60009150505b92915050565b61334781612deb565b8073ffffffffffffffffffffffffffffffffffffffff167fbc7cd75a20ee27fd9adebab32041f755214dbc6bffa90cc0225b39da2e5c2d3b60405160405180910390a250565b606061339883611975565b6133d7576040517f08c379a00000000000000000000000000000000000000000000000000000000081526004016133ce90615214565b60405180910390fd5b6000808473ffffffffffffffffffffffffffffffffffffffff16846040516133ff919061527b565b600060405180830381855af49150503d806000811461343a576040519150601f19603f3d011682016040523d82523d6000602084013e61343f565b606091505b509150915061346782826040518060600160405280602781526020016152ff602791396135fb565b9250505092915050565b600073ffffffffffffffffffffffffffffffffffffffff168273ffffffffffffffffffffffffffffffffffffffff16036134e0576040517f08c379a00000000000000000000000000000000000000000000000000000000081526004016134d7906152de565b60405180910390fd5b6134ec6000838361291b565b8061012f60008282546134ff91906141d5565b925050819055508061012d60008473ffffffffffffffffffffffffffffffffffffffff1673ffffffffffffffffffffffffffffffffffffffff168152602001908152602001600020600082825461355691906141d5565b925050819055508173ffffffffffffffffffffffffffffffffffffffff16600073ffffffffffffffffffffffffffffffffffffffff167fddf252ad1be2c89b69c2b068fc378daa952ba7f163c4a11628f55a4df523b3ef836040516135bb9190613972565b60405180910390a36135cf60008383612973565b5050565b505050565b600080836001016000848152602001908152602001600020541415905092915050565b6060831561360b5782905061365b565b60008351111561361e5782518084602001fd5b816040517f08c379a0000000000000000000000000000000000000000000000000000000008152600401613652919061386d565b60405180910390fd5b9392505050565b82805461366e90613fbf565b90600052602060002090601f01602090048101928261369057600085556136d7565b82601f106136a957805160ff19168380011785556136d7565b828001600101855582156136d7579182015b828111156136d65782518255916020019190600101906136bb565b5b5090506136e491906136e8565b5090565b5b808211156137015760008160009055506001016136e9565b5090565b6000604051905090565b600080fd5b600080fd5b60007fffffffff0000000000000000000000000000000000000000000000000000000082169050919050565b61374e81613719565b811461375957600080fd5b50565b60008135905061376b81613745565b92915050565b6000602082840312156137875761378661370f565b5b60006137958482850161375c565b91505092915050565b60008115159050919050565b6137b38161379e565b82525050565b60006020820190506137ce60008301846137aa565b92915050565b600081519050919050565b600082825260208201905092915050565b60005b8381101561380e5780820151818401526020810190506137f3565b8381111561381d576000848401525b50505050565b6000601f19601f8301169050919050565b600061383f826137d4565b61384981856137df565b93506138598185602086016137f0565b61386281613823565b840191505092915050565b600060208201905081810360008301526138878184613834565b905092915050565b600073ffffffffffffffffffffffffffffffffffffffff82169050919050565b60006138ba8261388f565b9050919050565b6138ca816138af565b81146138d557600080fd5b50565b6000813590506138e7816138c1565b92915050565b6000819050919050565b613900816138ed565b811461390b57600080fd5b50565b60008135905061391d816138f7565b92915050565b6000806040838503121561393a5761393961370f565b5b6000613948858286016138d8565b92505060206139598582860161390e565b9150509250929050565b61396c816138ed565b82525050565b60006020820190506139876000830184613963565b92915050565b6000806000606084860312156139a6576139a561370f565b5b60006139b4868287016138d8565b93505060206139c5868287016138d8565b92505060406139d68682870161390e565b9150509250925092565b6000819050919050565b6139f3816139e0565b81146139fe57600080fd5b50565b600081359050613a10816139ea565b92915050565b600060208284031215613a2c57613a2b61370f565b5b6000613a3a84828501613a01565b91505092915050565b613a4c816139e0565b82525050565b6000602082019050613a676000830184613a43565b92915050565b60008060408385031215613a8457613a8361370f565b5b6000613a9285828601613a01565b9250506020613aa3858286016138d8565b9150509250929050565b600060ff82169050919050565b613ac381613aad565b82525050565b6000602082019050613ade6000830184613aba565b92915050565b600060208284031215613afa57613af961370f565b5b6000613b08848285016138d8565b91505092915050565b600060208284031215613b2757613b2661370f565b5b6000613b358482850161390e565b91505092915050565b613b47816138af565b82525050565b6000602082019050613b626000830184613b3e565b92915050565b600080fd5b600080fd5b7f4e487b7100000000000000000000000000000000000000000000000000000000600052604160045260246000fd5b613baa82613823565b810181811067ffffffffffffffff82111715613bc957613bc8613b72565b5b80604052505050565b6000613bdc613705565b9050613be88282613ba1565b919050565b600067ffffffffffffffff821115613c0857613c07613b72565b5b613c1182613823565b9050602081019050919050565b82818337600083830152505050565b6000613c40613c3b84613bed565b613bd2565b905082815260208101848484011115613c5c57613c5b613b6d565b5b613c67848285613c1e565b509392505050565b600082601f830112613c8457613c83613b68565b5b8135613c94848260208601613c2d565b91505092915050565b60008060408385031215613cb457613cb361370f565b5b6000613cc2858286016138d8565b925050602083013567ffffffffffffffff811115613ce357613ce2613714565b5b613cef85828601613c6f565b9150509250929050565b60008060408385031215613d1057613d0f61370f565b5b6000613d1e85828601613a01565b9250506020613d2f8582860161390e565b9150509250929050565b600067ffffffffffffffff821115613d5457613d53613b72565b5b613d5d82613823565b9050602081019050919050565b6000613d7d613d7884613d39565b613bd2565b905082815260208101848484011115613d9957613d98613b6d565b5b613da4848285613c1e565b509392505050565b600082601f830112613dc157613dc0613b68565b5b8135613dd1848260208601613d6a565b91505092915050565b600060208284031215613df057613def61370f565b5b600082013567ffffffffffffffff811115613e0e57613e0d613714565b5b613e1a84828501613dac565b91505092915050565b6000819050919050565b6000613e48613e43613e3e8461388f565b613e23565b61388f565b9050919050565b6000613e5a82613e2d565b9050919050565b6000613e6c82613e4f565b9050919050565b613e7c81613e61565b82525050565b6000602082019050613e976000830184613e73565b92915050565b60008060408385031215613eb457613eb361370f565b5b6000613ec2858286016138d8565b9250506020613ed3858286016138d8565b9150509250929050565b600080600080600060a08688031215613ef957613ef861370f565b5b600086013567ffffffffffffffff811115613f1757613f16613714565b5b613f2388828901613dac565b955050602086013567ffffffffffffffff811115613f4457613f43613714565b5b613f5088828901613dac565b9450506040613f618882890161390e565b9350506060613f72888289016138d8565b9250506080613f838882890161390e565b9150509295509295909350565b7f4e487b7100000000000000000000000000000000000000000000000000000000600052602260045260246000fd5b60006002820490506001821680613fd757607f821691505b602082108103613fea57613fe9613f90565b5b50919050565b7f416363657373436f6e74726f6c3a2063616e206f6e6c792072656e6f756e636560008201527f20726f6c657320666f722073656c660000000000000000000000000000000000602082015250565b600061404c602f836137df565b915061405782613ff0565b604082019050919050565b6000602082019050818103600083015261407b8161403f565b9050919050565b7f46756e6374696f6e206d7573742062652063616c6c6564207468726f7567682060008201527f64656c656761746563616c6c0000000000000000000000000000000000000000602082015250565b60006140de602c836137df565b91506140e982614082565b604082019050919050565b6000602082019050818103600083015261410d816140d1565b9050919050565b7f46756e6374696f6e206d7573742062652063616c6c6564207468726f7567682060008201527f6163746976652070726f78790000000000000000000000000000000000000000602082015250565b6000614170602c836137df565b915061417b82614114565b604082019050919050565b6000602082019050818103600083015261419f81614163565b9050919050565b7f4e487b7100000000000000000000000000000000000000000000000000000000600052601160045260246000fd5b60006141e0826138ed565b91506141eb836138ed565b9250827fffffffffffffffffffffffffffffffffffffffffffffffffffffffffffffffff038211156142205761421f6141a6565b5b828201905092915050565b7f45524332305072657365744d696e7465725061757365723a206d75737420686160008201527f76652070617573657220726f6c6520746f20756e706175736500000000000000602082015250565b60006142876039836137df565b91506142928261422b565b604082019050919050565b600060208201905081810360008301526142b68161427a565b9050919050565b7f45524332305072657365744d696e7465725061757365723a206d75737420686160008201527f7665206d696e74657220726f6c6520746f206d696e7400000000000000000000602082015250565b60006143196036836137df565b9150614324826142bd565b604082019050919050565b600060208201905081810360008301526143488161430c565b9050919050565b7f6d7573742068617665206275726e657220726f6c6520746f206275726e000000600082015250565b6000614385601d836137df565b91506143908261434f565b602082019050919050565b600060208201905081810360008301526143b481614378565b9050919050565b7f555550535570677261646561626c653a206d757374206e6f742062652063616c60008201527f6c6564207468726f7567682064656c656761746563616c6c0000000000000000602082015250565b60006144176038836137df565b9150614422826143bb565b604082019050919050565b600060208201905081810360008301526144468161440a565b9050919050565b7f45524332305072657365744d696e7465725061757365723a206d75737420686160008201527f76652070617573657220726f6c6520746f207061757365000000000000000000602082015250565b60006144a96037836137df565b91506144b48261444d565b604082019050919050565b600060208201905081810360008301526144d88161449c565b9050919050565b7f45524332303a2064656372656173656420616c6c6f77616e63652062656c6f7760008201527f207a65726f000000000000000000000000000000000000000000000000000000602082015250565b600061453b6025836137df565b9150614546826144df565b604082019050919050565b6000602082019050818103600083015261456a8161452e565b9050919050565b7f6f6e6c79206f776e65722063616e206578656375746500000000000000000000600082015250565b60006145a76016836137df565b91506145b282614571565b602082019050919050565b600060208201905081810360008301526145d68161459a565b9050919050565b7f496e697469616c697a61626c653a20636f6e747261637420697320616c72656160008201527f647920696e697469616c697a6564000000000000000000000000000000000000602082015250565b6000614639602e836137df565b9150614644826145dd565b604082019050919050565b600060208201905081810360008301526146688161462c565b9050919050565b7f45524332303a20617070726f76652066726f6d20746865207a65726f2061646460008201527f7265737300000000000000000000000000000000000000000000000000000000602082015250565b60006146cb6024836137df565b91506146d68261466f565b604082019050919050565b600060208201905081810360008301526146fa816146be565b9050919050565b7f45524332303a20617070726f766520746f20746865207a65726f20616464726560008201527f7373000000000000000000000000000000000000000000000000000000000000602082015250565b600061475d6022836137df565b915061476882614701565b604082019050919050565b6000602082019050818103600083015261478c81614750565b9050919050565b7f45524332303a20696e73756666696369656e7420616c6c6f77616e6365000000600082015250565b60006147c9601d836137df565b91506147d482614793565b602082019050919050565b600060208201905081810360008301526147f8816147bc565b9050919050565b7f45524332303a207472616e736665722066726f6d20746865207a65726f20616460008201527f6472657373000000000000000000000000000000000000000000000000000000602082015250565b600061485b6025836137df565b9150614866826147ff565b604082019050919050565b6000602082019050818103600083015261488a8161484e565b9050919050565b7f45524332303a207472616e7366657220746f20746865207a65726f206164647260008201527f6573730000000000000000000000000000000000000000000000000000000000602082015250565b60006148ed6023836137df565b91506148f882614891565b604082019050919050565b6000602082019050818103600083015261491c816148e0565b9050919050565b7f45524332303a207472616e7366657220616d6f756e742065786365656473206260008201527f616c616e63650000000000000000000000000000000000000000000000000000602082015250565b600061497f6026836137df565b915061498a82614923565b604082019050919050565b600060208201905081810360008301526149ae81614972565b9050919050565b600081905092915050565b7f416363657373436f6e74726f6c3a206163636f756e7420000000000000000000600082015250565b60006149f66017836149b5565b9150614a01826149c0565b601782019050919050565b6000614a17826137d4565b614a2181856149b5565b9350614a318185602086016137f0565b80840191505092915050565b7f206973206d697373696e6720726f6c6520000000000000000000000000000000600082015250565b6000614a736011836149b5565b9150614a7e82614a3d565b601182019050919050565b6000614a94826149e9565b9150614aa08285614a0c565b9150614aab82614a66565b9150614ab78284614a0c565b91508190509392505050565b600081519050614ad2816139ea565b92915050565b600060208284031215614aee57614aed61370f565b5b6000614afc84828501614ac3565b91505092915050565b7f45524331393637557067726164653a206e657720696d706c656d656e7461746960008201527f6f6e206973206e6f742055555053000000000000000000000000000000000000602082015250565b6000614b61602e836137df565b9150614b6c82614b05565b604082019050919050565b60006020820190508181036000830152614b9081614b54565b9050919050565b7f45524331393637557067726164653a20756e737570706f727465642070726f7860008201527f6961626c65555549440000000000000000000000000000000000000000000000602082015250565b6000614bf36029836137df565b9150614bfe82614b97565b604082019050919050565b60006020820190508181036000830152614c2281614be6565b9050919050565b7f5061757361626c653a206e6f7420706175736564000000000000000000000000600082015250565b6000614c5f6014836137df565b9150614c6a82614c29565b602082019050919050565b60006020820190508181036000830152614c8e81614c52565b9050919050565b7f45524332304361707065643a2063617020657863656564656400000000000000600082015250565b6000614ccb6019836137df565b9150614cd682614c95565b602082019050919050565b60006020820190508181036000830152614cfa81614cbe565b9050919050565b7f45524332303a206275726e20616d6f756e7420657863656564732062616c616e60008201527f6365000000000000000000000000000000000000000000000000000000000000602082015250565b6000614d5d6022836137df565b9150614d6882614d01565b604082019050919050565b60006020820190508181036000830152614d8c81614d50565b9050919050565b6000614d9e826138ed565b9150614da9836138ed565b925082821015614dbc57614dbb6141a6565b5b828203905092915050565b7f5061757361626c653a2070617573656400000000000000000000000000000000600082015250565b6000614dfd6010836137df565b9150614e0882614dc7565b602082019050919050565b60006020820190508181036000830152614e2c81614df0565b9050919050565b7f496e697469616c697a61626c653a20636f6e7472616374206973206e6f74206960008201527f6e697469616c697a696e67000000000000000000000000000000000000000000602082015250565b6000614e8f602b836137df565b9150614e9a82614e33565b604082019050919050565b60006020820190508181036000830152614ebe81614e82565b9050919050565b6000614ed0826138ed565b9150614edb836138ed565b9250817fffffffffffffffffffffffffffffffffffffffffffffffffffffffffffffffff0483118215151615614f1457614f136141a6565b5b828202905092915050565b7f45524332305061757361626c653a20746f6b656e207472616e7366657220776860008201527f696c652070617573656400000000000000000000000000000000000000000000602082015250565b6000614f7b602a836137df565b9150614f8682614f1f565b604082019050919050565b60006020820190508181036000830152614faa81614f6e565b9050919050565b7f4e487b7100000000000000000000000000000000000000000000000000000000600052603260045260246000fd5b6000614feb826138ed565b915060008203614ffe57614ffd6141a6565b5b600182039050919050565b7f537472696e67733a20686578206c656e67746820696e73756666696369656e74600082015250565b600061503f6020836137df565b915061504a82615009565b602082019050919050565b6000602082019050818103600083015261506e81615032565b9050919050565b7f455243313936373a206e657720696d706c656d656e746174696f6e206973206e60008201527f6f74206120636f6e747261637400000000000000000000000000000000000000602082015250565b60006150d1602d836137df565b91506150dc82615075565b604082019050919050565b60006020820190508181036000830152615100816150c4565b9050919050565b7f45524332304361707065643a2063617020697320300000000000000000000000600082015250565b600061513d6015836137df565b915061514882615107565b602082019050919050565b6000602082019050818103600083015261516c81615130565b9050919050565b7f4e487b7100000000000000000000000000000000000000000000000000000000600052603160045260246000fd5b7f416464726573733a2064656c65676174652063616c6c20746f206e6f6e2d636f60008201527f6e74726163740000000000000000000000000000000000000000000000000000602082015250565b60006151fe6026836137df565b9150615209826151a2565b604082019050919050565b6000602082019050818103600083015261522d816151f1565b9050919050565b600081519050919050565b600081905092915050565b600061525582615234565b61525f818561523f565b935061526f8185602086016137f0565b80840191505092915050565b6000615287828461524a565b915081905092915050565b7f45524332303a206d696e7420746f20746865207a65726f206164647265737300600082015250565b60006152c8601f836137df565b91506152d382615292565b602082019050919050565b600060208201905081810360008301526152f7816152bb565b905091905056fe416464726573733a206c6f772d6c6576656c2064656c65676174652063616c6c206661696c6564a264697066735822122025bf7598680109d748c81566a173e9c9da4d3a491fb307d4f9692eb30858875f64736f6c634300080d0033",
  "immutableReferences": {
    "1189": [
      {
        "length": 32,
        "start": 3063
      },
      {
        "length": 32,
        "start": 3205
      },
      {
        "length": 32,
        "start": 4030
      },
      {
        "length": 32,
        "start": 4172
      },
      {
        "length": 32,
        "start": 4348
      }
    ]
  },
  "source": "//SPDX-License-Identifier: Unlicense\npragma solidity >0.4.23 <0.9.0;\n\nimport \"@openzeppelin/contracts-upgradeable/proxy/utils/Initializable.sol\";\nimport \"@openzeppelin/contracts-upgradeable/proxy/utils/UUPSUpgradeable.sol\";\n\nimport \"@openzeppelin/contracts-upgradeable/utils/ContextUpgradeable.sol\";\nimport \"@openzeppelin/contracts-upgradeable/token/ERC20/extensions/ERC20BurnableUpgradeable.sol\";\nimport \"@openzeppelin/contracts-upgradeable/token/ERC20/extensions/ERC20PausableUpgradeable.sol\";\nimport \"@openzeppelin/contracts-upgradeable/token/ERC20/extensions/ERC20CappedUpgradeable.sol\";\nimport \"@openzeppelin/contracts-upgradeable/token/ERC20/extensions/IERC20MetadataUpgradeable.sol\";\nimport \"@openzeppelin/contracts-upgradeable/access/AccessControlEnumerableUpgradeable.sol\";\nimport '@uniswap/v3-periphery/contracts/interfaces/ISwapRouter.sol';\nimport '@uniswap/v3-periphery/contracts/libraries/TransferHelper.sol';\n\n contract AkapzToken is Initializable, UUPSUpgradeable, ContextUpgradeable, AccessControlEnumerableUpgradeable, IERC20MetadataUpgradeable, ERC20BurnableUpgradeable, ERC20CappedUpgradeable, ERC20PausableUpgradeable {\n\nISwapRouter public swapRouter;\n\n    bytes32 public constant MINTER_ROLE = keccak256(\"MINTER_ROLE\");\n    bytes32 public constant PAUSER_ROLE = keccak256(\"PAUSER_ROLE\");\n    bytes32 public constant BURNER_ROLE = keccak256(\"BURNER_ROLE\");\n      bytes32 public constant UPGRADER_ROLE = keccak256(\"UPGRADER_ROLE\");\n\n mapping(address => uint256) private _balances;\n\n    mapping(address => mapping(address => uint256)) private _allowances;\n\n    uint256 private _totalSupply;\n\n    string private _name;\n    string private _symbol;\n\n\n    uint256 private _totalBurned;\n    uint256 private _totalLocked;\n    address private _owner;\n    bool private _initializedParams;\n    string private _ipfsLogoUrl;\n  \n    uint8 private _decimals;\n    address public Akapz ;\n    address public constant WETH9 = 0xC02aaA39b223FE8D0A0e5C4F27eAD9083C756Cc2;\n\n    event Initialized(string name, address by, uint on);\n\n\n    /// @custom:oz-upgrades-unsafe-allow constructor\n    constructor() initializer {}\n\n    function initialize(  \n        string memory name_,\n        string memory symbol_,\n        uint256 initialSupply,\n        address owner_,\n        uint256 cap_) initializer public {\n            __UUPSUpgradeable_init();\n        __Context_init_unchained();\n        __Akapz_Init(name_, symbol_, initialSupply, owner_, cap_);\n        Akapz = address(this);\n        \n    }\n\n    function __Akapz_Init( string memory name_,\n        string memory symbol_,\n        uint256 initialSupply,\n        address owner_,\n        uint256 cap_) internal onlyInitializing {\n       /*       _totalSupply = 100000000 * 10 ** 18; // 100 million tokens available\n        _decimals = 18;\n        _totalBurned = 0;\n        _totalLocked = 0;\n        _owner = msg.sender;\n        _initializedParams = true;\n        mint(msg.sender, _totalSupply);*/\n __ERC20_init_unchained(name_, symbol_);\n    __Pausable_init_unchained();\n __ERC20Burnable_init_unchained();\n __ERC20Capped_init_unchained(cap_ * 10 ** 18);\n _owner = owner_;\n   _setupRole(DEFAULT_ADMIN_ROLE, _msgSender());\n\n        _setupRole(MINTER_ROLE, _msgSender());\n        _setupRole(PAUSER_ROLE, _msgSender());\n         _setupRole(BURNER_ROLE, _msgSender());\n            _setupRole(UPGRADER_ROLE, _msgSender());\n                _totalBurned = 0;\n        _totalLocked = 0;\n        mint(owner_, initialSupply * 10 ** 18);\n\n        }\n\n        function _authorizeUpgrade(address) internal override view onlyOwner {\n                   \n        }\n\n         function _beforeTokenTransfer(\n        address from,\n        address to,\n        uint256 amount\n    ) internal virtual override(ERC20PausableUpgradeable, ERC20Upgradeable) {\n        super._beforeTokenTransfer(from, to, amount);\n\n        require(!paused(), \"ERC20Pausable: token transfer while paused\");\n    }\n\n function pause() public virtual {\n        require(hasRole(PAUSER_ROLE, _msgSender()), \"ERC20PresetMinterPauser: must have pauser role to pause\");\n        _pause();\n    }\n\n   function unpause() public virtual {\n        require(hasRole(PAUSER_ROLE, _msgSender()), \"ERC20PresetMinterPauser: must have pauser role to unpause\");\n        _unpause();\n    }\n\n\n /**\n     * @dev See {ERC20-_mint}.\n     */\n    function _mint(address account, uint256 amount) internal virtual override(ERC20CappedUpgradeable, ERC20Upgradeable) {\n        require(ERC20Upgradeable.totalSupply() + amount <= cap(), \"ERC20Capped: cap exceeded\");\n        super._mint(account, amount);\n    }\n    function burn(uint256 amount) public virtual override {\n        require(hasRole(BURNER_ROLE, _msgSender()), \"must have burner role to burn\");\n\n        _burn(_msgSender(), amount);\n    }\n\n      function burnFrom(address account, uint256 amount) public virtual override {\n        require(hasRole(BURNER_ROLE, _msgSender()), \"must have burner role to burn\");\n\n        _spendAllowance(account, _msgSender(), amount);\n        _burn(account, amount);\n    }\n\n     function _burn(address account, uint256 amount) internal virtual override {\n        require(hasRole(BURNER_ROLE, _msgSender()), \"must have burner role to burn\");\n\n        _beforeTokenTransfer(account, address(0), amount);\n\n        uint256 accountBalance = _balances[account];\n        require(accountBalance >= amount, \"ERC20: burn amount exceeds balance\");\n        unchecked {\n            _balances[account] = accountBalance - amount;\n        }\n        _totalSupply -= amount;\n\n        _totalBurned += amount;\n\n        emit Transfer(account, address(0), amount);\n\n        _afterTokenTransfer(account, address(0), amount);\n    }\n\n    function mint(address to, uint256 amount) public virtual {\n        require(hasRole(MINTER_ROLE, _msgSender()), \"ERC20PresetMinterPauser: must have minter role to mint\");\n        _mint(to, amount);\n    }\n    function _init() private {\n      \n        emit Initialized(\"Akapz token\", msg.sender, block.timestamp); // only using block.timestamp for event purpose never use it anywhere else!\n\n    }\n\n    modifier onlyUninitialized {\n        require(_initializedParams != true, \"already initialized\");\n        _;\n    }\n\n    modifier onlyOwner() {\n        require(msg.sender == _owner, \"only owner can execute\");\n        _;\n    }\n\n    modifier noZeroAddress {\n        require(msg.sender != address(0), \"no zero addresss\");\n        _;\n    }\n\n   /* function lockFunds(address transferFromAddr, uint256 amount, address toWallet, uint until) private onlyOwner dateAfterNow(until) enoughFunds(amount, forWallet) {\n\n    }*/\n\n    modifier enoughFunds(uint256 amount, address wallet) {\n        require(_balances[wallet] >= amount, \"balance is not sufficient\");\n        _;\n    }\n\n    modifier dateAfterNow(uint target) {\n        uint _now = block.timestamp;\n        require(_now < target, \"invalid target date\");\n        _;\n    }\n\n    function setLogoUrl(string memory logoUrl) public onlyOwner  {\n        _ipfsLogoUrl = logoUrl;\n    }\n\n    function logoUri() public view returns(string memory) {\n        return _ipfsLogoUrl;\n    }\n\n}",
  "sourcePath": "/Users/nicolascloutier/GolandProjects/contracts/contracts/tokens/AkapzToken.sol",
  "compiler": {
    "name": "solc",
    "version": "0.8.13+commit.abaa5c0e.Emscripten.clang"
  },
  "schemaVersion": "3.4.7",
  "updatedAt": "2022-05-01T15:48:00.338Z",
  "devdoc": {
    "kind": "dev",
    "methods": {
      "allowance(address,address)": {
        "details": "See {IERC20-allowance}."
      },
      "approve(address,uint256)": {
        "details": "See {IERC20-approve}. NOTE: If `amount` is the maximum `uint256`, the allowance is not updated on `transferFrom`. This is semantically equivalent to an infinite approval. Requirements: - `spender` cannot be the zero address."
      },
      "balanceOf(address)": {
        "details": "See {IERC20-balanceOf}."
      },
      "burn(uint256)": {
        "details": "Destroys `amount` tokens from the caller. See {ERC20-_burn}."
      },
      "burnFrom(address,uint256)": {
        "details": "Destroys `amount` tokens from `account`, deducting from the caller's allowance. See {ERC20-_burn} and {ERC20-allowance}. Requirements: - the caller must have allowance for ``accounts``'s tokens of at least `amount`."
      },
      "cap()": {
        "details": "Returns the cap on the token's total supply."
      },
      "constructor": {
        "custom:oz-upgrades-unsafe-allow": "constructor"
      },
      "decimals()": {
        "details": "Returns the number of decimals used to get its user representation. For example, if `decimals` equals `2`, a balance of `505` tokens should be displayed to a user as `5.05` (`505 / 10 ** 2`). Tokens usually opt for a value of 18, imitating the relationship between Ether and Wei. This is the value {ERC20} uses, unless this function is overridden; NOTE: This information is only used for _display_ purposes: it in no way affects any of the arithmetic of the contract, including {IERC20-balanceOf} and {IERC20-transfer}."
      },
      "decreaseAllowance(address,uint256)": {
        "details": "Atomically decreases the allowance granted to `spender` by the caller. This is an alternative to {approve} that can be used as a mitigation for problems described in {IERC20-approve}. Emits an {Approval} event indicating the updated allowance. Requirements: - `spender` cannot be the zero address. - `spender` must have allowance for the caller of at least `subtractedValue`."
      },
      "getRoleAdmin(bytes32)": {
        "details": "Returns the admin role that controls `role`. See {grantRole} and {revokeRole}. To change a role's admin, use {_setRoleAdmin}."
      },
      "getRoleMember(bytes32,uint256)": {
        "details": "Returns one of the accounts that have `role`. `index` must be a value between 0 and {getRoleMemberCount}, non-inclusive. Role bearers are not sorted in any particular way, and their ordering may change at any point. WARNING: When using {getRoleMember} and {getRoleMemberCount}, make sure you perform all queries on the same block. See the following https://forum.openzeppelin.com/t/iterating-over-elements-on-enumerableset-in-openzeppelin-contracts/2296[forum post] for more information."
      },
      "getRoleMemberCount(bytes32)": {
        "details": "Returns the number of accounts that have `role`. Can be used together with {getRoleMember} to enumerate all bearers of a role."
      },
      "grantRole(bytes32,address)": {
        "details": "Grants `role` to `account`. If `account` had not been already granted `role`, emits a {RoleGranted} event. Requirements: - the caller must have ``role``'s admin role."
      },
      "hasRole(bytes32,address)": {
        "details": "Returns `true` if `account` has been granted `role`."
      },
      "increaseAllowance(address,uint256)": {
        "details": "Atomically increases the allowance granted to `spender` by the caller. This is an alternative to {approve} that can be used as a mitigation for problems described in {IERC20-approve}. Emits an {Approval} event indicating the updated allowance. Requirements: - `spender` cannot be the zero address."
      },
      "name()": {
        "details": "Returns the name of the token."
      },
      "paused()": {
        "details": "Returns true if the contract is paused, and false otherwise."
      },
      "proxiableUUID()": {
        "details": "Implementation of the ERC1822 {proxiableUUID} function. This returns the storage slot used by the implementation. It is used to validate that the this implementation remains valid after an upgrade. IMPORTANT: A proxy pointing at a proxiable contract should not be considered proxiable itself, because this risks bricking a proxy that upgrades to it, by delegating to itself until out of gas. Thus it is critical that this function revert if invoked through a proxy. This is guaranteed by the `notDelegated` modifier."
      },
      "renounceRole(bytes32,address)": {
        "details": "Revokes `role` from the calling account. Roles are often managed via {grantRole} and {revokeRole}: this function's purpose is to provide a mechanism for accounts to lose their privileges if they are compromised (such as when a trusted device is misplaced). If the calling account had been revoked `role`, emits a {RoleRevoked} event. Requirements: - the caller must be `account`."
      },
      "revokeRole(bytes32,address)": {
        "details": "Revokes `role` from `account`. If `account` had been granted `role`, emits a {RoleRevoked} event. Requirements: - the caller must have ``role``'s admin role."
      },
      "supportsInterface(bytes4)": {
        "details": "See {IERC165-supportsInterface}."
      },
      "symbol()": {
        "details": "Returns the symbol of the token, usually a shorter version of the name."
      },
      "totalSupply()": {
        "details": "See {IERC20-totalSupply}."
      },
      "transfer(address,uint256)": {
        "details": "See {IERC20-transfer}. Requirements: - `to` cannot be the zero address. - the caller must have a balance of at least `amount`."
      },
      "transferFrom(address,address,uint256)": {
        "details": "See {IERC20-transferFrom}. Emits an {Approval} event indicating the updated allowance. This is not required by the EIP. See the note at the beginning of {ERC20}. NOTE: Does not update the allowance if the current allowance is the maximum `uint256`. Requirements: - `from` and `to` cannot be the zero address. - `from` must have a balance of at least `amount`. - the caller must have allowance for ``from``'s tokens of at least `amount`."
      },
      "upgradeTo(address)": {
        "details": "Upgrade the implementation of the proxy to `newImplementation`. Calls {_authorizeUpgrade}. Emits an {Upgraded} event."
      },
      "upgradeToAndCall(address,bytes)": {
        "details": "Upgrade the implementation of the proxy to `newImplementation`, and subsequently execute the function call encoded in `data`. Calls {_authorizeUpgrade}. Emits an {Upgraded} event."
      }
    },
    "version": 1
  },
  "userdoc": {
    "kind": "user",
    "methods": {},
    "version": 1
  }
}