{
  "contractName": "Banking",
  "abi": [
    {
      "inputs": [],
      "name": "vault",
      "outputs": [
        {
          "internalType": "address",
          "name": "",
          "type": "address"
        }
      ],
      "stateMutability": "view",
      "type": "function"
    },
    {
      "inputs": [],
      "name": "vaultBalance",
      "outputs": [
        {
          "internalType": "uint256",
          "name": "",
          "type": "uint256"
        }
      ],
      "stateMutability": "view",
      "type": "function"
    }
  ],
  "bytecode": "0x608060405234801561001057600080fd5b50610289806100206000396000f3fe608060405234801561001057600080fd5b50600436106100365760003560e01c80630bf6cc081461003b578063fbfa77cf14610059575b600080fd5b610043610077565b604051610050919061017e565b60405180910390f35b61006161013b565b60405161006e91906101da565b60405180910390f35b60008060009054906101000a900473ffffffffffffffffffffffffffffffffffffffff1673ffffffffffffffffffffffffffffffffffffffff166370a08231600660009054906101000a900473ffffffffffffffffffffffffffffffffffffffff166040518263ffffffff1660e01b81526004016100f591906101da565b602060405180830381865afa158015610112573d6000803e3d6000fd5b505050506040513d601f19601f820116820180604052508101906101369190610226565b905090565b6000600660009054906101000a900473ffffffffffffffffffffffffffffffffffffffff16905090565b6000819050919050565b61017881610165565b82525050565b6000602082019050610193600083018461016f565b92915050565b600073ffffffffffffffffffffffffffffffffffffffff82169050919050565b60006101c482610199565b9050919050565b6101d4816101b9565b82525050565b60006020820190506101ef60008301846101cb565b92915050565b600080fd5b61020381610165565b811461020e57600080fd5b50565b600081519050610220816101fa565b92915050565b60006020828403121561023c5761023b6101f5565b5b600061024a84828501610211565b9150509291505056fea2646970667358221220f7586cf602df81e16a3d98223512151fc207c9f144630827e0be60dcef8f663464736f6c634300080d0033",
  "immutableReferences": {},
  "source": "// SPDX-License-Identifier: MIT\npragma solidity ^0.8.1;\n\nimport \"../tokens/AkapzToken.sol\";\nimport \"../wallets/AcapzFoundersWallet.sol\";\n\ncontract Banking {\n\n    AkapzToken private token;\n\n    AkapzToken private stakingToken;\n\n    uint256 private _totalTokens;\n    uint256 private _totalStakingToken;\n    uint256 private _minTokenValue;\n    uint256 private _minStakingTokenValue;\n\n    address private _bankVault;\n\n    function initBankingServices(address[] memory members, string[] memory names) private returns(address) {\n        AcapzFoundersWallet commitee = new AcapzFoundersWallet(address(this));\n        commitee.init(members, names);\n        _bankVault = address(commitee);\n        token.mint(_bankVault, _totalTokens);\n        return _bankVault;\n    }\n\n    function createBankCurrencies() private  {\n        token = new AkapzToken();\n        _totalTokens = token.totalSupply();\n        stakingToken = new AkapzToken();\n    }\n\n    function vault() public view virtual returns(address) {\n        return _bankVault;\n    }\n\n    function vaultBalance() public view virtual returns(uint256) {\n        return token.balanceOf(_bankVault);\n    }\n\n    \n\n\n}",
  "sourcePath": "/Users/nicolascloutier/GolandProjects/contracts/contracts/core/banking.sol",
  "compiler": {
    "name": "solc",
    "version": "0.8.13+commit.abaa5c0e.Emscripten.clang"
  },
  "schemaVersion": "3.4.7",
  "updatedAt": "2022-05-01T15:48:00.325Z",
  "devdoc": {
    "kind": "dev",
    "methods": {},
    "version": 1
  },
  "userdoc": {
    "kind": "user",
    "methods": {},
    "version": 1
  }
}