{
  "contractName": "FundErc721Token",
  "abi": [
    {
      "inputs": [
        {
          "internalType": "string",
          "name": "name",
          "type": "string"
        },
        {
          "internalType": "string",
          "name": "symbol",
          "type": "string"
        },
        {
          "internalType": "string",
          "name": "baseTokenURI",
          "type": "string"
        }
      ],
      "stateMutability": "nonpayable",
      "type": "constructor"
    },
    {
      "anonymous": false,
      "inputs": [
        {
          "indexed": true,
          "internalType": "address",
          "name": "owner",
          "type": "address"
        },
        {
          "indexed": true,
          "internalType": "address",
          "name": "approved",
          "type": "address"
        },
        {
          "indexed": true,
          "internalType": "uint256",
          "name": "tokenId",
          "type": "uint256"
        }
      ],
      "name": "Approval",
      "type": "event"
    },
    {
      "anonymous": false,
      "inputs": [
        {
          "indexed": true,
          "internalType": "address",
          "name": "owner",
          "type": "address"
        },
        {
          "indexed": true,
          "internalType": "address",
          "name": "operator",
          "type": "address"
        },
        {
          "indexed": false,
          "internalType": "bool",
          "name": "approved",
          "type": "bool"
        }
      ],
      "name": "ApprovalForAll",
      "type": "event"
    },
    {
      "anonymous": false,
      "inputs": [
        {
          "indexed": false,
          "internalType": "address",
          "name": "account",
          "type": "address"
        }
      ],
      "name": "Paused",
      "type": "event"
    },
    {
      "anonymous": false,
      "inputs": [
        {
          "indexed": true,
          "internalType": "bytes32",
          "name": "role",
          "type": "bytes32"
        },
        {
          "indexed": true,
          "internalType": "bytes32",
          "name": "previousAdminRole",
          "type": "bytes32"
        },
        {
          "indexed": true,
          "internalType": "bytes32",
          "name": "newAdminRole",
          "type": "bytes32"
        }
      ],
      "name": "RoleAdminChanged",
      "type": "event"
    },
    {
      "anonymous": false,
      "inputs": [
        {
          "indexed": true,
          "internalType": "bytes32",
          "name": "role",
          "type": "bytes32"
        },
        {
          "indexed": true,
          "internalType": "address",
          "name": "account",
          "type": "address"
        },
        {
          "indexed": true,
          "internalType": "address",
          "name": "sender",
          "type": "address"
        }
      ],
      "name": "RoleGranted",
      "type": "event"
    },
    {
      "anonymous": false,
      "inputs": [
        {
          "indexed": true,
          "internalType": "bytes32",
          "name": "role",
          "type": "bytes32"
        },
        {
          "indexed": true,
          "internalType": "address",
          "name": "account",
          "type": "address"
        },
        {
          "indexed": true,
          "internalType": "address",
          "name": "sender",
          "type": "address"
        }
      ],
      "name": "RoleRevoked",
      "type": "event"
    },
    {
      "anonymous": false,
      "inputs": [
        {
          "indexed": true,
          "internalType": "address",
          "name": "from",
          "type": "address"
        },
        {
          "indexed": true,
          "internalType": "address",
          "name": "to",
          "type": "address"
        },
        {
          "indexed": true,
          "internalType": "uint256",
          "name": "tokenId",
          "type": "uint256"
        }
      ],
      "name": "Transfer",
      "type": "event"
    },
    {
      "anonymous": false,
      "inputs": [
        {
          "indexed": false,
          "internalType": "address",
          "name": "account",
          "type": "address"
        }
      ],
      "name": "Unpaused",
      "type": "event"
    },
    {
      "inputs": [],
      "name": "DEFAULT_ADMIN_ROLE",
      "outputs": [
        {
          "internalType": "bytes32",
          "name": "",
          "type": "bytes32"
        }
      ],
      "stateMutability": "view",
      "type": "function"
    },
    {
      "inputs": [],
      "name": "MINTER_ROLE",
      "outputs": [
        {
          "internalType": "bytes32",
          "name": "",
          "type": "bytes32"
        }
      ],
      "stateMutability": "view",
      "type": "function"
    },
    {
      "inputs": [],
      "name": "PAUSER_ROLE",
      "outputs": [
        {
          "internalType": "bytes32",
          "name": "",
          "type": "bytes32"
        }
      ],
      "stateMutability": "view",
      "type": "function"
    },
    {
      "inputs": [
        {
          "internalType": "address",
          "name": "to",
          "type": "address"
        },
        {
          "internalType": "uint256",
          "name": "tokenId",
          "type": "uint256"
        }
      ],
      "name": "approve",
      "outputs": [],
      "stateMutability": "nonpayable",
      "type": "function"
    },
    {
      "inputs": [
        {
          "internalType": "address",
          "name": "owner",
          "type": "address"
        }
      ],
      "name": "balanceOf",
      "outputs": [
        {
          "internalType": "uint256",
          "name": "",
          "type": "uint256"
        }
      ],
      "stateMutability": "view",
      "type": "function"
    },
    {
      "inputs": [
        {
          "internalType": "uint256",
          "name": "tokenId",
          "type": "uint256"
        }
      ],
      "name": "burn",
      "outputs": [],
      "stateMutability": "nonpayable",
      "type": "function"
    },
    {
      "inputs": [
        {
          "internalType": "uint256",
          "name": "tokenId",
          "type": "uint256"
        }
      ],
      "name": "getApproved",
      "outputs": [
        {
          "internalType": "address",
          "name": "",
          "type": "address"
        }
      ],
      "stateMutability": "view",
      "type": "function"
    },
    {
      "inputs": [
        {
          "internalType": "bytes32",
          "name": "role",
          "type": "bytes32"
        }
      ],
      "name": "getRoleAdmin",
      "outputs": [
        {
          "internalType": "bytes32",
          "name": "",
          "type": "bytes32"
        }
      ],
      "stateMutability": "view",
      "type": "function"
    },
    {
      "inputs": [
        {
          "internalType": "bytes32",
          "name": "role",
          "type": "bytes32"
        },
        {
          "internalType": "uint256",
          "name": "index",
          "type": "uint256"
        }
      ],
      "name": "getRoleMember",
      "outputs": [
        {
          "internalType": "address",
          "name": "",
          "type": "address"
        }
      ],
      "stateMutability": "view",
      "type": "function"
    },
    {
      "inputs": [
        {
          "internalType": "bytes32",
          "name": "role",
          "type": "bytes32"
        }
      ],
      "name": "getRoleMemberCount",
      "outputs": [
        {
          "internalType": "uint256",
          "name": "",
          "type": "uint256"
        }
      ],
      "stateMutability": "view",
      "type": "function"
    },
    {
      "inputs": [
        {
          "internalType": "bytes32",
          "name": "role",
          "type": "bytes32"
        },
        {
          "internalType": "address",
          "name": "account",
          "type": "address"
        }
      ],
      "name": "grantRole",
      "outputs": [],
      "stateMutability": "nonpayable",
      "type": "function"
    },
    {
      "inputs": [
        {
          "internalType": "bytes32",
          "name": "role",
          "type": "bytes32"
        },
        {
          "internalType": "address",
          "name": "account",
          "type": "address"
        }
      ],
      "name": "hasRole",
      "outputs": [
        {
          "internalType": "bool",
          "name": "",
          "type": "bool"
        }
      ],
      "stateMutability": "view",
      "type": "function"
    },
    {
      "inputs": [
        {
          "internalType": "address",
          "name": "owner",
          "type": "address"
        },
        {
          "internalType": "address",
          "name": "operator",
          "type": "address"
        }
      ],
      "name": "isApprovedForAll",
      "outputs": [
        {
          "internalType": "bool",
          "name": "",
          "type": "bool"
        }
      ],
      "stateMutability": "view",
      "type": "function"
    },
    {
      "inputs": [],
      "name": "name",
      "outputs": [
        {
          "internalType": "string",
          "name": "",
          "type": "string"
        }
      ],
      "stateMutability": "view",
      "type": "function"
    },
    {
      "inputs": [
        {
          "internalType": "uint256",
          "name": "tokenId",
          "type": "uint256"
        }
      ],
      "name": "ownerOf",
      "outputs": [
        {
          "internalType": "address",
          "name": "",
          "type": "address"
        }
      ],
      "stateMutability": "view",
      "type": "function"
    },
    {
      "inputs": [],
      "name": "paused",
      "outputs": [
        {
          "internalType": "bool",
          "name": "",
          "type": "bool"
        }
      ],
      "stateMutability": "view",
      "type": "function"
    },
    {
      "inputs": [
        {
          "internalType": "bytes32",
          "name": "role",
          "type": "bytes32"
        },
        {
          "internalType": "address",
          "name": "account",
          "type": "address"
        }
      ],
      "name": "renounceRole",
      "outputs": [],
      "stateMutability": "nonpayable",
      "type": "function"
    },
    {
      "inputs": [
        {
          "internalType": "bytes32",
          "name": "role",
          "type": "bytes32"
        },
        {
          "internalType": "address",
          "name": "account",
          "type": "address"
        }
      ],
      "name": "revokeRole",
      "outputs": [],
      "stateMutability": "nonpayable",
      "type": "function"
    },
    {
      "inputs": [
        {
          "internalType": "address",
          "name": "from",
          "type": "address"
        },
        {
          "internalType": "address",
          "name": "to",
          "type": "address"
        },
        {
          "internalType": "uint256",
          "name": "tokenId",
          "type": "uint256"
        }
      ],
      "name": "safeTransferFrom",
      "outputs": [],
      "stateMutability": "nonpayable",
      "type": "function"
    },
    {
      "inputs": [
        {
          "internalType": "address",
          "name": "from",
          "type": "address"
        },
        {
          "internalType": "address",
          "name": "to",
          "type": "address"
        },
        {
          "internalType": "uint256",
          "name": "tokenId",
          "type": "uint256"
        },
        {
          "internalType": "bytes",
          "name": "_data",
          "type": "bytes"
        }
      ],
      "name": "safeTransferFrom",
      "outputs": [],
      "stateMutability": "nonpayable",
      "type": "function"
    },
    {
      "inputs": [
        {
          "internalType": "address",
          "name": "operator",
          "type": "address"
        },
        {
          "internalType": "bool",
          "name": "approved",
          "type": "bool"
        }
      ],
      "name": "setApprovalForAll",
      "outputs": [],
      "stateMutability": "nonpayable",
      "type": "function"
    },
    {
      "inputs": [],
      "name": "symbol",
      "outputs": [
        {
          "internalType": "string",
          "name": "",
          "type": "string"
        }
      ],
      "stateMutability": "view",
      "type": "function"
    },
    {
      "inputs": [
        {
          "internalType": "uint256",
          "name": "index",
          "type": "uint256"
        }
      ],
      "name": "tokenByIndex",
      "outputs": [
        {
          "internalType": "uint256",
          "name": "",
          "type": "uint256"
        }
      ],
      "stateMutability": "view",
      "type": "function"
    },
    {
      "inputs": [
        {
          "internalType": "address",
          "name": "owner",
          "type": "address"
        },
        {
          "internalType": "uint256",
          "name": "index",
          "type": "uint256"
        }
      ],
      "name": "tokenOfOwnerByIndex",
      "outputs": [
        {
          "internalType": "uint256",
          "name": "",
          "type": "uint256"
        }
      ],
      "stateMutability": "view",
      "type": "function"
    },
    {
      "inputs": [
        {
          "internalType": "uint256",
          "name": "tokenId",
          "type": "uint256"
        }
      ],
      "name": "tokenURI",
      "outputs": [
        {
          "internalType": "string",
          "name": "",
          "type": "string"
        }
      ],
      "stateMutability": "view",
      "type": "function"
    },
    {
      "inputs": [],
      "name": "totalSupply",
      "outputs": [
        {
          "internalType": "uint256",
          "name": "",
          "type": "uint256"
        }
      ],
      "stateMutability": "view",
      "type": "function"
    },
    {
      "inputs": [
        {
          "internalType": "address",
          "name": "from",
          "type": "address"
        },
        {
          "internalType": "address",
          "name": "to",
          "type": "address"
        },
        {
          "internalType": "uint256",
          "name": "tokenId",
          "type": "uint256"
        }
      ],
      "name": "transferFrom",
      "outputs": [],
      "stateMutability": "nonpayable",
      "type": "function"
    },
    {
      "inputs": [
        {
          "internalType": "bytes4",
          "name": "interfaceId",
          "type": "bytes4"
        }
      ],
      "name": "supportsInterface",
      "outputs": [
        {
          "internalType": "bool",
          "name": "",
          "type": "bool"
        }
      ],
      "stateMutability": "view",
      "type": "function"
    }
  ],
  "bytecode": "0x60806040523480156200001157600080fd5b506040516200464f3803806200464f833981810160405281019062000037919062000633565b8282816002908051906020019062000051929190620003e6565b5080600390805190602001906200006a929190620003e6565b5050506000600c60006101000a81548160ff02191690831515021790555080600d9080519060200190620000a0929190620003e6565b50620000c56000801b620000b96200015060201b60201c565b6200015860201b60201c565b620001067f9f2df0fed2c77648de5860a4cc508cd0818c85b8b8a1ab4ceeef8d981c8956a6620000fa6200015060201b60201c565b6200015860201b60201c565b620001477f65d7a28e3265b37a6474929f336521b332c1681b933f6cb9f3376673440d862a6200013b6200015060201b60201c565b6200015860201b60201c565b50505062000750565b600033905090565b6200016a82826200016e60201b60201c565b5050565b620001858282620001b660201b62000fda1760201c565b620001b18160016000858152602001908152602001600020620002a760201b620010ba1790919060201c565b505050565b620001c88282620002df60201b60201c565b620002a357600160008084815260200190815260200160002060000160008373ffffffffffffffffffffffffffffffffffffffff1673ffffffffffffffffffffffffffffffffffffffff16815260200190815260200160002060006101000a81548160ff021916908315150217905550620002486200015060201b60201c565b73ffffffffffffffffffffffffffffffffffffffff168173ffffffffffffffffffffffffffffffffffffffff16837f2f8788117e7eff1d82e926ec794901d17c78024a50270940304540a733656f0d60405160405180910390a45b5050565b6000620002d7836000018373ffffffffffffffffffffffffffffffffffffffff1660001b6200034960201b60201c565b905092915050565b600080600084815260200190815260200160002060000160008373ffffffffffffffffffffffffffffffffffffffff1673ffffffffffffffffffffffffffffffffffffffff16815260200190815260200160002060009054906101000a900460ff16905092915050565b60006200035d8383620003c360201b60201c565b620003b8578260000182908060018154018082558091505060019003906000526020600020016000909190919091505582600001805490508360010160008481526020019081526020016000208190555060019050620003bd565b600090505b92915050565b600080836001016000848152602001908152602001600020541415905092915050565b828054620003f4906200071b565b90600052602060002090601f01602090048101928262000418576000855562000464565b82601f106200043357805160ff191683800117855562000464565b8280016001018555821562000464579182015b828111156200046357825182559160200191906001019062000446565b5b50905062000473919062000477565b5090565b5b808211156200049257600081600090555060010162000478565b5090565b6000604051905090565b600080fd5b600080fd5b600080fd5b600080fd5b6000601f19601f8301169050919050565b7f4e487b7100000000000000000000000000000000000000000000000000000000600052604160045260246000fd5b620004ff82620004b4565b810181811067ffffffffffffffff82111715620005215762000520620004c5565b5b80604052505050565b60006200053662000496565b9050620005448282620004f4565b919050565b600067ffffffffffffffff821115620005675762000566620004c5565b5b6200057282620004b4565b9050602081019050919050565b60005b838110156200059f57808201518184015260208101905062000582565b83811115620005af576000848401525b50505050565b6000620005cc620005c68462000549565b6200052a565b905082815260208101848484011115620005eb57620005ea620004af565b5b620005f88482856200057f565b509392505050565b600082601f830112620006185762000617620004aa565b5b81516200062a848260208601620005b5565b91505092915050565b6000806000606084860312156200064f576200064e620004a0565b5b600084015167ffffffffffffffff81111562000670576200066f620004a5565b5b6200067e8682870162000600565b935050602084015167ffffffffffffffff811115620006a257620006a1620004a5565b5b620006b08682870162000600565b925050604084015167ffffffffffffffff811115620006d457620006d3620004a5565b5b620006e28682870162000600565b9150509250925092565b7f4e487b7100000000000000000000000000000000000000000000000000000000600052602260045260246000fd5b600060028204905060018216806200073457607f821691505b6020821081036200074a5762000749620006ec565b5b50919050565b613eef80620007606000396000f3fe608060405234801561001057600080fd5b50600436106101c45760003560e01c80636352211e116100f9578063b88d4fde11610097578063d539139311610071578063d53913931461054f578063d547741f1461056d578063e63ab1e914610589578063e985e9c5146105a7576101c4565b8063b88d4fde146104d3578063c87b56dd146104ef578063ca15c8731461051f576101c4565b806391d14854116100d357806391d148541461044b57806395d89b411461047b578063a217fddf14610499578063a22cb465146104b7576101c4565b80636352211e146103bb57806370a08231146103eb5780639010d07c1461041b576101c4565b80632f2ff15d1161016657806342842e0e1161014057806342842e0e1461033557806342966c68146103515780634f6ccce71461036d5780635c975abb1461039d576101c4565b80632f2ff15d146102cd5780632f745c59146102e957806336568abe14610319576101c4565b8063095ea7b3116101a2578063095ea7b31461024757806318160ddd1461026357806323b872dd14610281578063248a9ca31461029d576101c4565b806301ffc9a7146101c957806306fdde03146101f9578063081812fc14610217575b600080fd5b6101e360048036038101906101de9190612975565b6105d7565b6040516101f091906129bd565b60405180910390f35b6102016105e9565b60405161020e9190612a71565b60405180910390f35b610231600480360381019061022c9190612ac9565b61067b565b60405161023e9190612b37565b60405180910390f35b610261600480360381019061025c9190612b7e565b610700565b005b61026b610817565b6040516102789190612bcd565b60405180910390f35b61029b60048036038101906102969190612be8565b610824565b005b6102b760048036038101906102b29190612c71565b610884565b6040516102c49190612cad565b60405180910390f35b6102e760048036038101906102e29190612cc8565b6108a3565b005b61030360048036038101906102fe9190612b7e565b6108cc565b6040516103109190612bcd565b60405180910390f35b610333600480360381019061032e9190612cc8565b610971565b005b61034f600480360381019061034a9190612be8565b6109f4565b005b61036b60048036038101906103669190612ac9565b610a14565b005b61038760048036038101906103829190612ac9565b610a70565b6040516103949190612bcd565b60405180910390f35b6103a5610ae1565b6040516103b291906129bd565b60405180910390f35b6103d560048036038101906103d09190612ac9565b610af8565b6040516103e29190612b37565b60405180910390f35b61040560048036038101906104009190612d08565b610ba9565b6040516104129190612bcd565b60405180910390f35b61043560048036038101906104309190612d35565b610c60565b6040516104429190612b37565b60405180910390f35b61046560048036038101906104609190612cc8565b610c8f565b60405161047291906129bd565b60405180910390f35b610483610cf9565b6040516104909190612a71565b60405180910390f35b6104a1610d8b565b6040516104ae9190612cad565b60405180910390f35b6104d160048036038101906104cc9190612da1565b610d92565b005b6104ed60048036038101906104e89190612f16565b610da8565b005b61050960048036038101906105049190612ac9565b610e0a565b6040516105169190612a71565b60405180910390f35b61053960048036038101906105349190612c71565b610eb1565b6040516105469190612bcd565b60405180910390f35b610557610ed5565b6040516105649190612cad565b60405180910390f35b61058760048036038101906105829190612cc8565b610ef9565b005b610591610f22565b60405161059e9190612cad565b60405180910390f35b6105c160048036038101906105bc9190612f99565b610f46565b6040516105ce91906129bd565b60405180910390f35b60006105e2826110ea565b9050919050565b6060600280546105f890613008565b80601f016020809104026020016040519081016040528092919081815260200182805461062490613008565b80156106715780601f1061064657610100808354040283529160200191610671565b820191906000526020600020905b81548152906001019060200180831161065457829003601f168201915b5050505050905090565b600061068682611164565b6106c5576040517f08c379a00000000000000000000000000000000000000000000000000000000081526004016106bc906130ab565b60405180910390fd5b6006600083815260200190815260200160002060009054906101000a900473ffffffffffffffffffffffffffffffffffffffff169050919050565b600061070b82610af8565b90508073ffffffffffffffffffffffffffffffffffffffff168373ffffffffffffffffffffffffffffffffffffffff160361077b576040517f08c379a00000000000000000000000000000000000000000000000000000000081526004016107729061313d565b60405180910390fd5b8073ffffffffffffffffffffffffffffffffffffffff1661079a6111d0565b73ffffffffffffffffffffffffffffffffffffffff1614806107c957506107c8816107c36111d0565b610f46565b5b610808576040517f08c379a00000000000000000000000000000000000000000000000000000000081526004016107ff906131cf565b60405180910390fd5b61081283836111d8565b505050565b6000600a80549050905090565b61083561082f6111d0565b82611291565b610874576040517f08c379a000000000000000000000000000000000000000000000000000000000815260040161086b90613261565b60405180910390fd5b61087f83838361136f565b505050565b6000806000838152602001908152602001600020600101549050919050565b6108ac82610884565b6108bd816108b86111d0565b6115d5565b6108c78383611672565b505050565b60006108d783610ba9565b8210610918576040517f08c379a000000000000000000000000000000000000000000000000000000000815260040161090f906132f3565b60405180910390fd5b600860008473ffffffffffffffffffffffffffffffffffffffff1673ffffffffffffffffffffffffffffffffffffffff168152602001908152602001600020600083815260200190815260200160002054905092915050565b6109796111d0565b73ffffffffffffffffffffffffffffffffffffffff168173ffffffffffffffffffffffffffffffffffffffff16146109e6576040517f08c379a00000000000000000000000000000000000000000000000000000000081526004016109dd90613385565b60405180910390fd5b6109f082826116a6565b5050565b610a0f83838360405180602001604052806000815250610da8565b505050565b610a25610a1f6111d0565b82611291565b610a64576040517f08c379a0000000000000000000000000000000000000000000000000000000008152600401610a5b90613417565b60405180910390fd5b610a6d816116da565b50565b6000610a7a610817565b8210610abb576040517f08c379a0000000000000000000000000000000000000000000000000000000008152600401610ab2906134a9565b60405180910390fd5b600a8281548110610acf57610ace6134c9565b5b90600052602060002001549050919050565b6000600c60009054906101000a900460ff16905090565b6000806004600084815260200190815260200160002060009054906101000a900473ffffffffffffffffffffffffffffffffffffffff169050600073ffffffffffffffffffffffffffffffffffffffff168173ffffffffffffffffffffffffffffffffffffffff1603610ba0576040517f08c379a0000000000000000000000000000000000000000000000000000000008152600401610b979061356a565b60405180910390fd5b80915050919050565b60008073ffffffffffffffffffffffffffffffffffffffff168273ffffffffffffffffffffffffffffffffffffffff1603610c19576040517f08c379a0000000000000000000000000000000000000000000000000000000008152600401610c10906135fc565b60405180910390fd5b600560008373ffffffffffffffffffffffffffffffffffffffff1673ffffffffffffffffffffffffffffffffffffffff168152602001908152602001600020549050919050565b6000610c8782600160008681526020019081526020016000206117f790919063ffffffff16565b905092915050565b600080600084815260200190815260200160002060000160008373ffffffffffffffffffffffffffffffffffffffff1673ffffffffffffffffffffffffffffffffffffffff16815260200190815260200160002060009054906101000a900460ff16905092915050565b606060038054610d0890613008565b80601f0160208091040260200160405190810160405280929190818152602001828054610d3490613008565b8015610d815780601f10610d5657610100808354040283529160200191610d81565b820191906000526020600020905b815481529060010190602001808311610d6457829003601f168201915b5050505050905090565b6000801b81565b610da4610d9d6111d0565b8383611811565b5050565b610db9610db36111d0565b83611291565b610df8576040517f08c379a0000000000000000000000000000000000000000000000000000000008152600401610def90613261565b60405180910390fd5b610e048484848461197d565b50505050565b6060610e1582611164565b610e54576040517f08c379a0000000000000000000000000000000000000000000000000000000008152600401610e4b9061368e565b60405180910390fd5b6000610e5e6119d9565b90506000815111610e7e5760405180602001604052806000815250610ea9565b80610e88846119f0565b604051602001610e999291906136ea565b6040516020818303038152906040525b915050919050565b6000610ece60016000848152602001908152602001600020611b50565b9050919050565b7f9f2df0fed2c77648de5860a4cc508cd0818c85b8b8a1ab4ceeef8d981c8956a681565b610f0282610884565b610f1381610f0e6111d0565b6115d5565b610f1d83836116a6565b505050565b7f65d7a28e3265b37a6474929f336521b332c1681b933f6cb9f3376673440d862a81565b6000600760008473ffffffffffffffffffffffffffffffffffffffff1673ffffffffffffffffffffffffffffffffffffffff16815260200190815260200160002060008373ffffffffffffffffffffffffffffffffffffffff1673ffffffffffffffffffffffffffffffffffffffff16815260200190815260200160002060009054906101000a900460ff16905092915050565b610fe48282610c8f565b6110b657600160008084815260200190815260200160002060000160008373ffffffffffffffffffffffffffffffffffffffff1673ffffffffffffffffffffffffffffffffffffffff16815260200190815260200160002060006101000a81548160ff02191690831515021790555061105b6111d0565b73ffffffffffffffffffffffffffffffffffffffff168173ffffffffffffffffffffffffffffffffffffffff16837f2f8788117e7eff1d82e926ec794901d17c78024a50270940304540a733656f0d60405160405180910390a45b5050565b60006110e2836000018373ffffffffffffffffffffffffffffffffffffffff1660001b611b65565b905092915050565b60007f780e9d63000000000000000000000000000000000000000000000000000000007bffffffffffffffffffffffffffffffffffffffffffffffffffffffff1916827bffffffffffffffffffffffffffffffffffffffffffffffffffffffff1916148061115d575061115c82611bd5565b5b9050919050565b60008073ffffffffffffffffffffffffffffffffffffffff166004600084815260200190815260200160002060009054906101000a900473ffffffffffffffffffffffffffffffffffffffff1673ffffffffffffffffffffffffffffffffffffffff1614159050919050565b600033905090565b816006600083815260200190815260200160002060006101000a81548173ffffffffffffffffffffffffffffffffffffffff021916908373ffffffffffffffffffffffffffffffffffffffff160217905550808273ffffffffffffffffffffffffffffffffffffffff1661124b83610af8565b73ffffffffffffffffffffffffffffffffffffffff167f8c5be1e5ebec7d5bd14f71427d1e84f3dd0314c0f7b2291e5b200ac8c7c3b92560405160405180910390a45050565b600061129c82611164565b6112db576040517f08c379a00000000000000000000000000000000000000000000000000000000081526004016112d290613780565b60405180910390fd5b60006112e683610af8565b90508073ffffffffffffffffffffffffffffffffffffffff168473ffffffffffffffffffffffffffffffffffffffff16148061135557508373ffffffffffffffffffffffffffffffffffffffff1661133d8461067b565b73ffffffffffffffffffffffffffffffffffffffff16145b8061136657506113658185610f46565b5b91505092915050565b8273ffffffffffffffffffffffffffffffffffffffff1661138f82610af8565b73ffffffffffffffffffffffffffffffffffffffff16146113e5576040517f08c379a00000000000000000000000000000000000000000000000000000000081526004016113dc90613812565b60405180910390fd5b600073ffffffffffffffffffffffffffffffffffffffff168273ffffffffffffffffffffffffffffffffffffffff1603611454576040517f08c379a000000000000000000000000000000000000000000000000000000000815260040161144b906138a4565b60405180910390fd5b61145f838383611cb7565b61146a6000826111d8565b6001600560008573ffffffffffffffffffffffffffffffffffffffff1673ffffffffffffffffffffffffffffffffffffffff16815260200190815260200160002060008282546114ba91906138f3565b925050819055506001600560008473ffffffffffffffffffffffffffffffffffffffff1673ffffffffffffffffffffffffffffffffffffffff16815260200190815260200160002060008282546115119190613927565b92505081905550816004600083815260200190815260200160002060006101000a81548173ffffffffffffffffffffffffffffffffffffffff021916908373ffffffffffffffffffffffffffffffffffffffff160217905550808273ffffffffffffffffffffffffffffffffffffffff168473ffffffffffffffffffffffffffffffffffffffff167fddf252ad1be2c89b69c2b068fc378daa952ba7f163c4a11628f55a4df523b3ef60405160405180910390a46115d0838383611cc7565b505050565b6115df8282610c8f565b61166e576116048173ffffffffffffffffffffffffffffffffffffffff166014611ccc565b6116128360001c6020611ccc565b604051602001611623929190613a15565b6040516020818303038152906040526040517f08c379a00000000000000000000000000000000000000000000000000000000081526004016116659190612a71565b60405180910390fd5b5050565b61167c8282610fda565b6116a181600160008581526020019081526020016000206110ba90919063ffffffff16565b505050565b6116b08282611f08565b6116d58160016000858152602001908152602001600020611fe990919063ffffffff16565b505050565b60006116e582610af8565b90506116f381600084611cb7565b6116fe6000836111d8565b6001600560008373ffffffffffffffffffffffffffffffffffffffff1673ffffffffffffffffffffffffffffffffffffffff168152602001908152602001600020600082825461174e91906138f3565b925050819055506004600083815260200190815260200160002060006101000a81549073ffffffffffffffffffffffffffffffffffffffff021916905581600073ffffffffffffffffffffffffffffffffffffffff168273ffffffffffffffffffffffffffffffffffffffff167fddf252ad1be2c89b69c2b068fc378daa952ba7f163c4a11628f55a4df523b3ef60405160405180910390a46117f381600084611cc7565b5050565b60006118068360000183612019565b60001c905092915050565b8173ffffffffffffffffffffffffffffffffffffffff168373ffffffffffffffffffffffffffffffffffffffff160361187f576040517f08c379a000000000000000000000000000000000000000000000000000000000815260040161187690613a9b565b60405180910390fd5b80600760008573ffffffffffffffffffffffffffffffffffffffff1673ffffffffffffffffffffffffffffffffffffffff16815260200190815260200160002060008473ffffffffffffffffffffffffffffffffffffffff1673ffffffffffffffffffffffffffffffffffffffff16815260200190815260200160002060006101000a81548160ff0219169083151502179055508173ffffffffffffffffffffffffffffffffffffffff168373ffffffffffffffffffffffffffffffffffffffff167f17307eab39ab6107e8899845ad3d59bd9653f200f220920489ca2b5937696c318360405161197091906129bd565b60405180910390a3505050565b61198884848461136f565b61199484848484612044565b6119d3576040517f08c379a00000000000000000000000000000000000000000000000000000000081526004016119ca90613b2d565b60405180910390fd5b50505050565b606060405180602001604052806000815250905090565b606060008203611a37576040518060400160405280600181526020017f30000000000000000000000000000000000000000000000000000000000000008152509050611b4b565b600082905060005b60008214611a69578080611a5290613b4d565b915050600a82611a629190613bc4565b9150611a3f565b60008167ffffffffffffffff811115611a8557611a84612deb565b5b6040519080825280601f01601f191660200182016040528015611ab75781602001600182028036833780820191505090505b5090505b60008514611b4457600182611ad091906138f3565b9150600a85611adf9190613bf5565b6030611aeb9190613927565b60f81b818381518110611b0157611b006134c9565b5b60200101907effffffffffffffffffffffffffffffffffffffffffffffffffffffffffffff1916908160001a905350600a85611b3d9190613bc4565b9450611abb565b8093505050505b919050565b6000611b5e826000016121cb565b9050919050565b6000611b7183836121dc565b611bca578260000182908060018154018082558091505060019003906000526020600020016000909190919091505582600001805490508360010160008481526020019081526020016000208190555060019050611bcf565b600090505b92915050565b60007f80ac58cd000000000000000000000000000000000000000000000000000000007bffffffffffffffffffffffffffffffffffffffffffffffffffffffff1916827bffffffffffffffffffffffffffffffffffffffffffffffffffffffff19161480611ca057507f5b5e139f000000000000000000000000000000000000000000000000000000007bffffffffffffffffffffffffffffffffffffffffffffffffffffffff1916827bffffffffffffffffffffffffffffffffffffffffffffffffffffffff1916145b80611cb05750611caf826121ff565b5b9050919050565b611cc2838383612279565b505050565b505050565b606060006002836002611cdf9190613c26565b611ce99190613927565b67ffffffffffffffff811115611d0257611d01612deb565b5b6040519080825280601f01601f191660200182016040528015611d345781602001600182028036833780820191505090505b5090507f300000000000000000000000000000000000000000000000000000000000000081600081518110611d6c57611d6b6134c9565b5b60200101907effffffffffffffffffffffffffffffffffffffffffffffffffffffffffffff1916908160001a9053507f780000000000000000000000000000000000000000000000000000000000000081600181518110611dd057611dcf6134c9565b5b60200101907effffffffffffffffffffffffffffffffffffffffffffffffffffffffffffff1916908160001a90535060006001846002611e109190613c26565b611e1a9190613927565b90505b6001811115611eba577f3031323334353637383961626364656600000000000000000000000000000000600f861660108110611e5c57611e5b6134c9565b5b1a60f81b828281518110611e7357611e726134c9565b5b60200101907effffffffffffffffffffffffffffffffffffffffffffffffffffffffffffff1916908160001a905350600485901c945080611eb390613c80565b9050611e1d565b5060008414611efe576040517f08c379a0000000000000000000000000000000000000000000000000000000008152600401611ef590613cf5565b60405180910390fd5b8091505092915050565b611f128282610c8f565b15611fe557600080600084815260200190815260200160002060000160008373ffffffffffffffffffffffffffffffffffffffff1673ffffffffffffffffffffffffffffffffffffffff16815260200190815260200160002060006101000a81548160ff021916908315150217905550611f8a6111d0565b73ffffffffffffffffffffffffffffffffffffffff168173ffffffffffffffffffffffffffffffffffffffff16837ff6391f5c32d9c69d2a47ea670b442974b53935d1edc7fd64eb21e047a839171b60405160405180910390a45b5050565b6000612011836000018373ffffffffffffffffffffffffffffffffffffffff1660001b6122d1565b905092915050565b6000826000018281548110612031576120306134c9565b5b9060005260206000200154905092915050565b60006120658473ffffffffffffffffffffffffffffffffffffffff166123e5565b156121be578373ffffffffffffffffffffffffffffffffffffffff1663150b7a0261208e6111d0565b8786866040518563ffffffff1660e01b81526004016120b09493929190613d6a565b6020604051808303816000875af19250505080156120ec57506040513d601f19601f820116820180604052508101906120e99190613dcb565b60015b61216e573d806000811461211c576040519150601f19603f3d011682016040523d82523d6000602084013e612121565b606091505b506000815103612166576040517f08c379a000000000000000000000000000000000000000000000000000000000815260040161215d90613b2d565b60405180910390fd5b805181602001fd5b63150b7a0260e01b7bffffffffffffffffffffffffffffffffffffffffffffffffffffffff1916817bffffffffffffffffffffffffffffffffffffffffffffffffffffffff1916149150506121c3565b600190505b949350505050565b600081600001805490509050919050565b600080836001016000848152602001908152602001600020541415905092915050565b60007f5a05180f000000000000000000000000000000000000000000000000000000007bffffffffffffffffffffffffffffffffffffffffffffffffffffffff1916827bffffffffffffffffffffffffffffffffffffffffffffffffffffffff19161480612272575061227182612408565b5b9050919050565b612284838383612482565b61228c610ae1565b156122cc576040517f08c379a00000000000000000000000000000000000000000000000000000000081526004016122c390613e6a565b60405180910390fd5b505050565b600080836001016000848152602001908152602001600020549050600081146123d957600060018261230391906138f3565b905060006001866000018054905061231b91906138f3565b905081811461238a57600086600001828154811061233c5761233b6134c9565b5b90600052602060002001549050808760000184815481106123605761235f6134c9565b5b90600052602060002001819055508387600101600083815260200190815260200160002081905550505b8560000180548061239e5761239d613e8a565b5b6001900381819060005260206000200160009055905585600101600086815260200190815260200160002060009055600193505050506123df565b60009150505b92915050565b6000808273ffffffffffffffffffffffffffffffffffffffff163b119050919050565b60007f7965db0b000000000000000000000000000000000000000000000000000000007bffffffffffffffffffffffffffffffffffffffffffffffffffffffff1916827bffffffffffffffffffffffffffffffffffffffffffffffffffffffff1916148061247b575061247a82612594565b5b9050919050565b61248d8383836125fe565b600073ffffffffffffffffffffffffffffffffffffffff168373ffffffffffffffffffffffffffffffffffffffff16036124cf576124ca81612603565b61250e565b8173ffffffffffffffffffffffffffffffffffffffff168373ffffffffffffffffffffffffffffffffffffffff161461250d5761250c838261264c565b5b5b600073ffffffffffffffffffffffffffffffffffffffff168273ffffffffffffffffffffffffffffffffffffffff16036125505761254b816127b9565b61258f565b8273ffffffffffffffffffffffffffffffffffffffff168273ffffffffffffffffffffffffffffffffffffffff161461258e5761258d828261288a565b5b5b505050565b60007f01ffc9a7000000000000000000000000000000000000000000000000000000007bffffffffffffffffffffffffffffffffffffffffffffffffffffffff1916827bffffffffffffffffffffffffffffffffffffffffffffffffffffffff1916149050919050565b505050565b600a80549050600b600083815260200190815260200160002081905550600a81908060018154018082558091505060019003906000526020600020016000909190919091505550565b6000600161265984610ba9565b61266391906138f3565b9050600060096000848152602001908152602001600020549050818114612748576000600860008673ffffffffffffffffffffffffffffffffffffffff1673ffffffffffffffffffffffffffffffffffffffff168152602001908152602001600020600084815260200190815260200160002054905080600860008773ffffffffffffffffffffffffffffffffffffffff1673ffffffffffffffffffffffffffffffffffffffff168152602001908152602001600020600084815260200190815260200160002081905550816009600083815260200190815260200160002081905550505b6009600084815260200190815260200160002060009055600860008573ffffffffffffffffffffffffffffffffffffffff1673ffffffffffffffffffffffffffffffffffffffff16815260200190815260200160002060008381526020019081526020016000206000905550505050565b60006001600a805490506127cd91906138f3565b90506000600b60008481526020019081526020016000205490506000600a83815481106127fd576127fc6134c9565b5b9060005260206000200154905080600a838154811061281f5761281e6134c9565b5b906000526020600020018190555081600b600083815260200190815260200160002081905550600b600085815260200190815260200160002060009055600a80548061286e5761286d613e8a565b5b6001900381819060005260206000200160009055905550505050565b600061289583610ba9565b905081600860008573ffffffffffffffffffffffffffffffffffffffff1673ffffffffffffffffffffffffffffffffffffffff168152602001908152602001600020600083815260200190815260200160002081905550806009600084815260200190815260200160002081905550505050565b6000604051905090565b600080fd5b600080fd5b60007fffffffff0000000000000000000000000000000000000000000000000000000082169050919050565b6129528161291d565b811461295d57600080fd5b50565b60008135905061296f81612949565b92915050565b60006020828403121561298b5761298a612913565b5b600061299984828501612960565b91505092915050565b60008115159050919050565b6129b7816129a2565b82525050565b60006020820190506129d260008301846129ae565b92915050565b600081519050919050565b600082825260208201905092915050565b60005b83811015612a125780820151818401526020810190506129f7565b83811115612a21576000848401525b50505050565b6000601f19601f8301169050919050565b6000612a43826129d8565b612a4d81856129e3565b9350612a5d8185602086016129f4565b612a6681612a27565b840191505092915050565b60006020820190508181036000830152612a8b8184612a38565b905092915050565b6000819050919050565b612aa681612a93565b8114612ab157600080fd5b50565b600081359050612ac381612a9d565b92915050565b600060208284031215612adf57612ade612913565b5b6000612aed84828501612ab4565b91505092915050565b600073ffffffffffffffffffffffffffffffffffffffff82169050919050565b6000612b2182612af6565b9050919050565b612b3181612b16565b82525050565b6000602082019050612b4c6000830184612b28565b92915050565b612b5b81612b16565b8114612b6657600080fd5b50565b600081359050612b7881612b52565b92915050565b60008060408385031215612b9557612b94612913565b5b6000612ba385828601612b69565b9250506020612bb485828601612ab4565b9150509250929050565b612bc781612a93565b82525050565b6000602082019050612be26000830184612bbe565b92915050565b600080600060608486031215612c0157612c00612913565b5b6000612c0f86828701612b69565b9350506020612c2086828701612b69565b9250506040612c3186828701612ab4565b9150509250925092565b6000819050919050565b612c4e81612c3b565b8114612c5957600080fd5b50565b600081359050612c6b81612c45565b92915050565b600060208284031215612c8757612c86612913565b5b6000612c9584828501612c5c565b91505092915050565b612ca781612c3b565b82525050565b6000602082019050612cc26000830184612c9e565b92915050565b60008060408385031215612cdf57612cde612913565b5b6000612ced85828601612c5c565b9250506020612cfe85828601612b69565b9150509250929050565b600060208284031215612d1e57612d1d612913565b5b6000612d2c84828501612b69565b91505092915050565b60008060408385031215612d4c57612d4b612913565b5b6000612d5a85828601612c5c565b9250506020612d6b85828601612ab4565b9150509250929050565b612d7e816129a2565b8114612d8957600080fd5b50565b600081359050612d9b81612d75565b92915050565b60008060408385031215612db857612db7612913565b5b6000612dc685828601612b69565b9250506020612dd785828601612d8c565b9150509250929050565b600080fd5b600080fd5b7f4e487b7100000000000000000000000000000000000000000000000000000000600052604160045260246000fd5b612e2382612a27565b810181811067ffffffffffffffff82111715612e4257612e41612deb565b5b80604052505050565b6000612e55612909565b9050612e618282612e1a565b919050565b600067ffffffffffffffff821115612e8157612e80612deb565b5b612e8a82612a27565b9050602081019050919050565b82818337600083830152505050565b6000612eb9612eb484612e66565b612e4b565b905082815260208101848484011115612ed557612ed4612de6565b5b612ee0848285612e97565b509392505050565b600082601f830112612efd57612efc612de1565b5b8135612f0d848260208601612ea6565b91505092915050565b60008060008060808587031215612f3057612f2f612913565b5b6000612f3e87828801612b69565b9450506020612f4f87828801612b69565b9350506040612f6087828801612ab4565b925050606085013567ffffffffffffffff811115612f8157612f80612918565b5b612f8d87828801612ee8565b91505092959194509250565b60008060408385031215612fb057612faf612913565b5b6000612fbe85828601612b69565b9250506020612fcf85828601612b69565b9150509250929050565b7f4e487b7100000000000000000000000000000000000000000000000000000000600052602260045260246000fd5b6000600282049050600182168061302057607f821691505b60208210810361303357613032612fd9565b5b50919050565b7f4552433732313a20617070726f76656420717565727920666f72206e6f6e657860008201527f697374656e7420746f6b656e0000000000000000000000000000000000000000602082015250565b6000613095602c836129e3565b91506130a082613039565b604082019050919050565b600060208201905081810360008301526130c481613088565b9050919050565b7f4552433732313a20617070726f76616c20746f2063757272656e74206f776e6560008201527f7200000000000000000000000000000000000000000000000000000000000000602082015250565b60006131276021836129e3565b9150613132826130cb565b604082019050919050565b600060208201905081810360008301526131568161311a565b9050919050565b7f4552433732313a20617070726f76652063616c6c6572206973206e6f74206f7760008201527f6e6572206e6f7220617070726f76656420666f7220616c6c0000000000000000602082015250565b60006131b96038836129e3565b91506131c48261315d565b604082019050919050565b600060208201905081810360008301526131e8816131ac565b9050919050565b7f4552433732313a207472616e736665722063616c6c6572206973206e6f74206f60008201527f776e6572206e6f7220617070726f766564000000000000000000000000000000602082015250565b600061324b6031836129e3565b9150613256826131ef565b604082019050919050565b6000602082019050818103600083015261327a8161323e565b9050919050565b7f455243373231456e756d657261626c653a206f776e657220696e646578206f7560008201527f74206f6620626f756e6473000000000000000000000000000000000000000000602082015250565b60006132dd602b836129e3565b91506132e882613281565b604082019050919050565b6000602082019050818103600083015261330c816132d0565b9050919050565b7f416363657373436f6e74726f6c3a2063616e206f6e6c792072656e6f756e636560008201527f20726f6c657320666f722073656c660000000000000000000000000000000000602082015250565b600061336f602f836129e3565b915061337a82613313565b604082019050919050565b6000602082019050818103600083015261339e81613362565b9050919050565b7f4552433732314275726e61626c653a2063616c6c6572206973206e6f74206f7760008201527f6e6572206e6f7220617070726f76656400000000000000000000000000000000602082015250565b60006134016030836129e3565b915061340c826133a5565b604082019050919050565b60006020820190508181036000830152613430816133f4565b9050919050565b7f455243373231456e756d657261626c653a20676c6f62616c20696e646578206f60008201527f7574206f6620626f756e64730000000000000000000000000000000000000000602082015250565b6000613493602c836129e3565b915061349e82613437565b604082019050919050565b600060208201905081810360008301526134c281613486565b9050919050565b7f4e487b7100000000000000000000000000000000000000000000000000000000600052603260045260246000fd5b7f4552433732313a206f776e657220717565727920666f72206e6f6e657869737460008201527f656e7420746f6b656e0000000000000000000000000000000000000000000000602082015250565b60006135546029836129e3565b915061355f826134f8565b604082019050919050565b6000602082019050818103600083015261358381613547565b9050919050565b7f4552433732313a2062616c616e636520717565727920666f7220746865207a6560008201527f726f206164647265737300000000000000000000000000000000000000000000602082015250565b60006135e6602a836129e3565b91506135f18261358a565b604082019050919050565b60006020820190508181036000830152613615816135d9565b9050919050565b7f4552433732314d657461646174613a2055524920717565727920666f72206e6f60008201527f6e6578697374656e7420746f6b656e0000000000000000000000000000000000602082015250565b6000613678602f836129e3565b91506136838261361c565b604082019050919050565b600060208201905081810360008301526136a78161366b565b9050919050565b600081905092915050565b60006136c4826129d8565b6136ce81856136ae565b93506136de8185602086016129f4565b80840191505092915050565b60006136f682856136b9565b915061370282846136b9565b91508190509392505050565b7f4552433732313a206f70657261746f7220717565727920666f72206e6f6e657860008201527f697374656e7420746f6b656e0000000000000000000000000000000000000000602082015250565b600061376a602c836129e3565b91506137758261370e565b604082019050919050565b600060208201905081810360008301526137998161375d565b9050919050565b7f4552433732313a207472616e736665722066726f6d20696e636f72726563742060008201527f6f776e6572000000000000000000000000000000000000000000000000000000602082015250565b60006137fc6025836129e3565b9150613807826137a0565b604082019050919050565b6000602082019050818103600083015261382b816137ef565b9050919050565b7f4552433732313a207472616e7366657220746f20746865207a65726f2061646460008201527f7265737300000000000000000000000000000000000000000000000000000000602082015250565b600061388e6024836129e3565b915061389982613832565b604082019050919050565b600060208201905081810360008301526138bd81613881565b9050919050565b7f4e487b7100000000000000000000000000000000000000000000000000000000600052601160045260246000fd5b60006138fe82612a93565b915061390983612a93565b92508282101561391c5761391b6138c4565b5b828203905092915050565b600061393282612a93565b915061393d83612a93565b9250827fffffffffffffffffffffffffffffffffffffffffffffffffffffffffffffffff03821115613972576139716138c4565b5b828201905092915050565b7f416363657373436f6e74726f6c3a206163636f756e7420000000000000000000600082015250565b60006139b36017836136ae565b91506139be8261397d565b601782019050919050565b7f206973206d697373696e6720726f6c6520000000000000000000000000000000600082015250565b60006139ff6011836136ae565b9150613a0a826139c9565b601182019050919050565b6000613a20826139a6565b9150613a2c82856136b9565b9150613a37826139f2565b9150613a4382846136b9565b91508190509392505050565b7f4552433732313a20617070726f766520746f2063616c6c657200000000000000600082015250565b6000613a856019836129e3565b9150613a9082613a4f565b602082019050919050565b60006020820190508181036000830152613ab481613a78565b9050919050565b7f4552433732313a207472616e7366657220746f206e6f6e20455243373231526560008201527f63656976657220696d706c656d656e7465720000000000000000000000000000602082015250565b6000613b176032836129e3565b9150613b2282613abb565b604082019050919050565b60006020820190508181036000830152613b4681613b0a565b9050919050565b6000613b5882612a93565b91507fffffffffffffffffffffffffffffffffffffffffffffffffffffffffffffffff8203613b8a57613b896138c4565b5b600182019050919050565b7f4e487b7100000000000000000000000000000000000000000000000000000000600052601260045260246000fd5b6000613bcf82612a93565b9150613bda83612a93565b925082613bea57613be9613b95565b5b828204905092915050565b6000613c0082612a93565b9150613c0b83612a93565b925082613c1b57613c1a613b95565b5b828206905092915050565b6000613c3182612a93565b9150613c3c83612a93565b9250817fffffffffffffffffffffffffffffffffffffffffffffffffffffffffffffffff0483118215151615613c7557613c746138c4565b5b828202905092915050565b6000613c8b82612a93565b915060008203613c9e57613c9d6138c4565b5b600182039050919050565b7f537472696e67733a20686578206c656e67746820696e73756666696369656e74600082015250565b6000613cdf6020836129e3565b9150613cea82613ca9565b602082019050919050565b60006020820190508181036000830152613d0e81613cd2565b9050919050565b600081519050919050565b600082825260208201905092915050565b6000613d3c82613d15565b613d468185613d20565b9350613d568185602086016129f4565b613d5f81612a27565b840191505092915050565b6000608082019050613d7f6000830187612b28565b613d8c6020830186612b28565b613d996040830185612bbe565b8181036060830152613dab8184613d31565b905095945050505050565b600081519050613dc581612949565b92915050565b600060208284031215613de157613de0612913565b5b6000613def84828501613db6565b91505092915050565b7f4552433732315061757361626c653a20746f6b656e207472616e73666572207760008201527f68696c6520706175736564000000000000000000000000000000000000000000602082015250565b6000613e54602b836129e3565b9150613e5f82613df8565b604082019050919050565b60006020820190508181036000830152613e8381613e47565b9050919050565b7f4e487b7100000000000000000000000000000000000000000000000000000000600052603160045260246000fdfea26469706673582212204f060894462d0db669574c2fb63692a4af3d449b38916bb50380219d9a8b764f64736f6c634300080d0033",
  "immutableReferences": {},
  "source": "// SPDX-License-Identifier: MIT\npragma solidity ^0.8.1;\n\nimport \"@openzeppelin/contracts/token/ERC721/ERC721.sol\";\nimport \"@openzeppelin/contracts/token/ERC1155/ERC1155.sol\";\nimport \"@openzeppelin/contracts/token/ERC721/extensions/ERC721Enumerable.sol\";\nimport \"@openzeppelin/contracts/token/ERC721/extensions/ERC721Pausable.sol\";\nimport \"@openzeppelin/contracts/token/ERC721/extensions/ERC721Burnable.sol\";\nimport \"@openzeppelin/contracts/access/AccessControlEnumerable.sol\";\nimport \"@openzeppelin/contracts/utils/Context.sol\";\nimport \"@openzeppelin/contracts/utils/Counters.sol\";\nimport \"@openzeppelin/contracts/proxy/Clones.sol\";\n\n\ncontract FundRepository is ERC1155 {\n\n    constructor(string memory uri_) ERC1155(uri_) {\n\n    }\n\n}\n\ncontract FundERC721Factory {\n\n    FundErc721Token private _baseToken;\n\n    struct FundRepositoryItem {\n        address tokenAddress;\n        uint256 balance;\n        uint256 baseFee;\n        address creator;\n        address owner;\n    }\n\n    struct FundMetas {\n        string name;\n        string logo;\n        uint256 supply;\n        uint256 goalValue;\n        string fundURI;\n    }\n\n    mapping(uint256 => FundRepositoryItem) private _repository;\n    mapping(uint256 => FundMetas) private _metasRepository;\n    mapping(address => bool) private _isFundToken;\n    uint private count = 0;\n\n    address private _futureAddress;\n\n    function createFundErc721Token(bytes32 salt) private returns(address) {\n\n        _futureAddress = Clones.predictDeterministicAddress(address(_baseToken), salt);\n        address instance = Clones.clone(address(_baseToken));\n        _isFundToken[instance] = true;\n        return instance;\n    }\n\n    function createRepositoryItem(address instance, uint256 balance, uint256 baseFee, address creator, address owner) private returns(uint256) {\n        FundErc721Token token = FundErc721Token(instance);\n        FundRepositoryItem memory item = FundRepositoryItem({\n            tokenAddress: instance,\n            balance: balance,\n            baseFee: baseFee,\n            creator: creator,\n            owner: owner\n        });\n\n        _repository[count] = item;\n        _metasRepository[count] = FundMetas({\n            name: token.name(),\n            logo: token.name(),\n            supply: token.totalSupply(),\n            goalValue: 0,\n            fundURI: token.tokenURI(count)\n        });\n        count = count+1;\n        return count -1;\n\n    }\n\n\n\n}\n\ncontract FundErc721Token is  Context,\n    AccessControlEnumerable,\n    ERC721Enumerable,\n    ERC721Burnable,\n    ERC721Pausable {\n\n        string private _baseTokenURI;\n bytes32 public constant MINTER_ROLE = keccak256(\"MINTER_ROLE\");\n    bytes32 public constant PAUSER_ROLE = keccak256(\"PAUSER_ROLE\");\n\n    Counters.Counter private _tokenIdTracker;\n\n          constructor(\n        string memory name,\n        string memory symbol,\n        string memory baseTokenURI\n    ) ERC721(name, symbol) {\n        _baseTokenURI = baseTokenURI;\n\n        _setupRole(DEFAULT_ADMIN_ROLE, _msgSender());\n\n        _setupRole(MINTER_ROLE, _msgSender());\n        _setupRole(PAUSER_ROLE, _msgSender());\n    }\n\n\n function _beforeTokenTransfer(\n        address from,\n        address to,\n        uint256 tokenId\n    ) internal virtual override(ERC721, ERC721Enumerable, ERC721Pausable) {\n        super._beforeTokenTransfer(from, to, tokenId);\n    }\n\n    /**\n     * @dev See {IERC165-supportsInterface}.\n     */\n    function supportsInterface(bytes4 interfaceId)\n        public\n        view\n        virtual\n        override(AccessControlEnumerable, ERC721, ERC721Enumerable)\n        returns (bool)\n    {\n        return super.supportsInterface(interfaceId);\n    }\n\n}",
  "sourcePath": "/Users/nicolascloutier/GolandProjects/contracts/contracts/core/FundErc721Token.sol",
  "compiler": {
    "name": "solc",
    "version": "0.8.13+commit.abaa5c0e.Emscripten.clang"
  },
  "schemaVersion": "3.4.7",
  "updatedAt": "2022-05-01T15:48:00.312Z",
  "devdoc": {
    "kind": "dev",
    "methods": {
      "approve(address,uint256)": {
        "details": "See {IERC721-approve}."
      },
      "balanceOf(address)": {
        "details": "See {IERC721-balanceOf}."
      },
      "burn(uint256)": {
        "details": "Burns `tokenId`. See {ERC721-_burn}. Requirements: - The caller must own `tokenId` or be an approved operator."
      },
      "getApproved(uint256)": {
        "details": "See {IERC721-getApproved}."
      },
      "getRoleAdmin(bytes32)": {
        "details": "Returns the admin role that controls `role`. See {grantRole} and {revokeRole}. To change a role's admin, use {_setRoleAdmin}."
      },
      "getRoleMember(bytes32,uint256)": {
        "details": "Returns one of the accounts that have `role`. `index` must be a value between 0 and {getRoleMemberCount}, non-inclusive. Role bearers are not sorted in any particular way, and their ordering may change at any point. WARNING: When using {getRoleMember} and {getRoleMemberCount}, make sure you perform all queries on the same block. See the following https://forum.openzeppelin.com/t/iterating-over-elements-on-enumerableset-in-openzeppelin-contracts/2296[forum post] for more information."
      },
      "getRoleMemberCount(bytes32)": {
        "details": "Returns the number of accounts that have `role`. Can be used together with {getRoleMember} to enumerate all bearers of a role."
      },
      "grantRole(bytes32,address)": {
        "details": "Grants `role` to `account`. If `account` had not been already granted `role`, emits a {RoleGranted} event. Requirements: - the caller must have ``role``'s admin role."
      },
      "hasRole(bytes32,address)": {
        "details": "Returns `true` if `account` has been granted `role`."
      },
      "isApprovedForAll(address,address)": {
        "details": "See {IERC721-isApprovedForAll}."
      },
      "name()": {
        "details": "See {IERC721Metadata-name}."
      },
      "ownerOf(uint256)": {
        "details": "See {IERC721-ownerOf}."
      },
      "paused()": {
        "details": "Returns true if the contract is paused, and false otherwise."
      },
      "renounceRole(bytes32,address)": {
        "details": "Revokes `role` from the calling account. Roles are often managed via {grantRole} and {revokeRole}: this function's purpose is to provide a mechanism for accounts to lose their privileges if they are compromised (such as when a trusted device is misplaced). If the calling account had been revoked `role`, emits a {RoleRevoked} event. Requirements: - the caller must be `account`."
      },
      "revokeRole(bytes32,address)": {
        "details": "Revokes `role` from `account`. If `account` had been granted `role`, emits a {RoleRevoked} event. Requirements: - the caller must have ``role``'s admin role."
      },
      "safeTransferFrom(address,address,uint256)": {
        "details": "See {IERC721-safeTransferFrom}."
      },
      "safeTransferFrom(address,address,uint256,bytes)": {
        "details": "See {IERC721-safeTransferFrom}."
      },
      "setApprovalForAll(address,bool)": {
        "details": "See {IERC721-setApprovalForAll}."
      },
      "supportsInterface(bytes4)": {
        "details": "See {IERC165-supportsInterface}."
      },
      "symbol()": {
        "details": "See {IERC721Metadata-symbol}."
      },
      "tokenByIndex(uint256)": {
        "details": "See {IERC721Enumerable-tokenByIndex}."
      },
      "tokenOfOwnerByIndex(address,uint256)": {
        "details": "See {IERC721Enumerable-tokenOfOwnerByIndex}."
      },
      "tokenURI(uint256)": {
        "details": "See {IERC721Metadata-tokenURI}."
      },
      "totalSupply()": {
        "details": "See {IERC721Enumerable-totalSupply}."
      },
      "transferFrom(address,address,uint256)": {
        "details": "See {IERC721-transferFrom}."
      }
    },
    "version": 1
  },
  "userdoc": {
    "kind": "user",
    "methods": {},
    "version": 1
  }
}