{
  "contractName": "SafeProxy",
  "abi": [
    {
      "anonymous": false,
      "inputs": [
        {
          "indexed": false,
          "internalType": "contract WalletSafeProxy",
          "name": "proxy",
          "type": "address"
        },
        {
          "indexed": false,
          "internalType": "address",
          "name": "singleton",
          "type": "address"
        }
      ],
      "name": "ProxyCreated",
      "type": "event"
    },
    {
      "inputs": [
        {
          "internalType": "address",
          "name": "singleton",
          "type": "address"
        },
        {
          "internalType": "bytes",
          "name": "data",
          "type": "bytes"
        }
      ],
      "name": "createProxy",
      "outputs": [
        {
          "internalType": "contract WalletSafeProxy",
          "name": "proxy",
          "type": "address"
        }
      ],
      "stateMutability": "nonpayable",
      "type": "function"
    },
    {
      "inputs": [],
      "name": "proxyRuntimeCode",
      "outputs": [
        {
          "internalType": "bytes",
          "name": "",
          "type": "bytes"
        }
      ],
      "stateMutability": "pure",
      "type": "function"
    },
    {
      "inputs": [],
      "name": "proxyCreationCode",
      "outputs": [
        {
          "internalType": "bytes",
          "name": "",
          "type": "bytes"
        }
      ],
      "stateMutability": "pure",
      "type": "function"
    },
    {
      "inputs": [
        {
          "internalType": "address",
          "name": "_singleton",
          "type": "address"
        },
        {
          "internalType": "bytes",
          "name": "initializer",
          "type": "bytes"
        },
        {
          "internalType": "uint256",
          "name": "saltNonce",
          "type": "uint256"
        }
      ],
      "name": "createProxyWithNonce",
      "outputs": [
        {
          "internalType": "contract WalletSafeProxy",
          "name": "proxy",
          "type": "address"
        }
      ],
      "stateMutability": "nonpayable",
      "type": "function"
    },
    {
      "inputs": [
        {
          "internalType": "address",
          "name": "_singleton",
          "type": "address"
        },
        {
          "internalType": "bytes",
          "name": "initializer",
          "type": "bytes"
        },
        {
          "internalType": "uint256",
          "name": "saltNonce",
          "type": "uint256"
        },
        {
          "internalType": "contract IProxyCreationCallback",
          "name": "callback",
          "type": "address"
        }
      ],
      "name": "createProxyWithCallback",
      "outputs": [
        {
          "internalType": "contract WalletSafeProxy",
          "name": "proxy",
          "type": "address"
        }
      ],
      "stateMutability": "nonpayable",
      "type": "function"
    },
    {
      "inputs": [
        {
          "internalType": "address",
          "name": "_singleton",
          "type": "address"
        },
        {
          "internalType": "bytes",
          "name": "initializer",
          "type": "bytes"
        },
        {
          "internalType": "uint256",
          "name": "saltNonce",
          "type": "uint256"
        }
      ],
      "name": "calculateCreateProxyWithNonceAddress",
      "outputs": [
        {
          "internalType": "contract WalletSafeProxy",
          "name": "proxy",
          "type": "address"
        }
      ],
      "stateMutability": "nonpayable",
      "type": "function"
    }
  ],
  "bytecode": "0x608060405234801561001057600080fd5b506112c3806100206000396000f3fe60806040523480156200001157600080fd5b50600436106200006a5760003560e01c80631688f0b9146200006f5780632500510e14620000a557806353e5d93514620000db57806361b69abd14620000fd578063addacc0f1462000133578063d18af54d1462000155575b600080fd5b6200008d600480360381019062000087919062000801565b6200018b565b6040516200009c9190620008e7565b60405180910390f35b620000c36004803603810190620000bd91906200096d565b62000205565b604051620000d29190620008e7565b60405180910390f35b620000e5620002ba565b604051620000f4919062000a80565b60405180910390f35b6200011b600480360381019062000115919062000aa4565b620002e7565b6040516200012a9190620008e7565b60405180910390f35b6200013d6200038c565b6040516200014c919062000a80565b60405180910390f35b6200017360048036038101906200016d919062000b4f565b620003b9565b604051620001829190620008e7565b60405180910390f35b60006200019a848484620004af565b9050600083511115620001c35760008060008551602087016000865af103620001c257600080fd5b5b7f9678a1e87ca9f1a37dc659a97b39d812d98cd236947e1b53b3d0d6fd346acb6e8185604051620001f692919062000bf1565b60405180910390a19392505050565b6000620002588585858080601f016020809104026020016040519081016040528093929190818152602001838380828437600081840152601f19601f8201169050808301925050505050505084620004af565b9050806040516020016200026d919062000c6e565b6040516020818303038152906040526040517f08c379a0000000000000000000000000000000000000000000000000000000008152600401620002b1919062000ce8565b60405180910390fd5b606060405180602001620002ce90620005d0565b6020820181038252601f19601f82011660405250905090565b600082604051620002f890620005d0565b62000304919062000d0c565b604051809103906000f08015801562000321573d6000803e3d6000fd5b5090506000825111156200034b5760008060008451602086016000865af1036200034a57600080fd5b5b7f9678a1e87ca9f1a37dc659a97b39d812d98cd236947e1b53b3d0d6fd346acb6e81846040516200037e92919062000bf1565b60405180910390a192915050565b606060405180602001620003a090620005de565b6020820181038252601f19601f82011660405250905090565b6000808383604051602001620003d192919062000da5565b6040516020818303038152906040528051906020012060001c9050620003f98686836200018b565b9150600073ffffffffffffffffffffffffffffffffffffffff168373ffffffffffffffffffffffffffffffffffffffff1614620004a6578273ffffffffffffffffffffffffffffffffffffffff16631e52b518838888886040518563ffffffff1660e01b815260040162000471949392919062000de6565b600060405180830381600087803b1580156200048c57600080fd5b505af1158015620004a1573d6000803e3d6000fd5b505050505b50949350505050565b600080838051906020012083604051602001620004ce92919062000e69565b604051602081830303815290604052805190602001209050600060405180602001620004fa90620005d0565b6020820181038252601f19601f820116604052508673ffffffffffffffffffffffffffffffffffffffff166040516020016200053892919062000edb565b6040516020818303038152906040529050818151826020016000f59250600073ffffffffffffffffffffffffffffffffffffffff168373ffffffffffffffffffffffffffffffffffffffff1603620005c7576040517f08c379a0000000000000000000000000000000000000000000000000000000008152600401620005be9062000f57565b60405180910390fd5b50509392505050565b61026b8062000f7a83390190565b60a980620011e583390190565b6000604051905090565b600080fd5b600080fd5b600073ffffffffffffffffffffffffffffffffffffffff82169050919050565b60006200062c82620005ff565b9050919050565b6200063e816200061f565b81146200064a57600080fd5b50565b6000813590506200065e8162000633565b92915050565b600080fd5b600080fd5b6000601f19601f8301169050919050565b7f4e487b7100000000000000000000000000000000000000000000000000000000600052604160045260246000fd5b620006b9826200066e565b810181811067ffffffffffffffff82111715620006db57620006da6200067f565b5b80604052505050565b6000620006f0620005eb565b9050620006fe8282620006ae565b919050565b600067ffffffffffffffff8211156200072157620007206200067f565b5b6200072c826200066e565b9050602081019050919050565b82818337600083830152505050565b60006200075f620007598462000703565b620006e4565b9050828152602081018484840111156200077e576200077d62000669565b5b6200078b84828562000739565b509392505050565b600082601f830112620007ab57620007aa62000664565b5b8135620007bd84826020860162000748565b91505092915050565b6000819050919050565b620007db81620007c6565b8114620007e757600080fd5b50565b600081359050620007fb81620007d0565b92915050565b6000806000606084860312156200081d576200081c620005f5565b5b60006200082d868287016200064d565b935050602084013567ffffffffffffffff811115620008515762000850620005fa565b5b6200085f8682870162000793565b92505060406200087286828701620007ea565b9150509250925092565b6000819050919050565b6000620008a7620008a16200089b84620005ff565b6200087c565b620005ff565b9050919050565b6000620008bb8262000886565b9050919050565b6000620008cf82620008ae565b9050919050565b620008e181620008c2565b82525050565b6000602082019050620008fe6000830184620008d6565b92915050565b600080fd5b600080fd5b60008083601f84011262000927576200092662000664565b5b8235905067ffffffffffffffff81111562000947576200094662000904565b5b60208301915083600182028301111562000966576200096562000909565b5b9250929050565b600080600080606085870312156200098a5762000989620005f5565b5b60006200099a878288016200064d565b945050602085013567ffffffffffffffff811115620009be57620009bd620005fa565b5b620009cc878288016200090e565b93509350506040620009e187828801620007ea565b91505092959194509250565b600081519050919050565b600082825260208201905092915050565b60005b8381101562000a2957808201518184015260208101905062000a0c565b8381111562000a39576000848401525b50505050565b600062000a4c82620009ed565b62000a588185620009f8565b935062000a6a81856020860162000a09565b62000a75816200066e565b840191505092915050565b6000602082019050818103600083015262000a9c818462000a3f565b905092915050565b6000806040838503121562000abe5762000abd620005f5565b5b600062000ace858286016200064d565b925050602083013567ffffffffffffffff81111562000af25762000af1620005fa565b5b62000b008582860162000793565b9150509250929050565b600062000b17826200061f565b9050919050565b62000b298162000b0a565b811462000b3557600080fd5b50565b60008135905062000b498162000b1e565b92915050565b6000806000806080858703121562000b6c5762000b6b620005f5565b5b600062000b7c878288016200064d565b945050602085013567ffffffffffffffff81111562000ba05762000b9f620005fa565b5b62000bae8782880162000793565b935050604062000bc187828801620007ea565b925050606062000bd48782880162000b38565b91505092959194509250565b62000beb816200061f565b82525050565b600060408201905062000c086000830185620008d6565b62000c17602083018462000be0565b9392505050565b60008160601b9050919050565b600062000c388262000c1e565b9050919050565b600062000c4c8262000c2b565b9050919050565b62000c6862000c6282620008c2565b62000c3f565b82525050565b600062000c7c828462000c53565b60148201915081905092915050565b600081519050919050565b600082825260208201905092915050565b600062000cb48262000c8b565b62000cc0818562000c96565b935062000cd281856020860162000a09565b62000cdd816200066e565b840191505092915050565b6000602082019050818103600083015262000d04818462000ca7565b905092915050565b600060208201905062000d23600083018462000be0565b92915050565b6000819050919050565b62000d4862000d4282620007c6565b62000d29565b82525050565b600062000d5b8262000886565b9050919050565b600062000d6f8262000d4e565b9050919050565b600062000d838262000c2b565b9050919050565b62000d9f62000d998262000d62565b62000d76565b82525050565b600062000db3828562000d33565b60208201915062000dc5828462000d8a565b6014820191508190509392505050565b62000de081620007c6565b82525050565b600060808201905062000dfd6000830187620008d6565b62000e0c602083018662000be0565b818103604083015262000e20818562000a3f565b905062000e31606083018462000dd5565b95945050505050565b6000819050919050565b6000819050919050565b62000e6362000e5d8262000e3a565b62000e44565b82525050565b600062000e77828562000e4e565b60208201915062000e89828462000d33565b6020820191508190509392505050565b600081905092915050565b600062000eb182620009ed565b62000ebd818562000e99565b935062000ecf81856020860162000a09565b80840191505092915050565b600062000ee9828562000ea4565b915062000ef7828462000d33565b6020820191508190509392505050565b7f437265617465322063616c6c206661696c656400000000000000000000000000600082015250565b600062000f3f60138362000c96565b915062000f4c8262000f07565b602082019050919050565b6000602082019050818103600083015262000f728162000f30565b905091905056fe608060405234801561001057600080fd5b5060405161026b38038061026b8339818101604052810190610032919061010a565b600073ffffffffffffffffffffffffffffffffffffffff168173ffffffffffffffffffffffffffffffffffffffff16036100a1576040517f08c379a000000000000000000000000000000000000000000000000000000000815260040161009890610194565b60405180910390fd5b506101b4565b600080fd5b600073ffffffffffffffffffffffffffffffffffffffff82169050919050565b60006100d7826100ac565b9050919050565b6100e7816100cc565b81146100f257600080fd5b50565b600081519050610104816100de565b92915050565b6000602082840312156101205761011f6100a7565b5b600061012e848285016100f5565b91505092915050565b600082825260208201905092915050565b7f696e76616c69642061646472657373207a65726f000000000000000000000000600082015250565b600061017e601483610137565b915061018982610148565b602082019050919050565b600060208201905081810360008301526101ad81610171565b9050919050565b60a9806101c26000396000f3fe608060405273ffffffffffffffffffffffffffffffffffffffff600054167fa619486e0000000000000000000000000000000000000000000000000000000060003503604f578060005260206000f35b3660008037600080366000845af43d6000803e60008103606e573d6000fd5b3d6000f3fea264697066735822122022271190b33f87c2eb5115f3cba3cabaa12b5904ed4fd56815bd9476c45020ab64736f6c634300080d0033608060405273ffffffffffffffffffffffffffffffffffffffff600054167fa619486e0000000000000000000000000000000000000000000000000000000060003503604f578060005260206000f35b3660008037600080366000845af43d6000803e60008103606e573d6000fd5b3d6000f3fea264697066735822122022271190b33f87c2eb5115f3cba3cabaa12b5904ed4fd56815bd9476c45020ab64736f6c634300080d0033a26469706673582212208d9854aa942f8c06b93a264980f428f0828b81ebb9d3001accfd261e07c7c95764736f6c634300080d0033",
  "immutableReferences": {},
  "source": "// SPDX-License-Identifier: LGPL-3.0-only\npragma solidity ^0.8.1;\n\n/// inspired by GnosisSafeProxy\n\ncontract SafeProxy {\n    event ProxyCreated(WalletSafeProxy proxy, address singleton);\n\n    function createProxy(address singleton, bytes memory data) public returns(WalletSafeProxy proxy) {\n        proxy = new WalletSafeProxy(singleton);\n         if (data.length > 0)\n            // solhint-disable-next-line no-inline-assembly\n            assembly {\n                if eq(call(gas(), proxy, 0, add(data, 0x20), mload(data), 0, 0), 0) {\n                    revert(0, 0)\n                }\n            }\n        emit ProxyCreated(proxy, singleton);\n    }\n\n    function proxyRuntimeCode() public pure returns (bytes memory) {\n        return type(WalletSafeProxy).runtimeCode;\n    }\n\n    function proxyCreationCode() public pure returns (bytes memory) {\n        return type(WalletSafeProxy).creationCode;\n    }\n\n\n    /// @dev Allows to create new proxy contact using CREATE2 but it doesn't run the initializer.\n    ///      This method is only meant as an utility to be called from other methods\n    /// @param _singleton Address of singleton contract.\n    /// @param initializer Payload for message call sent to new proxy contract.\n    /// @param saltNonce Nonce that will be used to generate the salt to calculate the address of the new proxy contract.\n    function deployProxyWithNonce(\n        address _singleton,\n        bytes memory initializer,\n        uint256 saltNonce\n    ) internal returns (WalletSafeProxy proxy) {\n        // If the initializer changes the proxy address should change too. Hashing the initializer data is cheaper than just concatinating it\n        bytes32 salt = keccak256(abi.encodePacked(keccak256(initializer), saltNonce));\n        bytes memory deploymentData = abi.encodePacked(type(WalletSafeProxy).creationCode, uint256(uint160(_singleton)));\n        // solhint-disable-next-line no-inline-assembly\n        assembly {\n            proxy := create2(0x0, add(0x20, deploymentData), mload(deploymentData), salt)\n        }\n        require(address(proxy) != address(0), \"Create2 call failed\");\n    }\n\n    /// @dev Allows to create new proxy contact and execute a message call to the new proxy within one transaction.\n    /// @param _singleton Address of singleton contract.\n    /// @param initializer Payload for message call sent to new proxy contract.\n    /// @param saltNonce Nonce that will be used to generate the salt to calculate the address of the new proxy contract.\n    function createProxyWithNonce(\n        address _singleton,\n        bytes memory initializer,\n        uint256 saltNonce\n    ) public returns (WalletSafeProxy proxy) {\n        proxy = deployProxyWithNonce(_singleton, initializer, saltNonce);\n        if (initializer.length > 0)\n            // solhint-disable-next-line no-inline-assembly\n            assembly {\n                if eq(call(gas(), proxy, 0, add(initializer, 0x20), mload(initializer), 0, 0), 0) {\n                    revert(0, 0)\n                }\n            }\n        emit ProxyCreated(proxy, _singleton);\n    }\n\n    /// @dev Allows to create new proxy contact, execute a message call to the new proxy and call a specified callback within one transaction\n    /// @param _singleton Address of singleton contract.\n    /// @param initializer Payload for message call sent to new proxy contract.\n    /// @param saltNonce Nonce that will be used to generate the salt to calculate the address of the new proxy contract.\n    /// @param callback Callback that will be invoked after the new proxy contract has been successfully deployed and initialized.\n    function createProxyWithCallback(\n        address _singleton,\n        bytes memory initializer,\n        uint256 saltNonce,\n        IProxyCreationCallback callback\n    ) public returns (WalletSafeProxy proxy) {\n        uint256 saltNonceWithCallback = uint256(keccak256(abi.encodePacked(saltNonce, callback)));\n        proxy = createProxyWithNonce(_singleton, initializer, saltNonceWithCallback);\n        if (address(callback) != address(0)) callback.proxyCreated(proxy, _singleton, initializer, saltNonce);\n    }\n\n    /// @dev Allows to get the address for a new proxy contact created via `createProxyWithNonce`\n    ///      This method is only meant for address calculation purpose when you use an initializer that would revert,\n    ///      therefore the response is returned with a revert. When calling this method set `from` to the address of the proxy factory.\n    /// @param _singleton Address of singleton contract.\n    /// @param initializer Payload for message call sent to new proxy contract.\n    /// @param saltNonce Nonce that will be used to generate the salt to calculate the address of the new proxy contract.\n    function calculateCreateProxyWithNonceAddress(\n        address _singleton,\n        bytes calldata initializer,\n        uint256 saltNonce\n    ) external returns (WalletSafeProxy proxy) {\n        proxy = deployProxyWithNonce(_singleton, initializer, saltNonce);\n        revert(string(abi.encodePacked(proxy)));\n    }\n\n}\n\ncontract WalletSafeProxy {\n    address internal singleton;\n\n    constructor(address _singleton) {\n        require(_singleton != address(0), \"invalid address zero\");\n    }\n\n     /// @dev Fallback function forwards all transactions and returns all received return data.\n    fallback() external payable {\n        // solhint-disable-next-line no-inline-assembly\n        assembly {\n            let _singleton := and(sload(0), 0xffffffffffffffffffffffffffffffffffffffff)\n            // 0xa619486e == keccak(\"masterCopy()\"). The value is right padded to 32-bytes with 0s\n            if eq(calldataload(0), 0xa619486e00000000000000000000000000000000000000000000000000000000) {\n                mstore(0, _singleton)\n                return(0, 0x20)\n            }\n            calldatacopy(0, 0, calldatasize())\n            let success := delegatecall(gas(), _singleton, 0, calldatasize(), 0, 0)\n            returndatacopy(0, 0, returndatasize())\n            if eq(success, 0) {\n                revert(0, returndatasize())\n            }\n            return(0, returndatasize())\n        }\n    }\n}\n\ninterface IProxy {\n    function masterCopy() external view returns(address);\n}\n\ninterface IProxyCreationCallback {\n    function proxyCreated(\n        WalletSafeProxy proxy,\n        address _singleton,\n        bytes calldata initializer,\n        uint256 saltNonce\n    ) external;\n}",
  "sourcePath": "/Users/nicolascloutier/GolandProjects/contracts/contracts/core/safeProxy.sol",
  "compiler": {
    "name": "solc",
    "version": "0.8.13+commit.abaa5c0e.Emscripten.clang"
  },
  "schemaVersion": "3.4.7",
  "updatedAt": "2022-05-01T15:48:00.329Z",
  "devdoc": {
    "kind": "dev",
    "methods": {
      "calculateCreateProxyWithNonceAddress(address,bytes,uint256)": {
        "details": "Allows to get the address for a new proxy contact created via `createProxyWithNonce`      This method is only meant for address calculation purpose when you use an initializer that would revert,      therefore the response is returned with a revert. When calling this method set `from` to the address of the proxy factory.",
        "params": {
          "_singleton": "Address of singleton contract.",
          "initializer": "Payload for message call sent to new proxy contract.",
          "saltNonce": "Nonce that will be used to generate the salt to calculate the address of the new proxy contract."
        }
      },
      "createProxyWithCallback(address,bytes,uint256,address)": {
        "details": "Allows to create new proxy contact, execute a message call to the new proxy and call a specified callback within one transaction",
        "params": {
          "_singleton": "Address of singleton contract.",
          "callback": "Callback that will be invoked after the new proxy contract has been successfully deployed and initialized.",
          "initializer": "Payload for message call sent to new proxy contract.",
          "saltNonce": "Nonce that will be used to generate the salt to calculate the address of the new proxy contract."
        }
      },
      "createProxyWithNonce(address,bytes,uint256)": {
        "details": "Allows to create new proxy contact and execute a message call to the new proxy within one transaction.",
        "params": {
          "_singleton": "Address of singleton contract.",
          "initializer": "Payload for message call sent to new proxy contract.",
          "saltNonce": "Nonce that will be used to generate the salt to calculate the address of the new proxy contract."
        }
      }
    },
    "version": 1
  },
  "userdoc": {
    "kind": "user",
    "methods": {},
    "notice": "inspired by GnosisSafeProxy",
    "version": 1
  }
}