{
  "contractName": "StakingToken",
  "abi": [
    {
      "inputs": [],
      "stateMutability": "nonpayable",
      "type": "constructor"
    },
    {
      "anonymous": false,
      "inputs": [
        {
          "indexed": false,
          "internalType": "address",
          "name": "previousAdmin",
          "type": "address"
        },
        {
          "indexed": false,
          "internalType": "address",
          "name": "newAdmin",
          "type": "address"
        }
      ],
      "name": "AdminChanged",
      "type": "event"
    },
    {
      "anonymous": false,
      "inputs": [
        {
          "indexed": true,
          "internalType": "address",
          "name": "owner",
          "type": "address"
        },
        {
          "indexed": true,
          "internalType": "address",
          "name": "spender",
          "type": "address"
        },
        {
          "indexed": false,
          "internalType": "uint256",
          "name": "value",
          "type": "uint256"
        }
      ],
      "name": "Approval",
      "type": "event"
    },
    {
      "anonymous": false,
      "inputs": [
        {
          "indexed": true,
          "internalType": "address",
          "name": "beacon",
          "type": "address"
        }
      ],
      "name": "BeaconUpgraded",
      "type": "event"
    },
    {
      "anonymous": false,
      "inputs": [
        {
          "indexed": true,
          "internalType": "address",
          "name": "previousOwner",
          "type": "address"
        },
        {
          "indexed": true,
          "internalType": "address",
          "name": "newOwner",
          "type": "address"
        }
      ],
      "name": "OwnershipTransferred",
      "type": "event"
    },
    {
      "anonymous": false,
      "inputs": [
        {
          "indexed": true,
          "internalType": "address",
          "name": "user",
          "type": "address"
        },
        {
          "indexed": false,
          "internalType": "uint256",
          "name": "amount",
          "type": "uint256"
        },
        {
          "indexed": false,
          "internalType": "uint256",
          "name": "index",
          "type": "uint256"
        },
        {
          "indexed": false,
          "internalType": "uint256",
          "name": "timestamp",
          "type": "uint256"
        }
      ],
      "name": "Staked",
      "type": "event"
    },
    {
      "anonymous": false,
      "inputs": [
        {
          "indexed": true,
          "internalType": "address",
          "name": "from",
          "type": "address"
        },
        {
          "indexed": true,
          "internalType": "address",
          "name": "to",
          "type": "address"
        },
        {
          "indexed": false,
          "internalType": "uint256",
          "name": "value",
          "type": "uint256"
        }
      ],
      "name": "Transfer",
      "type": "event"
    },
    {
      "anonymous": false,
      "inputs": [
        {
          "indexed": true,
          "internalType": "address",
          "name": "implementation",
          "type": "address"
        }
      ],
      "name": "Upgraded",
      "type": "event"
    },
    {
      "inputs": [],
      "name": "HasParent",
      "outputs": [
        {
          "internalType": "bool",
          "name": "",
          "type": "bool"
        }
      ],
      "stateMutability": "view",
      "type": "function",
      "constant": true
    },
    {
      "inputs": [],
      "name": "Stakeable",
      "outputs": [
        {
          "internalType": "bool",
          "name": "",
          "type": "bool"
        }
      ],
      "stateMutability": "view",
      "type": "function",
      "constant": true
    },
    {
      "inputs": [
        {
          "internalType": "address",
          "name": "owner",
          "type": "address"
        },
        {
          "internalType": "address",
          "name": "spender",
          "type": "address"
        }
      ],
      "name": "allowance",
      "outputs": [
        {
          "internalType": "uint256",
          "name": "",
          "type": "uint256"
        }
      ],
      "stateMutability": "view",
      "type": "function",
      "constant": true
    },
    {
      "inputs": [
        {
          "internalType": "address",
          "name": "spender",
          "type": "address"
        },
        {
          "internalType": "uint256",
          "name": "amount",
          "type": "uint256"
        }
      ],
      "name": "approve",
      "outputs": [
        {
          "internalType": "bool",
          "name": "",
          "type": "bool"
        }
      ],
      "stateMutability": "nonpayable",
      "type": "function"
    },
    {
      "inputs": [
        {
          "internalType": "address",
          "name": "account",
          "type": "address"
        }
      ],
      "name": "balanceOf",
      "outputs": [
        {
          "internalType": "uint256",
          "name": "",
          "type": "uint256"
        }
      ],
      "stateMutability": "view",
      "type": "function",
      "constant": true
    },
    {
      "inputs": [
        {
          "internalType": "uint256",
          "name": "amount",
          "type": "uint256"
        }
      ],
      "name": "burn",
      "outputs": [],
      "stateMutability": "nonpayable",
      "type": "function"
    },
    {
      "inputs": [
        {
          "internalType": "address",
          "name": "account",
          "type": "address"
        },
        {
          "internalType": "uint256",
          "name": "amount",
          "type": "uint256"
        }
      ],
      "name": "burnFrom",
      "outputs": [],
      "stateMutability": "nonpayable",
      "type": "function"
    },
    {
      "inputs": [],
      "name": "decimals",
      "outputs": [
        {
          "internalType": "uint8",
          "name": "",
          "type": "uint8"
        }
      ],
      "stateMutability": "view",
      "type": "function",
      "constant": true
    },
    {
      "inputs": [
        {
          "internalType": "address",
          "name": "spender",
          "type": "address"
        },
        {
          "internalType": "uint256",
          "name": "subtractedValue",
          "type": "uint256"
        }
      ],
      "name": "decreaseAllowance",
      "outputs": [
        {
          "internalType": "bool",
          "name": "",
          "type": "bool"
        }
      ],
      "stateMutability": "nonpayable",
      "type": "function"
    },
    {
      "inputs": [
        {
          "internalType": "address",
          "name": "_staker",
          "type": "address"
        }
      ],
      "name": "hasStake",
      "outputs": [
        {
          "components": [
            {
              "internalType": "uint256",
              "name": "total_amount",
              "type": "uint256"
            },
            {
              "components": [
                {
                  "internalType": "address",
                  "name": "account",
                  "type": "address"
                },
                {
                  "internalType": "uint256",
                  "name": "amount",
                  "type": "uint256"
                },
                {
                  "internalType": "uint256",
                  "name": "since",
                  "type": "uint256"
                },
                {
                  "internalType": "uint256",
                  "name": "commitmentSeconds",
                  "type": "uint256"
                },
                {
                  "internalType": "uint256",
                  "name": "commitmentExpiry",
                  "type": "uint256"
                },
                {
                  "internalType": "uint256",
                  "name": "commitedOn",
                  "type": "uint256"
                },
                {
                  "internalType": "uint256",
                  "name": "claimable",
                  "type": "uint256"
                }
              ],
              "internalType": "struct Staking.Stake[]",
              "name": "stakes",
              "type": "tuple[]"
            }
          ],
          "internalType": "struct Staking.StakingSummary",
          "name": "",
          "type": "tuple"
        }
      ],
      "stateMutability": "view",
      "type": "function",
      "constant": true
    },
    {
      "inputs": [
        {
          "internalType": "address",
          "name": "spender",
          "type": "address"
        },
        {
          "internalType": "uint256",
          "name": "addedValue",
          "type": "uint256"
        }
      ],
      "name": "increaseAllowance",
      "outputs": [
        {
          "internalType": "bool",
          "name": "",
          "type": "bool"
        }
      ],
      "stateMutability": "nonpayable",
      "type": "function"
    },
    {
      "inputs": [],
      "name": "name",
      "outputs": [
        {
          "internalType": "string",
          "name": "",
          "type": "string"
        }
      ],
      "stateMutability": "view",
      "type": "function",
      "constant": true
    },
    {
      "inputs": [],
      "name": "owner",
      "outputs": [
        {
          "internalType": "address",
          "name": "",
          "type": "address"
        }
      ],
      "stateMutability": "view",
      "type": "function",
      "constant": true
    },
    {
      "inputs": [],
      "name": "proxiableUUID",
      "outputs": [
        {
          "internalType": "bytes32",
          "name": "",
          "type": "bytes32"
        }
      ],
      "stateMutability": "view",
      "type": "function",
      "constant": true
    },
    {
      "inputs": [],
      "name": "renounceOwnership",
      "outputs": [],
      "stateMutability": "nonpayable",
      "type": "function"
    },
    {
      "inputs": [],
      "name": "symbol",
      "outputs": [
        {
          "internalType": "string",
          "name": "",
          "type": "string"
        }
      ],
      "stateMutability": "view",
      "type": "function",
      "constant": true
    },
    {
      "inputs": [],
      "name": "totalSupply",
      "outputs": [
        {
          "internalType": "uint256",
          "name": "",
          "type": "uint256"
        }
      ],
      "stateMutability": "view",
      "type": "function",
      "constant": true
    },
    {
      "inputs": [
        {
          "internalType": "address",
          "name": "to",
          "type": "address"
        },
        {
          "internalType": "uint256",
          "name": "amount",
          "type": "uint256"
        }
      ],
      "name": "transfer",
      "outputs": [
        {
          "internalType": "bool",
          "name": "",
          "type": "bool"
        }
      ],
      "stateMutability": "nonpayable",
      "type": "function"
    },
    {
      "inputs": [
        {
          "internalType": "address",
          "name": "from",
          "type": "address"
        },
        {
          "internalType": "address",
          "name": "to",
          "type": "address"
        },
        {
          "internalType": "uint256",
          "name": "amount",
          "type": "uint256"
        }
      ],
      "name": "transferFrom",
      "outputs": [
        {
          "internalType": "bool",
          "name": "",
          "type": "bool"
        }
      ],
      "stateMutability": "nonpayable",
      "type": "function"
    },
    {
      "inputs": [
        {
          "internalType": "address",
          "name": "newOwner",
          "type": "address"
        }
      ],
      "name": "transferOwnership",
      "outputs": [],
      "stateMutability": "nonpayable",
      "type": "function"
    },
    {
      "inputs": [
        {
          "internalType": "address",
          "name": "newImplementation",
          "type": "address"
        }
      ],
      "name": "upgradeTo",
      "outputs": [],
      "stateMutability": "nonpayable",
      "type": "function"
    },
    {
      "inputs": [
        {
          "internalType": "address",
          "name": "newImplementation",
          "type": "address"
        },
        {
          "internalType": "bytes",
          "name": "data",
          "type": "bytes"
        }
      ],
      "name": "upgradeToAndCall",
      "outputs": [],
      "stateMutability": "payable",
      "type": "function",
      "payable": true
    },
    {
      "inputs": [
        {
          "internalType": "string",
          "name": "__name",
          "type": "string"
        },
        {
          "internalType": "string",
          "name": "__symbol",
          "type": "string"
        },
        {
          "internalType": "uint256",
          "name": "__supply",
          "type": "uint256"
        }
      ],
      "name": "initialize",
      "outputs": [],
      "stateMutability": "nonpayable",
      "type": "function"
    },
    {
      "inputs": [
        {
          "internalType": "uint256",
          "name": "_amount",
          "type": "uint256"
        }
      ],
      "name": "stake",
      "outputs": [],
      "stateMutability": "nonpayable",
      "type": "function"
    },
    {
      "inputs": [
        {
          "internalType": "uint256",
          "name": "_amount",
          "type": "uint256"
        },
        {
          "internalType": "uint256",
          "name": "stakeIndex",
          "type": "uint256"
        }
      ],
      "name": "withdraw",
      "outputs": [],
      "stateMutability": "nonpayable",
      "type": "function"
    }
  ],
  "bytecode": "0x60a06040523073ffffffffffffffffffffffffffffffffffffffff1660809073ffffffffffffffffffffffffffffffffffffffff1681525061138860ca556101f460cb556101f460cc556107d060cd556201518060ce5534801561006257600080fd5b506080516145c961009a600039600081816106f60152818161078401528181610959015281816109e70152610a9701526145c96000f3fe6080604052600436106101665760003560e01c8063715018a6116100d1578063a694fc3a1161008a578063b61463da11610064578063b61463da1461052f578063dd62ed3e1461055a578063e73e14bf14610597578063f2fde38b146105d457610166565b8063a694fc3a146104a0578063a9059cbb146104c9578063b119490e1461050657610166565b8063715018a6146103a257806379cc6790146103b95780638da5cb5b146103e2578063906cda0b1461040d57806395d89b4114610438578063a457c2d71461046357610166565b80633950935111610123578063395093511461028f57806342966c68146102cc578063441a3e70146102f55780634f1ef2861461031e57806352d1902d1461033a57806370a082311461036557610166565b806306fdde031461016b578063095ea7b31461019657806318160ddd146101d357806323b872dd146101fe578063313ce5671461023b5780633659cfe614610266575b600080fd5b34801561017757600080fd5b506101806105fd565b60405161018d9190612c43565b60405180910390f35b3480156101a257600080fd5b506101bd60048036038101906101b89190612d0d565b61068f565b6040516101ca9190612d68565b60405180910390f35b3480156101df57600080fd5b506101e86106b2565b6040516101f59190612d92565b60405180910390f35b34801561020a57600080fd5b5061022560048036038101906102209190612dad565b6106bc565b6040516102329190612d68565b60405180910390f35b34801561024757600080fd5b506102506106eb565b60405161025d9190612e1c565b60405180910390f35b34801561027257600080fd5b5061028d60048036038101906102889190612e37565b6106f4565b005b34801561029b57600080fd5b506102b660048036038101906102b19190612d0d565b61087c565b6040516102c39190612d68565b60405180910390f35b3480156102d857600080fd5b506102f360048036038101906102ee9190612e64565b610926565b005b34801561030157600080fd5b5061031c60048036038101906103179190612e91565b61093a565b005b61033860048036038101906103339190613006565b610957565b005b34801561034657600080fd5b5061034f610a93565b60405161035c919061307b565b60405180910390f35b34801561037157600080fd5b5061038c60048036038101906103879190612e37565b610b4c565b6040516103999190612d92565b60405180910390f35b3480156103ae57600080fd5b506103b7610b95565b005b3480156103c557600080fd5b506103e060048036038101906103db9190612d0d565b610c1d565b005b3480156103ee57600080fd5b506103f7610c3d565b60405161040491906130a5565b60405180910390f35b34801561041957600080fd5b50610422610c67565b60405161042f9190612d68565b60405180910390f35b34801561044457600080fd5b5061044d610c6c565b60405161045a9190612c43565b60405180910390f35b34801561046f57600080fd5b5061048a60048036038101906104859190612d0d565b610cfe565b6040516104979190612d68565b60405180910390f35b3480156104ac57600080fd5b506104c760048036038101906104c29190612e64565b610de8565b005b3480156104d557600080fd5b506104f060048036038101906104eb9190612d0d565b610e80565b6040516104fd9190612d68565b60405180910390f35b34801561051257600080fd5b5061052d60048036038101906105289190613161565b610ea3565b005b34801561053b57600080fd5b5061054461100c565b6040516105519190612d68565b60405180910390f35b34801561056657600080fd5b50610581600480360381019061057c91906131ec565b611015565b60405161058e9190612d92565b60405180910390f35b3480156105a357600080fd5b506105be60048036038101906105b99190612e37565b61109c565b6040516105cb91906133c4565b60405180910390f35b3480156105e057600080fd5b506105fb60048036038101906105f69190612e37565b6112c7565b005b606060d4805461060c90613415565b80601f016020809104026020016040519081016040528092919081815260200182805461063890613415565b80156106855780601f1061065a57610100808354040283529160200191610685565b820191906000526020600020905b81548152906001019060200180831161066857829003601f168201915b5050505050905090565b60008061069a6113be565b90506106a78185856113c6565b600191505092915050565b600060d354905090565b6000806106c76113be565b90506106d485828561158f565b6106df85858561161b565b60019150509392505050565b60006012905090565b7f000000000000000000000000000000000000000000000000000000000000000073ffffffffffffffffffffffffffffffffffffffff163073ffffffffffffffffffffffffffffffffffffffff1603610782576040517f08c379a0000000000000000000000000000000000000000000000000000000008152600401610779906134b8565b60405180910390fd5b7f000000000000000000000000000000000000000000000000000000000000000073ffffffffffffffffffffffffffffffffffffffff166107c161189d565b73ffffffffffffffffffffffffffffffffffffffff1614610817576040517f08c379a000000000000000000000000000000000000000000000000000000000815260040161080e9061354a565b60405180910390fd5b610820816118f4565b61087981600067ffffffffffffffff81111561083f5761083e612edb565b5b6040519080825280601f01601f1916602001820160405280156108715781602001600182028036833780820191505090505b506000611973565b50565b6000806108876113be565b905061091b81858560d260008673ffffffffffffffffffffffffffffffffffffffff1673ffffffffffffffffffffffffffffffffffffffff16815260200190815260200160002060008973ffffffffffffffffffffffffffffffffffffffff1673ffffffffffffffffffffffffffffffffffffffff168152602001908152602001600020546109169190613599565b6113c6565b600191505092915050565b6109376109316113be565b82611ae1565b50565b60006109468383611cb9565b90506109523382611fb7565b505050565b7f000000000000000000000000000000000000000000000000000000000000000073ffffffffffffffffffffffffffffffffffffffff163073ffffffffffffffffffffffffffffffffffffffff16036109e5576040517f08c379a00000000000000000000000000000000000000000000000000000000081526004016109dc906134b8565b60405180910390fd5b7f000000000000000000000000000000000000000000000000000000000000000073ffffffffffffffffffffffffffffffffffffffff16610a2461189d565b73ffffffffffffffffffffffffffffffffffffffff1614610a7a576040517f08c379a0000000000000000000000000000000000000000000000000000000008152600401610a719061354a565b60405180910390fd5b610a83826118f4565b610a8f82826001611973565b5050565b60007f000000000000000000000000000000000000000000000000000000000000000073ffffffffffffffffffffffffffffffffffffffff163073ffffffffffffffffffffffffffffffffffffffff1614610b23576040517f08c379a0000000000000000000000000000000000000000000000000000000008152600401610b1a90613661565b60405180910390fd5b7f360894a13ba1a3210667c828492db98dca3e2076cc3735a920a3ca505d382bbc60001b905090565b600060d160008373ffffffffffffffffffffffffffffffffffffffff1673ffffffffffffffffffffffffffffffffffffffff168152602001908152602001600020549050919050565b610b9d6113be565b73ffffffffffffffffffffffffffffffffffffffff16610bbb610c3d565b73ffffffffffffffffffffffffffffffffffffffff1614610c11576040517f08c379a0000000000000000000000000000000000000000000000000000000008152600401610c08906136cd565b60405180910390fd5b610c1b6000612117565b565b610c2f82610c296113be565b8361158f565b610c398282611ae1565b5050565b6000609760009054906101000a900473ffffffffffffffffffffffffffffffffffffffff16905090565b600090565b606060d58054610c7b90613415565b80601f0160208091040260200160405190810160405280929190818152602001828054610ca790613415565b8015610cf45780601f10610cc957610100808354040283529160200191610cf4565b820191906000526020600020905b815481529060010190602001808311610cd757829003601f168201915b5050505050905090565b600080610d096113be565b9050600060d260008373ffffffffffffffffffffffffffffffffffffffff1673ffffffffffffffffffffffffffffffffffffffff16815260200190815260200160002060008673ffffffffffffffffffffffffffffffffffffffff1673ffffffffffffffffffffffffffffffffffffffff16815260200190815260200160002054905083811015610dcf576040517f08c379a0000000000000000000000000000000000000000000000000000000008152600401610dc69061375f565b60405180910390fd5b610ddc82868684036113c6565b60019250505092915050565b61013560003373ffffffffffffffffffffffffffffffffffffffff1673ffffffffffffffffffffffffffffffffffffffff168152602001908152602001600020548110610e6a576040517f08c379a0000000000000000000000000000000000000000000000000000000008152600401610e61906137f1565b60405180910390fd5b610e73816121dd565b610e7d3382611ae1565b50565b600080610e8b6113be565b9050610e9881858561161b565b600191505092915050565b600060019054906101000a900460ff16610ecb5760008054906101000a900460ff1615610ed4565b610ed36123f4565b5b610f13576040517f08c379a0000000000000000000000000000000000000000000000000000000008152600401610f0a90613883565b60405180910390fd5b60008060019054906101000a900460ff161590508015610f63576001600060016101000a81548160ff02191690831515021790555060016000806101000a81548160ff0219169083151502179055505b610f6b612405565b610f758484612456565b610f7d6124d7565b3361013a60006101000a81548173ffffffffffffffffffffffffffffffffffffffff021916908373ffffffffffffffffffffffffffffffffffffffff160217905550610fc76106eb565b600a610fd391906139d6565b82610fde9190613a21565b6101378190555080156110065760008060016101000a81548160ff0219169083151502179055505b50505050565b60006001905090565b600060d260008473ffffffffffffffffffffffffffffffffffffffff1673ffffffffffffffffffffffffffffffffffffffff16815260200190815260200160002060008373ffffffffffffffffffffffffffffffffffffffff1673ffffffffffffffffffffffffffffffffffffffff16815260200190815260200160002054905092915050565b6110a4612aed565b60008060405180604001604052806000815260200160cf60d060008873ffffffffffffffffffffffffffffffffffffffff1673ffffffffffffffffffffffffffffffffffffffff168152602001908152602001600020548154811061110c5761110b613a7b565b5b9060005260206000209060020201600101805480602002602001604051908101604052809291908181526020016000905b8282101561120157838290600052602060002090600702016040518060e00160405290816000820160009054906101000a900473ffffffffffffffffffffffffffffffffffffffff1673ffffffffffffffffffffffffffffffffffffffff1673ffffffffffffffffffffffffffffffffffffffff16815260200160018201548152602001600282015481526020016003820154815260200160048201548152602001600582015481526020016006820154815250508152602001906001019061113d565b50505050815250905060005b8160200151518110156112b25760006112438360200151838151811061123657611235613a7b565b5b6020026020010151612528565b9050808360200151838151811061125d5761125c613a7b565b5b602002602001015160c00181815250508260200151828151811061128457611283613a7b565b5b6020026020010151602001518461129b9190613599565b9350506001816112ab9190613599565b905061120d565b50818160000181815250508092505050919050565b6112cf6113be565b73ffffffffffffffffffffffffffffffffffffffff166112ed610c3d565b73ffffffffffffffffffffffffffffffffffffffff1614611343576040517f08c379a000000000000000000000000000000000000000000000000000000000815260040161133a906136cd565b60405180910390fd5b600073ffffffffffffffffffffffffffffffffffffffff168173ffffffffffffffffffffffffffffffffffffffff16036113b2576040517f08c379a00000000000000000000000000000000000000000000000000000000081526004016113a990613b1c565b60405180910390fd5b6113bb81612117565b50565b600033905090565b600073ffffffffffffffffffffffffffffffffffffffff168373ffffffffffffffffffffffffffffffffffffffff1603611435576040517f08c379a000000000000000000000000000000000000000000000000000000000815260040161142c90613bae565b60405180910390fd5b600073ffffffffffffffffffffffffffffffffffffffff168273ffffffffffffffffffffffffffffffffffffffff16036114a4576040517f08c379a000000000000000000000000000000000000000000000000000000000815260040161149b90613c40565b60405180910390fd5b8060d260008573ffffffffffffffffffffffffffffffffffffffff1673ffffffffffffffffffffffffffffffffffffffff16815260200190815260200160002060008473ffffffffffffffffffffffffffffffffffffffff1673ffffffffffffffffffffffffffffffffffffffff168152602001908152602001600020819055508173ffffffffffffffffffffffffffffffffffffffff168373ffffffffffffffffffffffffffffffffffffffff167f8c5be1e5ebec7d5bd14f71427d1e84f3dd0314c0f7b2291e5b200ac8c7c3b925836040516115829190612d92565b60405180910390a3505050565b600061159b8484611015565b90507fffffffffffffffffffffffffffffffffffffffffffffffffffffffffffffffff81146116155781811015611607576040517f08c379a00000000000000000000000000000000000000000000000000000000081526004016115fe90613cac565b60405180910390fd5b61161484848484036113c6565b5b50505050565b600073ffffffffffffffffffffffffffffffffffffffff168373ffffffffffffffffffffffffffffffffffffffff160361168a576040517f08c379a000000000000000000000000000000000000000000000000000000000815260040161168190613d3e565b60405180910390fd5b600073ffffffffffffffffffffffffffffffffffffffff168273ffffffffffffffffffffffffffffffffffffffff16036116f9576040517f08c379a00000000000000000000000000000000000000000000000000000000081526004016116f090613dd0565b60405180910390fd5b61170483838361257c565b600060d160008573ffffffffffffffffffffffffffffffffffffffff1673ffffffffffffffffffffffffffffffffffffffff1681526020019081526020016000205490508181101561178b576040517f08c379a000000000000000000000000000000000000000000000000000000000815260040161178290613e62565b60405180910390fd5b81810360d160008673ffffffffffffffffffffffffffffffffffffffff1673ffffffffffffffffffffffffffffffffffffffff168152602001908152602001600020819055508160d160008573ffffffffffffffffffffffffffffffffffffffff1673ffffffffffffffffffffffffffffffffffffffff16815260200190815260200160002060008282546118209190613599565b925050819055508273ffffffffffffffffffffffffffffffffffffffff168473ffffffffffffffffffffffffffffffffffffffff167fddf252ad1be2c89b69c2b068fc378daa952ba7f163c4a11628f55a4df523b3ef846040516118849190612d92565b60405180910390a3611897848484612581565b50505050565b60006118cb7f360894a13ba1a3210667c828492db98dca3e2076cc3735a920a3ca505d382bbc60001b612586565b60000160009054906101000a900473ffffffffffffffffffffffffffffffffffffffff16905090565b6118fc6113be565b73ffffffffffffffffffffffffffffffffffffffff1661191a610c3d565b73ffffffffffffffffffffffffffffffffffffffff1614611970576040517f08c379a0000000000000000000000000000000000000000000000000000000008152600401611967906136cd565b60405180910390fd5b50565b61199f7f4910fdfa16fed3260ed0e7147f7cc6da11a60208b5b9406d12a635614ffd914360001b612590565b60000160009054906101000a900460ff16156119c3576119be8361259a565b611adc565b8273ffffffffffffffffffffffffffffffffffffffff166352d1902d6040518163ffffffff1660e01b8152600401602060405180830381865afa925050508015611a2b57506040513d601f19601f82011682018060405250810190611a289190613eae565b60015b611a6a576040517f08c379a0000000000000000000000000000000000000000000000000000000008152600401611a6190613f4d565b60405180910390fd5b7f360894a13ba1a3210667c828492db98dca3e2076cc3735a920a3ca505d382bbc60001b8114611acf576040517f08c379a0000000000000000000000000000000000000000000000000000000008152600401611ac690613fdf565b60405180910390fd5b50611adb838383612653565b5b505050565b600073ffffffffffffffffffffffffffffffffffffffff168273ffffffffffffffffffffffffffffffffffffffff1603611b50576040517f08c379a0000000000000000000000000000000000000000000000000000000008152600401611b4790614071565b60405180910390fd5b611b5c8260008361257c565b600060d160008473ffffffffffffffffffffffffffffffffffffffff1673ffffffffffffffffffffffffffffffffffffffff16815260200190815260200160002054905081811015611be3576040517f08c379a0000000000000000000000000000000000000000000000000000000008152600401611bda90614103565b60405180910390fd5b81810360d160008573ffffffffffffffffffffffffffffffffffffffff1673ffffffffffffffffffffffffffffffffffffffff168152602001908152602001600020819055508160d36000828254611c3b9190614123565b92505081905550600073ffffffffffffffffffffffffffffffffffffffff168373ffffffffffffffffffffffffffffffffffffffff167fddf252ad1be2c89b69c2b068fc378daa952ba7f163c4a11628f55a4df523b3ef84604051611ca09190612d92565b60405180910390a3611cb483600084612581565b505050565b60008060d060003373ffffffffffffffffffffffffffffffffffffffff1673ffffffffffffffffffffffffffffffffffffffff168152602001908152602001600020549050600060cf8281548110611d1457611d13613a7b565b5b90600052602060002090600202016001018481548110611d3757611d36613a7b565b5b90600052602060002090600702016040518060e00160405290816000820160009054906101000a900473ffffffffffffffffffffffffffffffffffffffff1673ffffffffffffffffffffffffffffffffffffffff1673ffffffffffffffffffffffffffffffffffffffff168152602001600182015481526020016002820154815260200160038201548152602001600482015481526020016005820154815260200160068201548152505090508481602001511015611e2b576040517f08c379a0000000000000000000000000000000000000000000000000000000008152600401611e22906141c9565b60405180910390fd5b6000611e3682612528565b9050858260200151611e489190614123565b8260200181815250506000826020015103611f015760cf8381548110611e7157611e70613a7b565b5b90600052602060002090600202016001018581548110611e9457611e93613a7b565b5b9060005260206000209060070201600080820160006101000a81549073ffffffffffffffffffffffffffffffffffffffff02191690556001820160009055600282016000905560038201600090556004820160009055600582016000905560068201600090555050611fa0565b816020015160cf8481548110611f1a57611f19613a7b565b5b90600052602060002090600202016001018681548110611f3d57611f3c613a7b565b5b9060005260206000209060070201600101819055504260cf8481548110611f6757611f66613a7b565b5b90600052602060002090600202016001018681548110611f8a57611f89613a7b565b5b9060005260206000209060070201600201819055505b8086611fac9190613599565b935050505092915050565b600073ffffffffffffffffffffffffffffffffffffffff168273ffffffffffffffffffffffffffffffffffffffff1603612026576040517f08c379a000000000000000000000000000000000000000000000000000000000815260040161201d90614235565b60405180910390fd5b6120326000838361257c565b8060d360008282546120449190613599565b925050819055508060d160008473ffffffffffffffffffffffffffffffffffffffff1673ffffffffffffffffffffffffffffffffffffffff168152602001908152602001600020600082825461209a9190613599565b925050819055508173ffffffffffffffffffffffffffffffffffffffff16600073ffffffffffffffffffffffffffffffffffffffff167fddf252ad1be2c89b69c2b068fc378daa952ba7f163c4a11628f55a4df523b3ef836040516120ff9190612d92565b60405180910390a361211360008383612581565b5050565b6000609760009054906101000a900473ffffffffffffffffffffffffffffffffffffffff16905081609760006101000a81548173ffffffffffffffffffffffffffffffffffffffff021916908373ffffffffffffffffffffffffffffffffffffffff1602179055508173ffffffffffffffffffffffffffffffffffffffff168173ffffffffffffffffffffffffffffffffffffffff167f8be0079c531659141344cd1fd0a4f28419497f9722a3daafe3b4186f6b6457e060405160405180910390a35050565b60008111612220576040517f08c379a0000000000000000000000000000000000000000000000000000000008152600401612217906142a1565b60405180910390fd5b600060d060003373ffffffffffffffffffffffffffffffffffffffff1673ffffffffffffffffffffffffffffffffffffffff16815260200190815260200160002054905060004290506000820361227d5761227a3361267f565b91505b60cf828154811061229157612290613a7b565b5b90600052602060002090600202016001016040518060e001604052803373ffffffffffffffffffffffffffffffffffffffff1681526020018581526020018381526020016000815260200160008152602001600081526020016000815250908060018154018082558091505060019003906000526020600020906007020160009091909190915060008201518160000160006101000a81548173ffffffffffffffffffffffffffffffffffffffff021916908373ffffffffffffffffffffffffffffffffffffffff1602179055506020820151816001015560408201518160020155606082015181600301556080820151816004015560a0820151816005015560c0820151816006015550503373ffffffffffffffffffffffffffffffffffffffff167fb4caaf29adda3eefee3ad552a8e85058589bf834c7466cae4ee58787f70589ed8484846040516123e7939291906142c1565b60405180910390a2505050565b60006123ff30612766565b15905090565b600060019054906101000a900460ff16612454576040517f08c379a000000000000000000000000000000000000000000000000000000000815260040161244b9061436a565b60405180910390fd5b565b600060019054906101000a900460ff166124a5576040517f08c379a000000000000000000000000000000000000000000000000000000000815260040161249c9061436a565b60405180910390fd5b8160d490805190602001906124bb929190612b07565b508060d590805190602001906124d2929190612b07565b505050565b600060019054906101000a900460ff16612526576040517f08c379a000000000000000000000000000000000000000000000000000000000815260040161251d9061436a565b60405180910390fd5b565b600061253382612789565b8015612543575060008260600151115b1561255857612551826127a9565b9050612577565b612561826127eb565b61256a83612911565b6125749190614123565b90505b919050565b505050565b505050565b6000819050919050565b6000819050919050565b6125a381612766565b6125e2576040517f08c379a00000000000000000000000000000000000000000000000000000000081526004016125d9906143fc565b60405180910390fd5b8061260f7f360894a13ba1a3210667c828492db98dca3e2076cc3735a920a3ca505d382bbc60001b612586565b60000160006101000a81548173ffffffffffffffffffffffffffffffffffffffff021916908373ffffffffffffffffffffffffffffffffffffffff16021790555050565b61265c83612953565b6000825111806126695750805b1561267a5761267883836129a2565b505b505050565b600060cf600181600181540180825580915050039060005260206000209050506000600160cf805490506126b39190614123565b90508260cf82815481106126ca576126c9613a7b565b5b906000526020600020906002020160000160006101000a81548173ffffffffffffffffffffffffffffffffffffffff021916908373ffffffffffffffffffffffffffffffffffffffff1602179055508060d060008573ffffffffffffffffffffffffffffffffffffffff1673ffffffffffffffffffffffffffffffffffffffff1681526020019081526020016000208190555080915050919050565b6000808273ffffffffffffffffffffffffffffffffffffffff163b119050919050565b60008160800151421161279f57600090506127a4565b600190505b919050565b600060cd548260200151610e108460400151426127c69190614123565b6127d0919061444b565b6127da9190613a21565b6127e4919061444b565b9050919050565b60006127f682612789565b8015612806575060008260600151115b80156128235750426201518083604001516128219190613599565b105b156128685760cc548260200151610e108460400151426128439190614123565b61284d919061444b565b6128579190613a21565b612861919061444b565b905061290c565b61287182612789565b158015612882575060008260600151115b801561289f57504262015180836040015161289d9190613599565b115b156128ad576000905061290c565b426201518083604001516128c19190613599565b10156129075760cc548260200151610e108460400151426128e29190614123565b6128ec919061444b565b6128f69190613a21565b612900919061444b565b905061290c565b600090505b919050565b600060ca548260200151610e1084604001514261292e9190614123565b612938919061444b565b6129429190613a21565b61294c919061444b565b9050919050565b61295c8161259a565b8073ffffffffffffffffffffffffffffffffffffffff167fbc7cd75a20ee27fd9adebab32041f755214dbc6bffa90cc0225b39da2e5c2d3b60405160405180910390a250565b60606129ad83612766565b6129ec576040517f08c379a00000000000000000000000000000000000000000000000000000000081526004016129e3906144ee565b60405180910390fd5b6000808473ffffffffffffffffffffffffffffffffffffffff1684604051612a149190614555565b600060405180830381855af49150503d8060008114612a4f576040519150601f19603f3d011682016040523d82523d6000602084013e612a54565b606091505b5091509150612a7c828260405180606001604052806027815260200161456d60279139612a86565b9250505092915050565b60608315612a9657829050612ae6565b600083511115612aa95782518084602001fd5b816040517f08c379a0000000000000000000000000000000000000000000000000000000008152600401612add9190612c43565b60405180910390fd5b9392505050565b604051806040016040528060008152602001606081525090565b828054612b1390613415565b90600052602060002090601f016020900481019282612b355760008555612b7c565b82601f10612b4e57805160ff1916838001178555612b7c565b82800160010185558215612b7c579182015b82811115612b7b578251825591602001919060010190612b60565b5b509050612b899190612b8d565b5090565b5b80821115612ba6576000816000905550600101612b8e565b5090565b600081519050919050565b600082825260208201905092915050565b60005b83811015612be4578082015181840152602081019050612bc9565b83811115612bf3576000848401525b50505050565b6000601f19601f8301169050919050565b6000612c1582612baa565b612c1f8185612bb5565b9350612c2f818560208601612bc6565b612c3881612bf9565b840191505092915050565b60006020820190508181036000830152612c5d8184612c0a565b905092915050565b6000604051905090565b600080fd5b600080fd5b600073ffffffffffffffffffffffffffffffffffffffff82169050919050565b6000612ca482612c79565b9050919050565b612cb481612c99565b8114612cbf57600080fd5b50565b600081359050612cd181612cab565b92915050565b6000819050919050565b612cea81612cd7565b8114612cf557600080fd5b50565b600081359050612d0781612ce1565b92915050565b60008060408385031215612d2457612d23612c6f565b5b6000612d3285828601612cc2565b9250506020612d4385828601612cf8565b9150509250929050565b60008115159050919050565b612d6281612d4d565b82525050565b6000602082019050612d7d6000830184612d59565b92915050565b612d8c81612cd7565b82525050565b6000602082019050612da76000830184612d83565b92915050565b600080600060608486031215612dc657612dc5612c6f565b5b6000612dd486828701612cc2565b9350506020612de586828701612cc2565b9250506040612df686828701612cf8565b9150509250925092565b600060ff82169050919050565b612e1681612e00565b82525050565b6000602082019050612e316000830184612e0d565b92915050565b600060208284031215612e4d57612e4c612c6f565b5b6000612e5b84828501612cc2565b91505092915050565b600060208284031215612e7a57612e79612c6f565b5b6000612e8884828501612cf8565b91505092915050565b60008060408385031215612ea857612ea7612c6f565b5b6000612eb685828601612cf8565b9250506020612ec785828601612cf8565b9150509250929050565b600080fd5b600080fd5b7f4e487b7100000000000000000000000000000000000000000000000000000000600052604160045260246000fd5b612f1382612bf9565b810181811067ffffffffffffffff82111715612f3257612f31612edb565b5b80604052505050565b6000612f45612c65565b9050612f518282612f0a565b919050565b600067ffffffffffffffff821115612f7157612f70612edb565b5b612f7a82612bf9565b9050602081019050919050565b82818337600083830152505050565b6000612fa9612fa484612f56565b612f3b565b905082815260208101848484011115612fc557612fc4612ed6565b5b612fd0848285612f87565b509392505050565b600082601f830112612fed57612fec612ed1565b5b8135612ffd848260208601612f96565b91505092915050565b6000806040838503121561301d5761301c612c6f565b5b600061302b85828601612cc2565b925050602083013567ffffffffffffffff81111561304c5761304b612c74565b5b61305885828601612fd8565b9150509250929050565b6000819050919050565b61307581613062565b82525050565b6000602082019050613090600083018461306c565b92915050565b61309f81612c99565b82525050565b60006020820190506130ba6000830184613096565b92915050565b600067ffffffffffffffff8211156130db576130da612edb565b5b6130e482612bf9565b9050602081019050919050565b60006131046130ff846130c0565b612f3b565b9050828152602081018484840111156131205761311f612ed6565b5b61312b848285612f87565b509392505050565b600082601f83011261314857613147612ed1565b5b81356131588482602086016130f1565b91505092915050565b60008060006060848603121561317a57613179612c6f565b5b600084013567ffffffffffffffff81111561319857613197612c74565b5b6131a486828701613133565b935050602084013567ffffffffffffffff8111156131c5576131c4612c74565b5b6131d186828701613133565b92505060406131e286828701612cf8565b9150509250925092565b6000806040838503121561320357613202612c6f565b5b600061321185828601612cc2565b925050602061322285828601612cc2565b9150509250929050565b61323581612cd7565b82525050565b600081519050919050565b600082825260208201905092915050565b6000819050602082019050919050565b61327081612c99565b82525050565b60e08201600082015161328c6000850182613267565b50602082015161329f602085018261322c565b5060408201516132b2604085018261322c565b5060608201516132c5606085018261322c565b5060808201516132d8608085018261322c565b5060a08201516132eb60a085018261322c565b5060c08201516132fe60c085018261322c565b50505050565b60006133108383613276565b60e08301905092915050565b6000602082019050919050565b60006133348261323b565b61333e8185613246565b935061334983613257565b8060005b8381101561337a5781516133618882613304565b975061336c8361331c565b92505060018101905061334d565b5085935050505092915050565b600060408301600083015161339f600086018261322c565b50602083015184820360208601526133b78282613329565b9150508091505092915050565b600060208201905081810360008301526133de8184613387565b905092915050565b7f4e487b7100000000000000000000000000000000000000000000000000000000600052602260045260246000fd5b6000600282049050600182168061342d57607f821691505b6020821081036134405761343f6133e6565b5b50919050565b7f46756e6374696f6e206d7573742062652063616c6c6564207468726f7567682060008201527f64656c656761746563616c6c0000000000000000000000000000000000000000602082015250565b60006134a2602c83612bb5565b91506134ad82613446565b604082019050919050565b600060208201905081810360008301526134d181613495565b9050919050565b7f46756e6374696f6e206d7573742062652063616c6c6564207468726f7567682060008201527f6163746976652070726f78790000000000000000000000000000000000000000602082015250565b6000613534602c83612bb5565b915061353f826134d8565b604082019050919050565b6000602082019050818103600083015261356381613527565b9050919050565b7f4e487b7100000000000000000000000000000000000000000000000000000000600052601160045260246000fd5b60006135a482612cd7565b91506135af83612cd7565b9250827fffffffffffffffffffffffffffffffffffffffffffffffffffffffffffffffff038211156135e4576135e361356a565b5b828201905092915050565b7f555550535570677261646561626c653a206d757374206e6f742062652063616c60008201527f6c6564207468726f7567682064656c656761746563616c6c0000000000000000602082015250565b600061364b603883612bb5565b9150613656826135ef565b604082019050919050565b6000602082019050818103600083015261367a8161363e565b9050919050565b7f4f776e61626c653a2063616c6c6572206973206e6f7420746865206f776e6572600082015250565b60006136b7602083612bb5565b91506136c282613681565b602082019050919050565b600060208201905081810360008301526136e6816136aa565b9050919050565b7f45524332303a2064656372656173656420616c6c6f77616e63652062656c6f7760008201527f207a65726f000000000000000000000000000000000000000000000000000000602082015250565b6000613749602583612bb5565b9150613754826136ed565b604082019050919050565b600060208201905081810360008301526137788161373c565b9050919050565b7f5374616b696e67546f6b656e3a2043616e6e6f74207374616b65206d6f72652060008201527f7468616e20796f75206f776e0000000000000000000000000000000000000000602082015250565b60006137db602c83612bb5565b91506137e68261377f565b604082019050919050565b6000602082019050818103600083015261380a816137ce565b9050919050565b7f496e697469616c697a61626c653a20636f6e747261637420697320616c72656160008201527f647920696e697469616c697a6564000000000000000000000000000000000000602082015250565b600061386d602e83612bb5565b915061387882613811565b604082019050919050565b6000602082019050818103600083015261389c81613860565b9050919050565b60008160011c9050919050565b6000808291508390505b60018511156138fa578086048111156138d6576138d561356a565b5b60018516156138e55780820291505b80810290506138f3856138a3565b94506138ba565b94509492505050565b60008261391357600190506139cf565b8161392157600090506139cf565b8160018114613937576002811461394157613970565b60019150506139cf565b60ff8411156139535761395261356a565b5b8360020a91508482111561396a5761396961356a565b5b506139cf565b5060208310610133831016604e8410600b84101617156139a55782820a9050838111156139a05761399f61356a565b5b6139cf565b6139b284848460016138b0565b925090508184048111156139c9576139c861356a565b5b81810290505b9392505050565b60006139e182612cd7565b91506139ec83612e00565b9250613a197fffffffffffffffffffffffffffffffffffffffffffffffffffffffffffffffff8484613903565b905092915050565b6000613a2c82612cd7565b9150613a3783612cd7565b9250817fffffffffffffffffffffffffffffffffffffffffffffffffffffffffffffffff0483118215151615613a7057613a6f61356a565b5b828202905092915050565b7f4e487b7100000000000000000000000000000000000000000000000000000000600052603260045260246000fd5b7f4f776e61626c653a206e6577206f776e657220697320746865207a65726f206160008201527f6464726573730000000000000000000000000000000000000000000000000000602082015250565b6000613b06602683612bb5565b9150613b1182613aaa565b604082019050919050565b60006020820190508181036000830152613b3581613af9565b9050919050565b7f45524332303a20617070726f76652066726f6d20746865207a65726f2061646460008201527f7265737300000000000000000000000000000000000000000000000000000000602082015250565b6000613b98602483612bb5565b9150613ba382613b3c565b604082019050919050565b60006020820190508181036000830152613bc781613b8b565b9050919050565b7f45524332303a20617070726f766520746f20746865207a65726f20616464726560008201527f7373000000000000000000000000000000000000000000000000000000000000602082015250565b6000613c2a602283612bb5565b9150613c3582613bce565b604082019050919050565b60006020820190508181036000830152613c5981613c1d565b9050919050565b7f45524332303a20696e73756666696369656e7420616c6c6f77616e6365000000600082015250565b6000613c96601d83612bb5565b9150613ca182613c60565b602082019050919050565b60006020820190508181036000830152613cc581613c89565b9050919050565b7f45524332303a207472616e736665722066726f6d20746865207a65726f20616460008201527f6472657373000000000000000000000000000000000000000000000000000000602082015250565b6000613d28602583612bb5565b9150613d3382613ccc565b604082019050919050565b60006020820190508181036000830152613d5781613d1b565b9050919050565b7f45524332303a207472616e7366657220746f20746865207a65726f206164647260008201527f6573730000000000000000000000000000000000000000000000000000000000602082015250565b6000613dba602383612bb5565b9150613dc582613d5e565b604082019050919050565b60006020820190508181036000830152613de981613dad565b9050919050565b7f45524332303a207472616e7366657220616d6f756e742065786365656473206260008201527f616c616e63650000000000000000000000000000000000000000000000000000602082015250565b6000613e4c602683612bb5565b9150613e5782613df0565b604082019050919050565b60006020820190508181036000830152613e7b81613e3f565b9050919050565b613e8b81613062565b8114613e9657600080fd5b50565b600081519050613ea881613e82565b92915050565b600060208284031215613ec457613ec3612c6f565b5b6000613ed284828501613e99565b91505092915050565b7f45524331393637557067726164653a206e657720696d706c656d656e7461746960008201527f6f6e206973206e6f742055555053000000000000000000000000000000000000602082015250565b6000613f37602e83612bb5565b9150613f4282613edb565b604082019050919050565b60006020820190508181036000830152613f6681613f2a565b9050919050565b7f45524331393637557067726164653a20756e737570706f727465642070726f7860008201527f6961626c65555549440000000000000000000000000000000000000000000000602082015250565b6000613fc9602983612bb5565b9150613fd482613f6d565b604082019050919050565b60006020820190508181036000830152613ff881613fbc565b9050919050565b7f45524332303a206275726e2066726f6d20746865207a65726f2061646472657360008201527f7300000000000000000000000000000000000000000000000000000000000000602082015250565b600061405b602183612bb5565b915061406682613fff565b604082019050919050565b6000602082019050818103600083015261408a8161404e565b9050919050565b7f45524332303a206275726e20616d6f756e7420657863656564732062616c616e60008201527f6365000000000000000000000000000000000000000000000000000000000000602082015250565b60006140ed602283612bb5565b91506140f882614091565b604082019050919050565b6000602082019050818103600083015261411c816140e0565b9050919050565b600061412e82612cd7565b915061413983612cd7565b92508282101561414c5761414b61356a565b5b828203905092915050565b7f5374616b696e673a2043616e6e6f74207769746864726177206d6f726520746860008201527f616e20796f752068617665207374616b65640000000000000000000000000000602082015250565b60006141b3603283612bb5565b91506141be82614157565b604082019050919050565b600060208201905081810360008301526141e2816141a6565b9050919050565b7f45524332303a206d696e7420746f20746865207a65726f206164647265737300600082015250565b600061421f601f83612bb5565b915061422a826141e9565b602082019050919050565b6000602082019050818103600083015261424e81614212565b9050919050565b7f43616e6e6f74207374616b65206e6f7468696e67000000000000000000000000600082015250565b600061428b601483612bb5565b915061429682614255565b602082019050919050565b600060208201905081810360008301526142ba8161427e565b9050919050565b60006060820190506142d66000830186612d83565b6142e36020830185612d83565b6142f06040830184612d83565b949350505050565b7f496e697469616c697a61626c653a20636f6e7472616374206973206e6f74206960008201527f6e697469616c697a696e67000000000000000000000000000000000000000000602082015250565b6000614354602b83612bb5565b915061435f826142f8565b604082019050919050565b6000602082019050818103600083015261438381614347565b9050919050565b7f455243313936373a206e657720696d706c656d656e746174696f6e206973206e60008201527f6f74206120636f6e747261637400000000000000000000000000000000000000602082015250565b60006143e6602d83612bb5565b91506143f18261438a565b604082019050919050565b60006020820190508181036000830152614415816143d9565b9050919050565b7f4e487b7100000000000000000000000000000000000000000000000000000000600052601260045260246000fd5b600061445682612cd7565b915061446183612cd7565b9250826144715761447061441c565b5b828204905092915050565b7f416464726573733a2064656c65676174652063616c6c20746f206e6f6e2d636f60008201527f6e74726163740000000000000000000000000000000000000000000000000000602082015250565b60006144d8602683612bb5565b91506144e38261447c565b604082019050919050565b60006020820190508181036000830152614507816144cb565b9050919050565b600081519050919050565b600081905092915050565b600061452f8261450e565b6145398185614519565b9350614549818560208601612bc6565b80840191505092915050565b60006145618284614524565b91508190509291505056fe416464726573733a206c6f772d6c6576656c2064656c65676174652063616c6c206661696c6564a2646970667358221220ea39f1667dd27e4abc95a7182c18343673c9ad0738f27df3dfaa2ee33d2e299c64736f6c634300080d0033",
  "immutableReferences": {
    "617": [
      {
        "length": 32,
        "start": 1782
      },
      {
        "length": 32,
        "start": 1924
      },
      {
        "length": 32,
        "start": 2393
      },
      {
        "length": 32,
        "start": 2535
      },
      {
        "length": 32,
        "start": 2711
      }
    ]
  },
  "source": "//SPDX-License-Identifier: Unlicense\npragma solidity >0.4.23 <0.9.0;\n\nimport \"@openzeppelin/contracts-upgradeable/proxy/utils/Initializable.sol\";\nimport \"@openzeppelin/contracts-upgradeable/proxy/utils/UUPSUpgradeable.sol\";\nimport \"@openzeppelin/contracts-upgradeable/access/OwnableUpgradeable.sol\";\nimport \"@openzeppelin/contracts-upgradeable/token/ERC20/extensions/ERC20BurnableUpgradeable.sol\";\nimport \"@openzeppelin/contracts-upgradeable/token/ERC20/extensions/ERC20PausableUpgradeable.sol\";\nimport \"@openzeppelin/contracts-upgradeable/token/ERC20/extensions/ERC20CappedUpgradeable.sol\";\nimport \"@openzeppelin/contracts-upgradeable/token/ERC20/ERC20Upgradeable.sol\";\nimport \"../core/staking.sol\";\n\n\n\ncontract StakingToken is Initializable, ContextUpgradeable, UUPSUpgradeable, OwnableUpgradeable, Staking,ERC20BurnableUpgradeable{\n\n    mapping(address => uint256) private _balances;\n\n    mapping(address => mapping(address => uint256)) private _allowances;\n\n    uint256 private _totalSupply;\n\n    string private _name;\n    string private _symbol;\n    address private _owner;\n\n    constructor() {}\n\n    function initialize(string memory __name, string memory __symbol, uint256 __supply) initializer public  {\n        __Context_init_unchained();\n        __ERC20_init_unchained(__name, __symbol);\n\n        __ERC20Burnable_init_unchained();\n        _owner = msg.sender;\n        _totalSupply = __supply * 10 ** decimals();\n\n    }\n\n\n\n\n\n\n    function stake(uint256 _amount) public {\n        // @notice Make sure staker actually is good for it\n        require(_amount < _balances[msg.sender], \"StakingToken: Cannot stake more than you own\");\n\n        _stake(_amount);\n        // @notice Burn the amount of tokens on the sender\n        _burn(msg.sender, _amount);\n    }\n\n    /**\n       * @notice withdrawStake is used to withdraw stakes from the account holder\n     */\n    function withdraw(uint256 _amount, uint256 stakeIndex) public {\n\n    uint256 amount_to_mint = Staking._withdrawStake(_amount, stakeIndex);\n        // Return staked tokens to user\n        _mint(msg.sender, amount_to_mint);\n    }\n\n    function _authorizeUpgrade(address) internal override view onlyOwner {\n\n    }\n\n}\n",
  "sourcePath": "/Users/nicolascloutier/GolandProjects/contracts/contracts/tokens/StakingToken.sol",
  "compiler": {
    "name": "solc",
    "version": "0.8.13+commit.abaa5c0e.Emscripten.clang"
  },
  "schemaVersion": "3.4.7",
  "updatedAt": "2022-05-01T15:59:39.747Z",
  "networkType": "ethereum",
  "devdoc": {
    "kind": "dev",
    "methods": {
      "allowance(address,address)": {
        "details": "See {IERC20-allowance}."
      },
      "approve(address,uint256)": {
        "details": "See {IERC20-approve}. NOTE: If `amount` is the maximum `uint256`, the allowance is not updated on `transferFrom`. This is semantically equivalent to an infinite approval. Requirements: - `spender` cannot be the zero address."
      },
      "balanceOf(address)": {
        "details": "See {IERC20-balanceOf}."
      },
      "burn(uint256)": {
        "details": "Destroys `amount` tokens from the caller. See {ERC20-_burn}."
      },
      "burnFrom(address,uint256)": {
        "details": "Destroys `amount` tokens from `account`, deducting from the caller's allowance. See {ERC20-_burn} and {ERC20-allowance}. Requirements: - the caller must have allowance for ``accounts``'s tokens of at least `amount`."
      },
      "decimals()": {
        "details": "Returns the number of decimals used to get its user representation. For example, if `decimals` equals `2`, a balance of `505` tokens should be displayed to a user as `5.05` (`505 / 10 ** 2`). Tokens usually opt for a value of 18, imitating the relationship between Ether and Wei. This is the value {ERC20} uses, unless this function is overridden; NOTE: This information is only used for _display_ purposes: it in no way affects any of the arithmetic of the contract, including {IERC20-balanceOf} and {IERC20-transfer}."
      },
      "decreaseAllowance(address,uint256)": {
        "details": "Atomically decreases the allowance granted to `spender` by the caller. This is an alternative to {approve} that can be used as a mitigation for problems described in {IERC20-approve}. Emits an {Approval} event indicating the updated allowance. Requirements: - `spender` cannot be the zero address. - `spender` must have allowance for the caller of at least `subtractedValue`."
      },
      "increaseAllowance(address,uint256)": {
        "details": "Atomically increases the allowance granted to `spender` by the caller. This is an alternative to {approve} that can be used as a mitigation for problems described in {IERC20-approve}. Emits an {Approval} event indicating the updated allowance. Requirements: - `spender` cannot be the zero address."
      },
      "name()": {
        "details": "Returns the name of the token."
      },
      "owner()": {
        "details": "Returns the address of the current owner."
      },
      "proxiableUUID()": {
        "details": "Implementation of the ERC1822 {proxiableUUID} function. This returns the storage slot used by the implementation. It is used to validate that the this implementation remains valid after an upgrade. IMPORTANT: A proxy pointing at a proxiable contract should not be considered proxiable itself, because this risks bricking a proxy that upgrades to it, by delegating to itself until out of gas. Thus it is critical that this function revert if invoked through a proxy. This is guaranteed by the `notDelegated` modifier."
      },
      "renounceOwnership()": {
        "details": "Leaves the contract without owner. It will not be possible to call `onlyOwner` functions anymore. Can only be called by the current owner. NOTE: Renouncing ownership will leave the contract without an owner, thereby removing any functionality that is only available to the owner."
      },
      "symbol()": {
        "details": "Returns the symbol of the token, usually a shorter version of the name."
      },
      "totalSupply()": {
        "details": "See {IERC20-totalSupply}."
      },
      "transfer(address,uint256)": {
        "details": "See {IERC20-transfer}. Requirements: - `to` cannot be the zero address. - the caller must have a balance of at least `amount`."
      },
      "transferFrom(address,address,uint256)": {
        "details": "See {IERC20-transferFrom}. Emits an {Approval} event indicating the updated allowance. This is not required by the EIP. See the note at the beginning of {ERC20}. NOTE: Does not update the allowance if the current allowance is the maximum `uint256`. Requirements: - `from` and `to` cannot be the zero address. - `from` must have a balance of at least `amount`. - the caller must have allowance for ``from``'s tokens of at least `amount`."
      },
      "transferOwnership(address)": {
        "details": "Transfers ownership of the contract to a new account (`newOwner`). Can only be called by the current owner."
      },
      "upgradeTo(address)": {
        "details": "Upgrade the implementation of the proxy to `newImplementation`. Calls {_authorizeUpgrade}. Emits an {Upgraded} event."
      },
      "upgradeToAndCall(address,bytes)": {
        "details": "Upgrade the implementation of the proxy to `newImplementation`, and subsequently execute the function call encoded in `data`. Calls {_authorizeUpgrade}. Emits an {Upgraded} event."
      }
    },
    "version": 1
  },
  "userdoc": {
    "events": {
      "Staked(address,uint256,uint256,uint256)": {
        "notice": "Staked event is triggered whenever a user stakes tokens, address is indexed to make it filterable"
      }
    },
    "kind": "user",
    "methods": {
      "hasStake(address)": {
        "notice": "hasStake is used to check if a account has stakes and the total amount along with all the seperate stakes"
      },
      "withdraw(uint256,uint256)": {
        "notice": "withdrawStake is used to withdraw stakes from the account holder"
      }
    },
    "version": 1
  }
}