{
  "contractName": "Staking",
  "abi": [
    {
      "inputs": [],
      "stateMutability": "nonpayable",
      "type": "constructor"
    },
    {
      "anonymous": false,
      "inputs": [
        {
          "indexed": true,
          "internalType": "address",
          "name": "user",
          "type": "address"
        },
        {
          "indexed": false,
          "internalType": "uint256",
          "name": "amount",
          "type": "uint256"
        },
        {
          "indexed": false,
          "internalType": "uint256",
          "name": "index",
          "type": "uint256"
        },
        {
          "indexed": false,
          "internalType": "uint256",
          "name": "timestamp",
          "type": "uint256"
        }
      ],
      "name": "Staked",
      "type": "event"
    },
    {
      "inputs": [],
      "name": "Stakeable",
      "outputs": [
        {
          "internalType": "bool",
          "name": "",
          "type": "bool"
        }
      ],
      "stateMutability": "view",
      "type": "function"
    },
    {
      "inputs": [],
      "name": "HasParent",
      "outputs": [
        {
          "internalType": "bool",
          "name": "",
          "type": "bool"
        }
      ],
      "stateMutability": "view",
      "type": "function"
    },
    {
      "inputs": [
        {
          "internalType": "address",
          "name": "_staker",
          "type": "address"
        }
      ],
      "name": "hasStake",
      "outputs": [
        {
          "components": [
            {
              "internalType": "uint256",
              "name": "total_amount",
              "type": "uint256"
            },
            {
              "components": [
                {
                  "internalType": "address",
                  "name": "account",
                  "type": "address"
                },
                {
                  "internalType": "uint256",
                  "name": "amount",
                  "type": "uint256"
                },
                {
                  "internalType": "uint256",
                  "name": "since",
                  "type": "uint256"
                },
                {
                  "internalType": "uint256",
                  "name": "commitmentSeconds",
                  "type": "uint256"
                },
                {
                  "internalType": "uint256",
                  "name": "commitmentExpiry",
                  "type": "uint256"
                },
                {
                  "internalType": "uint256",
                  "name": "commitedOn",
                  "type": "uint256"
                },
                {
                  "internalType": "uint256",
                  "name": "claimable",
                  "type": "uint256"
                }
              ],
              "internalType": "struct Staking.Stake[]",
              "name": "stakes",
              "type": "tuple[]"
            }
          ],
          "internalType": "struct Staking.StakingSummary",
          "name": "",
          "type": "tuple"
        }
      ],
      "stateMutability": "view",
      "type": "function"
    }
  ],
  "bytecode": "0x60806040526113886001556101f46002556101f46003556107d06004556201518060055534801561002f57600080fd5b506109858061003f6000396000f3fe608060405234801561001057600080fd5b50600436106100415760003560e01c8063906cda0b14610046578063b61463da14610064578063e73e14bf14610082575b600080fd5b61004e6100b2565b60405161005b919061053e565b60405180910390f35b61006c6100b7565b604051610079919061053e565b60405180910390f35b61009c600480360381019061009791906105bc565b6100c0565b6040516100a9919061078b565b60405180910390f35b600090565b60006001905090565b6100c8610509565b6000806040518060400160405280600081526020016006600760008873ffffffffffffffffffffffffffffffffffffffff1673ffffffffffffffffffffffffffffffffffffffff16815260200190815260200160002054815481106101305761012f6107ad565b5b9060005260206000209060020201600101805480602002602001604051908101604052809291908181526020016000905b8282101561022557838290600052602060002090600702016040518060e00160405290816000820160009054906101000a900473ffffffffffffffffffffffffffffffffffffffff1673ffffffffffffffffffffffffffffffffffffffff1673ffffffffffffffffffffffffffffffffffffffff168152602001600182015481526020016002820154815260200160038201548152602001600482015481526020016005820154815260200160068201548152505081526020019060010190610161565b50505050815250905060005b8160200151518110156102d65760006102678360200151838151811061025a576102596107ad565b5b60200260200101516102eb565b90508083602001518381518110610281576102806107ad565b5b602002602001015160c0018181525050826020015182815181106102a8576102a76107ad565b5b602002602001015160200151846102bf919061080b565b9350506001816102cf919061080b565b9050610231565b50818160000181815250508092505050919050565b60006102f68261033f565b8015610306575060008260600151115b1561031b576103148261035f565b905061033a565b610324826103a1565b61032d836104c7565b6103379190610861565b90505b919050565b600081608001514211610355576000905061035a565b600190505b919050565b60006004548260200151610e1084604001514261037c9190610861565b61038691906108c4565b61039091906108f5565b61039a91906108c4565b9050919050565b60006103ac8261033f565b80156103bc575060008260600151115b80156103d95750426201518083604001516103d7919061080b565b105b1561041e576003548260200151610e108460400151426103f99190610861565b61040391906108c4565b61040d91906108f5565b61041791906108c4565b90506104c2565b6104278261033f565b158015610438575060008260600151115b8015610455575042620151808360400151610453919061080b565b115b1561046357600090506104c2565b42620151808360400151610477919061080b565b10156104bd576003548260200151610e108460400151426104989190610861565b6104a291906108c4565b6104ac91906108f5565b6104b691906108c4565b90506104c2565b600090505b919050565b60006001548260200151610e108460400151426104e49190610861565b6104ee91906108c4565b6104f891906108f5565b61050291906108c4565b9050919050565b604051806040016040528060008152602001606081525090565b60008115159050919050565b61053881610523565b82525050565b6000602082019050610553600083018461052f565b92915050565b600080fd5b600073ffffffffffffffffffffffffffffffffffffffff82169050919050565b60006105898261055e565b9050919050565b6105998161057e565b81146105a457600080fd5b50565b6000813590506105b681610590565b92915050565b6000602082840312156105d2576105d1610559565b5b60006105e0848285016105a7565b91505092915050565b6000819050919050565b6105fc816105e9565b82525050565b600081519050919050565b600082825260208201905092915050565b6000819050602082019050919050565b6106378161057e565b82525050565b60e082016000820151610653600085018261062e565b50602082015161066660208501826105f3565b50604082015161067960408501826105f3565b50606082015161068c60608501826105f3565b50608082015161069f60808501826105f3565b5060a08201516106b260a08501826105f3565b5060c08201516106c560c08501826105f3565b50505050565b60006106d7838361063d565b60e08301905092915050565b6000602082019050919050565b60006106fb82610602565b610705818561060d565b93506107108361061e565b8060005b8381101561074157815161072888826106cb565b9750610733836106e3565b925050600181019050610714565b5085935050505092915050565b600060408301600083015161076660008601826105f3565b506020830151848203602086015261077e82826106f0565b9150508091505092915050565b600060208201905081810360008301526107a5818461074e565b905092915050565b7f4e487b7100000000000000000000000000000000000000000000000000000000600052603260045260246000fd5b7f4e487b7100000000000000000000000000000000000000000000000000000000600052601160045260246000fd5b6000610816826105e9565b9150610821836105e9565b9250827fffffffffffffffffffffffffffffffffffffffffffffffffffffffffffffffff03821115610856576108556107dc565b5b828201905092915050565b600061086c826105e9565b9150610877836105e9565b92508282101561088a576108896107dc565b5b828203905092915050565b7f4e487b7100000000000000000000000000000000000000000000000000000000600052601260045260246000fd5b60006108cf826105e9565b91506108da836105e9565b9250826108ea576108e9610895565b5b828204905092915050565b6000610900826105e9565b915061090b836105e9565b9250817fffffffffffffffffffffffffffffffffffffffffffffffffffffffffffffffff0483118215151615610944576109436107dc565b5b82820290509291505056fea26469706673582212204b3b5101c7177e69bdbe0ff1cf769ab2b8a5ad91c2e20ae772b02fc66f315fbc64736f6c634300080d0033",
  "immutableReferences": {},
  "source": "//SPDX-License-Identifier: Unlicense\npragma solidity >0.4.23 <0.9.0;\n\nimport \"@openzeppelin/contracts/access/Ownable.sol\";\nimport \"@openzeppelin/contracts/utils/math/SafeMath.sol\";\nimport \"./interfaces/IStakeable.sol\";\n\ncontract Staking {\n\n    using SafeMath for uint256;\n\n    address _baseStakingToken;\n    /// @notice equivalent to 0.5% per hour\n    uint256 internal rewardPerHour = 5000;\n    /// @notice reward will increment by 0.05% per day staked\n    uint256 internal rewardIncrementsPerDay = 500;\n\n    /// @notice a small penalty of 0.05% (one day) will happen if withdrawn before 24h or before commitment expires\n    /// @notice to help prevent bot impact on the stakes\n    uint256 internal rewardPenaltyPerWithdraw = 500;\n\n    /// @notice if user is commiting to a minimum of days to stake it will get a bonus of 0.2% per hour\n    uint256 internal commitmentBonusIncentive = 2000;\n\n    /// @notice if less than treshold = penalty if more = no penalty\n    uint256 internal rewardPenaltyThresholdSeconds = 3600 * 24;\n\n    /// @notice struct Stake to hold stake information\n    struct Stake {\n        address account;\n        uint256 amount;\n        uint256 since;\n        /// a user needs to commit to a minimum of days (calculated in seconds) for his staking cannot be less than 1\n        uint256 commitmentSeconds;\n        /// @notice when the commitment expires\n        uint256 commitmentExpiry;\n        uint256 commitedOn;\n        uint256 claimable;\n    }\n\n    /// @notice struct StakeHolder is stakeholder information\n\n    struct StakeHolder {\n        address account;\n        Stake[] address_stakes;\n    }\n\n    /**\n   * @notice\n     * StakingSummary is a struct that is used to contain all stakes performed by a certain account\n     */\n    struct StakingSummary{\n        uint256 total_amount;\n        Stake[] stakes;\n    }\n\n    /**\n   * @notice\n    *   This is a array where we store all Stakes that are performed on the Contract\n    *   The stakes for each address are stored at a certain index, the index can be found using the stakes mapping\n    */\n    StakeHolder[] internal stakeholders;\n    /**\n    * @notice\n    * stakes is used to keep track of the INDEX for the stakers in the stakes array\n     */\n    mapping(address => uint256) internal stakes;\n    /**\n    * @notice Staked event is triggered whenever a user stakes tokens, address is indexed to make it filterable\n     */\n    event Staked(address indexed user, uint256 amount, uint256 index, uint256 timestamp);\n\n    /**\n   * @notice _addStakeholder takes care of adding a stakeholder to the stakeholders array\n     */\n\n   constructor() {}\n\n\n    function _addStakeholder(address staker) internal returns (uint256){\n        // @notice Push a empty item to the Array to make space for our new stakeholder\n        stakeholders.push();\n        // @notice Calculate the index of the last item in the array by Len-1\n        uint256 userIndex = stakeholders.length - 1;\n        // @notice Assign the address to the new index\n        stakeholders[userIndex].account = staker;\n        // @notice Add index to the stakeHolders\n        stakes[staker] = userIndex;\n        return userIndex;\n    }\n\n    function Stakeable() public view virtual returns(bool) {\n        return true;\n    }\n\n\n    function _stake(uint256 _amount) internal{\n        // Simple check so that user does not stake 0\n        require(_amount > 0, \"Cannot stake nothing\");\n\n\n        // @notice Mappings in solidity creates all values, but empty, so we can just check the address\n        uint256 index = stakes[msg.sender];\n        // @notice block.timestamp = timestamp of the current block in seconds since the epoch\n        uint256 timestamp = block.timestamp;\n        // @notice See if the staker already has a staked index or if its the first time\n        if(index == 0){\n            // This stakeholder stakes for the first time\n            // We need to add him to the stakeHolders and also map it into the Index of the stakes\n            // The index returned will be the index of the stakeholder in the stakeholders array\n            index = _addStakeholder(msg.sender);\n        }\n\n\n\n        // @notice Use the index to push a new Stakes\n        // @notice push a newly created Stake with the current block timestamp.\n        stakeholders[index].address_stakes.push(Stake(msg.sender, _amount, timestamp,0,0,0,0));\n\n        // Emit an event that the stake has occured\n        emit Staked(msg.sender, _amount, index,timestamp);\n    }\n\n    function _beforeStake(address token, address to, uint256 amount) internal virtual {\n\n    }\n\n    function _afterStake(address  token, address to, uint256 amount) internal virtual {\n\n    }\n\n    function HasParent() external view virtual returns(bool) {\n        return false;\n    }\n\n\n    modifier onlyStaker(uint256 stakeIndex) {\n        require(msg.sender == stakeholders[stakeIndex].account, \"does not own this stake\");\n        _;\n    }\n\n    function _calculateStakeRewards(Stake memory currentStake) internal view returns(uint256) {\n        return (((block.timestamp - currentStake.since) / 1 hours) * currentStake.amount) / rewardPerHour;\n    }\n\n    function _calculateCommitmentBonus(Stake memory current_stake) internal view returns(uint256) {\n        return (((block.timestamp - current_stake.since) / 1 hours) * current_stake.amount) / commitmentBonusIncentive;\n    }\n\n    function commitmentNotExpired(Stake memory currentStake) internal view returns(bool) {\n\n        if(block.timestamp <= currentStake.commitmentExpiry) return false;\n\n        return true;\n    }\n\n    function calculateRewards(Stake memory currentStake) internal view returns(uint256) {\n        if (commitmentNotExpired(currentStake) && currentStake.commitmentSeconds > 0) {\n            return _calculateCommitmentBonus(currentStake);\n        }\n\n        return _calculateStakeRewards(currentStake) - _calculatePenalties(currentStake);\n    }\n\n\n    /// @notice calculates penalties\n    /// rules are (OR) :\n    /// - if user commited, commitment is not respected (not expired)\n    /// - if user stakes less than 24 hours ago and withdraw\n    function _calculatePenalties(Stake memory current_stake) internal view returns(uint256) {\n        if (commitmentNotExpired(current_stake) && current_stake.commitmentSeconds > 0 && ((current_stake.since + (24 * 1 hours)) < block.timestamp)) {\n            return (((block.timestamp - current_stake.since) / 1 hours) * current_stake.amount) / rewardPenaltyPerWithdraw;\n        }\n        if(!commitmentNotExpired(current_stake) && current_stake.commitmentSeconds > 0 && ((current_stake.since + (24 * 1 hours)) > block.timestamp)) {\n            return 0;\n        }\n        if ((current_stake.since + (24 * 1 hours)) < block.timestamp) {\n            return (((block.timestamp - current_stake.since) / 1 hours) * current_stake.amount) / rewardPenaltyPerWithdraw;\n        }\n\n        return 0;\n    }\n\n    /**\n    * @notice\n     * hasStake is used to check if a account has stakes and the total amount along with all the seperate stakes\n     */\n    function hasStake(address _staker) public view returns(StakingSummary memory){\n        // totalStakeAmount is used to count total staked amount of the address\n        uint256 totalStakeAmount;\n        // Keep a summary in memory since we need to calculate this\n        StakingSummary memory summary = StakingSummary(0, stakeholders[stakes[_staker]].address_stakes);\n        // Itterate all stakes and grab amount of stakes\n        for (uint256 s = 0; s < summary.stakes.length; s += 1){\n            uint256 availableReward = calculateRewards(summary.stakes[s]);\n            summary.stakes[s].claimable = availableReward;\n            totalStakeAmount = totalStakeAmount+summary.stakes[s].amount;\n        }\n        // Assign calculate amount to summary\n        summary.total_amount = totalStakeAmount;\n        return summary;\n    }\n\n    /**\n    * @notice\n     * withdrawStake takes in an amount and a index of the stake and will remove tokens from that stake\n     * Notice index of the stake is the users stake counter, starting at 0 for the first stake\n     * Will return the amount to MINT onto the acount\n     * Will also calculateStakeReward and reset timer\n    */\n    function _withdrawStake(uint256 amount, uint256 index) internal returns(uint256){\n        // Grab user_index which is the index to use to grab the Stake[]\n        uint256 user_index = stakes[msg.sender];\n        Stake memory current_stake = stakeholders[user_index].address_stakes[index];\n        require(current_stake.amount >= amount, \"Staking: Cannot withdraw more than you have staked\");\n\n        // Calculate available Reward first before we start modifying data\n        uint256 reward = calculateRewards(current_stake);\n        // Remove by subtracting the money unstaked\n        current_stake.amount = current_stake.amount - amount;\n        // If stake is empty, 0, then remove it from the array of stakes\n        if(current_stake.amount == 0){\n            delete stakeholders[user_index].address_stakes[index];\n        }else {\n            // If not empty then replace the value of it\n            stakeholders[user_index].address_stakes[index].amount = current_stake.amount;\n            // Reset timer of stake\n            stakeholders[user_index].address_stakes[index].since = block.timestamp;\n        }\n\n        return amount+reward;\n\n    }\n}\n",
  "sourcePath": "/Users/nicolascloutier/GolandProjects/contracts/contracts/core/staking.sol",
  "compiler": {
    "name": "solc",
    "version": "0.8.13+commit.abaa5c0e.Emscripten.clang"
  },
  "schemaVersion": "3.4.7",
  "updatedAt": "2022-05-01T15:48:00.334Z",
  "devdoc": {
    "kind": "dev",
    "methods": {},
    "version": 1
  },
  "userdoc": {
    "events": {
      "Staked(address,uint256,uint256,uint256)": {
        "notice": "Staked event is triggered whenever a user stakes tokens, address is indexed to make it filterable"
      }
    },
    "kind": "user",
    "methods": {
      "constructor": {
        "notice": "_addStakeholder takes care of adding a stakeholder to the stakeholders array"
      },
      "hasStake(address)": {
        "notice": "hasStake is used to check if a account has stakes and the total amount along with all the seperate stakes"
      }
    },
    "version": 1
  }
}