{
  "contractName": "UniswapAkapzSwap",
  "abi": [
    {
      "inputs": [
        {
          "internalType": "contract ISwapRouter",
          "name": "_swapRouter",
          "type": "address"
        },
        {
          "internalType": "address",
          "name": "akapzAddress",
          "type": "address"
        }
      ],
      "stateMutability": "nonpayable",
      "type": "constructor"
    },
    {
      "inputs": [],
      "name": "AKAPZ",
      "outputs": [
        {
          "internalType": "address",
          "name": "",
          "type": "address"
        }
      ],
      "stateMutability": "view",
      "type": "function"
    },
    {
      "inputs": [],
      "name": "USDC",
      "outputs": [
        {
          "internalType": "address",
          "name": "",
          "type": "address"
        }
      ],
      "stateMutability": "view",
      "type": "function"
    },
    {
      "inputs": [],
      "name": "WMATIC",
      "outputs": [
        {
          "internalType": "address",
          "name": "",
          "type": "address"
        }
      ],
      "stateMutability": "view",
      "type": "function"
    },
    {
      "inputs": [],
      "name": "poolFee",
      "outputs": [
        {
          "internalType": "uint24",
          "name": "",
          "type": "uint24"
        }
      ],
      "stateMutability": "view",
      "type": "function"
    },
    {
      "inputs": [],
      "name": "swapRouter",
      "outputs": [
        {
          "internalType": "contract ISwapRouter",
          "name": "",
          "type": "address"
        }
      ],
      "stateMutability": "view",
      "type": "function"
    },
    {
      "inputs": [
        {
          "internalType": "uint256",
          "name": "amountIn",
          "type": "uint256"
        }
      ],
      "name": "swapExactInputSingle",
      "outputs": [
        {
          "internalType": "uint256",
          "name": "amountOut",
          "type": "uint256"
        }
      ],
      "stateMutability": "nonpayable",
      "type": "function"
    },
    {
      "inputs": [
        {
          "internalType": "uint256",
          "name": "amountOut",
          "type": "uint256"
        },
        {
          "internalType": "uint256",
          "name": "amountInMaximum",
          "type": "uint256"
        }
      ],
      "name": "swapExactOutputSingle",
      "outputs": [
        {
          "internalType": "uint256",
          "name": "amountIn",
          "type": "uint256"
        }
      ],
      "stateMutability": "nonpayable",
      "type": "function"
    },
    {
      "inputs": [
        {
          "internalType": "uint256",
          "name": "amountIn",
          "type": "uint256"
        }
      ],
      "name": "swapExactInputMultihop",
      "outputs": [
        {
          "internalType": "uint256",
          "name": "amountOut",
          "type": "uint256"
        }
      ],
      "stateMutability": "nonpayable",
      "type": "function"
    },
    {
      "inputs": [
        {
          "internalType": "uint256",
          "name": "amountOut",
          "type": "uint256"
        },
        {
          "internalType": "uint256",
          "name": "amountInMaximum",
          "type": "uint256"
        }
      ],
      "name": "swapExactOutputMultihop",
      "outputs": [
        {
          "internalType": "uint256",
          "name": "amountIn",
          "type": "uint256"
        }
      ],
      "stateMutability": "nonpayable",
      "type": "function"
    }
  ],
  "bytecode": "0x60a06040523480156200001157600080fd5b5060405162001a0b38038062001a0b833981810160405281019062000037919062000162565b8173ffffffffffffffffffffffffffffffffffffffff1660808173ffffffffffffffffffffffffffffffffffffffff1681525050806000806101000a81548173ffffffffffffffffffffffffffffffffffffffff021916908373ffffffffffffffffffffffffffffffffffffffff1602179055505050620001a9565b600080fd5b600073ffffffffffffffffffffffffffffffffffffffff82169050919050565b6000620000e582620000b8565b9050919050565b6000620000f982620000d8565b9050919050565b6200010b81620000ec565b81146200011757600080fd5b50565b6000815190506200012b8162000100565b92915050565b6200013c81620000d8565b81146200014857600080fd5b50565b6000815190506200015c8162000131565b92915050565b600080604083850312156200017c576200017b620000b3565b5b60006200018c858286016200011a565b92505060206200019f858286016200014b565b9150509250929050565b6080516118006200020b600039600081816102300152818161030b015281816103c901528181610476015281816105700152818161062c0152818161068a0152818161078301528181610841015281816108f901526109d501526118006000f3fe608060405234801561001057600080fd5b50600436106100935760003560e01c806389a302711161006657806389a3027114610134578063c31c9c0714610152578063c4b69a1814610170578063d49e20d6146101a0578063edd83557146101be57610093565b8063089fe6aa146100985780633b85cf6a146100b65780634d95cad9146100e657806373bd43ad14610104575b600080fd5b6100a06101ee565b6040516100ad9190610e97565b60405180910390f35b6100d060048036038101906100cb9190610eed565b6101f4565b6040516100dd9190610f3c565b60405180910390f35b6100ee610422565b6040516100fb9190610f98565b60405180910390f35b61011e60048036038101906101199190610fb3565b61043a565b60405161012b9190610f3c565b60405180910390f35b61013c610612565b6040516101499190610f98565b60405180910390f35b61015a61062a565b604051610167919061103f565b60405180910390f35b61018a60048036038101906101859190610eed565b61064e565b6040516101979190610f3c565b60405180910390f35b6101a8610899565b6040516101b59190610f98565b60405180910390f35b6101d860048036038101906101d39190610fb3565b6108bd565b6040516101e59190610f3c565b60405180910390f35b61138881565b6000610216739c3c9283d3e44854697cd22d3faa240cfb032889333085610a77565b610255739c3c9283d3e44854697cd22d3faa240cfb0328897f000000000000000000000000000000000000000000000000000000000000000084610bcf565b60006040518060a0016040528060008054906101000a900473ffffffffffffffffffffffffffffffffffffffff1661138873a0b86991c6218b36c1d19d4a2e9eb0ce3606eb48611388739c3c9283d3e44854697cd22d3faa240cfb0328896040516020016102c79594939291906110d8565b60405160208183030381529060405281526020013373ffffffffffffffffffffffffffffffffffffffff1681526020014281526020018581526020018481525090507f000000000000000000000000000000000000000000000000000000000000000073ffffffffffffffffffffffffffffffffffffffff1663f28c0498826040518263ffffffff1660e01b81526004016103629190611264565b6020604051808303816000875af1158015610381573d6000803e3d6000fd5b505050506040513d601f19601f820116820180604052508101906103a5919061129b565b91508282101561041b576103ef739c3c9283d3e44854697cd22d3faa240cfb0328897f00000000000000000000000000000000000000000000000000000000000000006000610bcf565b61041a739c3c9283d3e44854697cd22d3faa240cfb0328893033858761041591906112f7565b610a77565b5b5092915050565b739c3c9283d3e44854697cd22d3faa240cfb03288981565b600061045c739c3c9283d3e44854697cd22d3faa240cfb032889333085610a77565b61049b739c3c9283d3e44854697cd22d3faa240cfb0328897f000000000000000000000000000000000000000000000000000000000000000084610bcf565b6000604051806101000160405280739c3c9283d3e44854697cd22d3faa240cfb03288973ffffffffffffffffffffffffffffffffffffffff16815260200160008054906101000a900473ffffffffffffffffffffffffffffffffffffffff1673ffffffffffffffffffffffffffffffffffffffff16815260200161138862ffffff1681526020013373ffffffffffffffffffffffffffffffffffffffff16815260200142815260200184815260200160008152602001600073ffffffffffffffffffffffffffffffffffffffff1681525090507f000000000000000000000000000000000000000000000000000000000000000073ffffffffffffffffffffffffffffffffffffffff1663414bf389826040518263ffffffff1660e01b81526004016105c791906113eb565b6020604051808303816000875af11580156105e6573d6000803e3d6000fd5b505050506040513d601f19601f8201168201806040525081019061060a919061129b565b915050919050565b73a0b86991c6218b36c1d19d4a2e9eb0ce3606eb4881565b7f000000000000000000000000000000000000000000000000000000000000000081565b6000610670739c3c9283d3e44854697cd22d3faa240cfb032889333085610a77565b6106af739c3c9283d3e44854697cd22d3faa240cfb0328897f000000000000000000000000000000000000000000000000000000000000000084610bcf565b6000604051806101000160405280739c3c9283d3e44854697cd22d3faa240cfb03288973ffffffffffffffffffffffffffffffffffffffff16815260200160008054906101000a900473ffffffffffffffffffffffffffffffffffffffff1673ffffffffffffffffffffffffffffffffffffffff16815260200161138862ffffff1681526020013373ffffffffffffffffffffffffffffffffffffffff168152602001428152602001858152602001848152602001600073ffffffffffffffffffffffffffffffffffffffff1681525090507f000000000000000000000000000000000000000000000000000000000000000073ffffffffffffffffffffffffffffffffffffffff1663db3e2198826040518263ffffffff1660e01b81526004016107da91906114a9565b6020604051808303816000875af11580156107f9573d6000803e3d6000fd5b505050506040513d601f19601f8201168201806040525081019061081d919061129b565b91508282101561089257610867739c3c9283d3e44854697cd22d3faa240cfb0328897f00000000000000000000000000000000000000000000000000000000000000006000610bcf565b610891739c3c9283d3e44854697cd22d3faa240cfb03288933848661088c91906112f7565b610d24565b5b5092915050565b60008054906101000a900473ffffffffffffffffffffffffffffffffffffffff1681565b60006108df739c3c9283d3e44854697cd22d3faa240cfb032889333085610a77565b61091e739c3c9283d3e44854697cd22d3faa240cfb0328897f000000000000000000000000000000000000000000000000000000000000000084610bcf565b60006040518060a00160405280739c3c9283d3e44854697cd22d3faa240cfb03288961138873a0b86991c6218b36c1d19d4a2e9eb0ce3606eb4861138860008054906101000a900473ffffffffffffffffffffffffffffffffffffffff166040516020016109909594939291906110d8565b60405160208183030381529060405281526020013373ffffffffffffffffffffffffffffffffffffffff168152602001428152602001848152602001600081525090507f000000000000000000000000000000000000000000000000000000000000000073ffffffffffffffffffffffffffffffffffffffff1663c04b8d59826040518263ffffffff1660e01b8152600401610a2c919061153b565b6020604051808303816000875af1158015610a4b573d6000803e3d6000fd5b505050506040513d601f19601f82011682018060405250810190610a6f919061129b565b915050919050565b6000808573ffffffffffffffffffffffffffffffffffffffff166323b872dd60e01b868686604051602401610aae9392919061155d565b604051602081830303815290604052907bffffffffffffffffffffffffffffffffffffffffffffffffffffffff19166020820180517bffffffffffffffffffffffffffffffffffffffffffffffffffffffff8381831617835250505050604051610b1891906115d0565b6000604051808303816000865af19150503d8060008114610b55576040519150601f19603f3d011682016040523d82523d6000602084013e610b5a565b606091505b5091509150818015610b885750600081511480610b87575080806020019051810190610b86919061161f565b5b5b610bc7576040517f08c379a0000000000000000000000000000000000000000000000000000000008152600401610bbe906116a9565b60405180910390fd5b505050505050565b6000808473ffffffffffffffffffffffffffffffffffffffff1663095ea7b360e01b8585604051602401610c049291906116c9565b604051602081830303815290604052907bffffffffffffffffffffffffffffffffffffffffffffffffffffffff19166020820180517bffffffffffffffffffffffffffffffffffffffffffffffffffffffff8381831617835250505050604051610c6e91906115d0565b6000604051808303816000865af19150503d8060008114610cab576040519150601f19603f3d011682016040523d82523d6000602084013e610cb0565b606091505b5091509150818015610cde5750600081511480610cdd575080806020019051810190610cdc919061161f565b5b5b610d1d576040517f08c379a0000000000000000000000000000000000000000000000000000000008152600401610d149061173e565b60405180910390fd5b5050505050565b6000808473ffffffffffffffffffffffffffffffffffffffff1663a9059cbb60e01b8585604051602401610d599291906116c9565b604051602081830303815290604052907bffffffffffffffffffffffffffffffffffffffffffffffffffffffff19166020820180517bffffffffffffffffffffffffffffffffffffffffffffffffffffffff8381831617835250505050604051610dc391906115d0565b6000604051808303816000865af19150503d8060008114610e00576040519150601f19603f3d011682016040523d82523d6000602084013e610e05565b606091505b5091509150818015610e335750600081511480610e32575080806020019051810190610e31919061161f565b5b5b610e72576040517f08c379a0000000000000000000000000000000000000000000000000000000008152600401610e69906117aa565b60405180910390fd5b5050505050565b600062ffffff82169050919050565b610e9181610e79565b82525050565b6000602082019050610eac6000830184610e88565b92915050565b600080fd5b6000819050919050565b610eca81610eb7565b8114610ed557600080fd5b50565b600081359050610ee781610ec1565b92915050565b60008060408385031215610f0457610f03610eb2565b5b6000610f1285828601610ed8565b9250506020610f2385828601610ed8565b9150509250929050565b610f3681610eb7565b82525050565b6000602082019050610f516000830184610f2d565b92915050565b600073ffffffffffffffffffffffffffffffffffffffff82169050919050565b6000610f8282610f57565b9050919050565b610f9281610f77565b82525050565b6000602082019050610fad6000830184610f89565b92915050565b600060208284031215610fc957610fc8610eb2565b5b6000610fd784828501610ed8565b91505092915050565b6000819050919050565b6000611005611000610ffb84610f57565b610fe0565b610f57565b9050919050565b600061101782610fea565b9050919050565b60006110298261100c565b9050919050565b6110398161101e565b82525050565b60006020820190506110546000830184611030565b92915050565b60008160601b9050919050565b60006110728261105a565b9050919050565b600061108482611067565b9050919050565b61109c61109782610f77565b611079565b82525050565b60008160e81b9050919050565b60006110ba826110a2565b9050919050565b6110d26110cd82610e79565b6110af565b82525050565b60006110e4828861108b565b6014820191506110f482876110c1565b600382019150611104828661108b565b60148201915061111482856110c1565b600382019150611124828461108b565b6014820191508190509695505050505050565b600081519050919050565b600082825260208201905092915050565b60005b83811015611171578082015181840152602081019050611156565b83811115611180576000848401525b50505050565b6000601f19601f8301169050919050565b60006111a282611137565b6111ac8185611142565b93506111bc818560208601611153565b6111c581611186565b840191505092915050565b6111d981610f77565b82525050565b6111e881610eb7565b82525050565b600060a083016000830151848203600086015261120b8282611197565b915050602083015161122060208601826111d0565b50604083015161123360408601826111df565b50606083015161124660608601826111df565b50608083015161125960808601826111df565b508091505092915050565b6000602082019050818103600083015261127e81846111ee565b905092915050565b60008151905061129581610ec1565b92915050565b6000602082840312156112b1576112b0610eb2565b5b60006112bf84828501611286565b91505092915050565b7f4e487b7100000000000000000000000000000000000000000000000000000000600052601160045260246000fd5b600061130282610eb7565b915061130d83610eb7565b9250828210156113205761131f6112c8565b5b828203905092915050565b61133481610e79565b82525050565b61134381610f57565b82525050565b6101008201600082015161136060008501826111d0565b50602082015161137360208501826111d0565b506040820151611386604085018261132b565b50606082015161139960608501826111d0565b5060808201516113ac60808501826111df565b5060a08201516113bf60a08501826111df565b5060c08201516113d260c08501826111df565b5060e08201516113e560e085018261133a565b50505050565b6000610100820190506114016000830184611349565b92915050565b6101008201600082015161141e60008501826111d0565b50602082015161143160208501826111d0565b506040820151611444604085018261132b565b50606082015161145760608501826111d0565b50608082015161146a60808501826111df565b5060a082015161147d60a08501826111df565b5060c082015161149060c08501826111df565b5060e08201516114a360e085018261133a565b50505050565b6000610100820190506114bf6000830184611407565b92915050565b600060a08301600083015184820360008601526114e28282611197565b91505060208301516114f760208601826111d0565b50604083015161150a60408601826111df565b50606083015161151d60608601826111df565b50608083015161153060808601826111df565b508091505092915050565b6000602082019050818103600083015261155581846114c5565b905092915050565b60006060820190506115726000830186610f89565b61157f6020830185610f89565b61158c6040830184610f2d565b949350505050565b600081905092915050565b60006115aa82611137565b6115b48185611594565b93506115c4818560208601611153565b80840191505092915050565b60006115dc828461159f565b915081905092915050565b60008115159050919050565b6115fc816115e7565b811461160757600080fd5b50565b600081519050611619816115f3565b92915050565b60006020828403121561163557611634610eb2565b5b60006116438482850161160a565b91505092915050565b600082825260208201905092915050565b7f5354460000000000000000000000000000000000000000000000000000000000600082015250565b600061169360038361164c565b915061169e8261165d565b602082019050919050565b600060208201905081810360008301526116c281611686565b9050919050565b60006040820190506116de6000830185610f89565b6116eb6020830184610f2d565b9392505050565b7f5341000000000000000000000000000000000000000000000000000000000000600082015250565b600061172860028361164c565b9150611733826116f2565b602082019050919050565b600060208201905081810360008301526117578161171b565b9050919050565b7f5354000000000000000000000000000000000000000000000000000000000000600082015250565b600061179460028361164c565b915061179f8261175e565b602082019050919050565b600060208201905081810360008301526117c381611787565b905091905056fea264697066735822122005d5c7b78d176c619fedfd80436b88769dc76a42b0b12e2b41c64e47bab50c1c64736f6c634300080d0033",
  "immutableReferences": {
    "9639": [
      {
        "length": 32,
        "start": 560
      },
      {
        "length": 32,
        "start": 779
      },
      {
        "length": 32,
        "start": 969
      },
      {
        "length": 32,
        "start": 1142
      },
      {
        "length": 32,
        "start": 1392
      },
      {
        "length": 32,
        "start": 1580
      },
      {
        "length": 32,
        "start": 1674
      },
      {
        "length": 32,
        "start": 1923
      },
      {
        "length": 32,
        "start": 2113
      },
      {
        "length": 32,
        "start": 2297
      },
      {
        "length": 32,
        "start": 2517
      }
    ]
  },
  "source": "// SPDX-License-Identifier: MIT\npragma solidity ^0.8.1;\nimport \"@uniswap/v3-periphery/contracts/interfaces/ISwapRouter.sol\";\nimport \"@uniswap/v3-periphery/contracts/libraries/TransferHelper.sol\";\ncontract UniswapAkapzSwap {\n\n\n    address public constant WMATIC = 0x9c3C9283D3e44854697Cd22D3Faa240Cfb032889;\n    address public constant USDC = 0xA0b86991c6218b36c1d19D4a2e9Eb0cE3606eB48;\n    address public  AKAPZ;\n    ISwapRouter public immutable swapRouter;\n    uint24 public constant poolFee = 5000; // 0.5%\n    constructor(ISwapRouter _swapRouter, address akapzAddress) {\n        swapRouter = _swapRouter;\n        AKAPZ = akapzAddress;\n    }\n\n     function swapExactInputSingle(uint256 amountIn) external returns (uint256 amountOut) {\n        // msg.sender must approve this contract\n\n        // Transfer the specified amount of WMATIC to this contract.\n        TransferHelper.safeTransferFrom(WMATIC, msg.sender, address(this), amountIn);\n\n        // Approve the router to spend WMATIC.\n        TransferHelper.safeApprove(WMATIC, address(swapRouter), amountIn);\n        ISwapRouter.ExactInputSingleParams memory params =\n            ISwapRouter.ExactInputSingleParams({\n                tokenIn: WMATIC,\n                tokenOut: AKAPZ,\n                fee: poolFee,\n                recipient: msg.sender,\n                deadline: block.timestamp,\n                amountIn: amountIn,\n                amountOutMinimum: 0,\n                sqrtPriceLimitX96: 0\n            });\n\n        // The call to `exactInputSingle` executes the swap.\n        amountOut = swapRouter.exactInputSingle(params);\n     }\n\n      function swapExactOutputSingle(uint256 amountOut, uint256 amountInMaximum) external returns (uint256 amountIn) {\n        // Transfer the specified amount of WMATIC to this contract.\n        TransferHelper.safeTransferFrom(WMATIC, msg.sender, address(this), amountInMaximum);\n\n        // Approve the router to spend the specifed `amountInMaximum` of WMATIC.\n        // In production, you should choose the maximum amount to spend based on oracles or other data sources to acheive a better swap.\n        TransferHelper.safeApprove(WMATIC, address(swapRouter), amountInMaximum);\n\n        ISwapRouter.ExactOutputSingleParams memory params =\n            ISwapRouter.ExactOutputSingleParams({\n                tokenIn: WMATIC,\n                tokenOut: AKAPZ,\n                fee: poolFee,\n                recipient: msg.sender,\n                deadline: block.timestamp,\n                amountOut: amountOut,\n                amountInMaximum: amountInMaximum,\n                sqrtPriceLimitX96: 0\n            });\n\n        // Executes the swap returning the amountIn needed to spend to receive the desired amountOut.\n        amountIn = swapRouter.exactOutputSingle(params);\n\n        // For exact output swaps, the amountInMaximum may not have all been spent.\n        // If the actual amount spent (amountIn) is less than the specified maximum amount, we must refund the msg.sender and approve the swapRouter to spend 0.\n        if (amountIn < amountInMaximum) {\n            TransferHelper.safeApprove(WMATIC, address(swapRouter), 0);\n            TransferHelper.safeTransfer(WMATIC, msg.sender, amountInMaximum - amountIn);\n        }\n    }\n\n function swapExactInputMultihop(uint256 amountIn) external returns (uint256 amountOut) {\n        // Transfer `amountIn` of WMATIC to this contract.\n        TransferHelper.safeTransferFrom(WMATIC, msg.sender, address(this), amountIn);\n\n        // Approve the router to spend WMATIC.\n        TransferHelper.safeApprove(WMATIC, address(swapRouter), amountIn);\n\n        // Multiple pool swaps are encoded through bytes called a `path`. A path is a sequence of token addresses and poolFees that define the pools used in the swaps.\n        // The format for pool encoding is (tokenIn, fee, tokenOut/tokenIn, fee, tokenOut) where tokenIn/tokenOut parameter is the shared token across the pools.\n        // Since we are swapping WMATIC to USDC and then USDC to WETH9 the path encoding is (WMATIC, 0.3%, USDC, 0.3%, WETH9).\n        ISwapRouter.ExactInputParams memory params =\n            ISwapRouter.ExactInputParams({\n                path: abi.encodePacked(WMATIC, poolFee, USDC, poolFee, AKAPZ),\n                recipient: msg.sender,\n                deadline: block.timestamp,\n                amountIn: amountIn,\n                amountOutMinimum: 0\n            });\n\n        // Executes the swap.\n        amountOut = swapRouter.exactInput(params);\n    }\n\n\n function swapExactOutputMultihop(uint256 amountOut, uint256 amountInMaximum) external returns (uint256 amountIn) {\n        // Transfer the specified `amountInMaximum` to this contract.\n        TransferHelper.safeTransferFrom(WMATIC, msg.sender, address(this), amountInMaximum);\n        // Approve the router to spend  `amountInMaximum`.\n        TransferHelper.safeApprove(WMATIC, address(swapRouter), amountInMaximum);\n\n        // The parameter path is encoded as (tokenOut, fee, tokenIn/tokenOut, fee, tokenIn)\n        // The tokenIn/tokenOut field is the shared token between the two pools used in the multiple pool swap. In this case USDC is the \"shared\" token.\n        // For an exactOutput swap, the first swap that occurs is the swap which returns the eventual desired token.\n        // In this case, our desired output token is WETH9 so that swap happpens first, and is encoded in the path accordingly.\n        ISwapRouter.ExactOutputParams memory params =\n            ISwapRouter.ExactOutputParams({\n                path: abi.encodePacked(AKAPZ, poolFee, USDC, poolFee, WMATIC),\n                recipient: msg.sender,\n                deadline: block.timestamp,\n                amountOut: amountOut,\n                amountInMaximum: amountInMaximum\n            });\n\n        // Executes the swap, returning the amountIn actually spent.\n        amountIn = swapRouter.exactOutput(params);\n\n        // If the swap did not require the full amountInMaximum to achieve the exact amountOut then we refund msg.sender and approve the router to spend 0.\n        if (amountIn < amountInMaximum) {\n            TransferHelper.safeApprove(WMATIC, address(swapRouter), 0);\n            TransferHelper.safeTransferFrom(WMATIC, address(this), msg.sender, amountInMaximum - amountIn);\n        }\n    }\n\n}",
  "sourcePath": "/Users/nicolascloutier/GolandProjects/contracts/contracts/UniswapAkapzSwap.sol",
  "compiler": {
    "name": "solc",
    "version": "0.8.13+commit.abaa5c0e.Emscripten.clang"
  },
  "schemaVersion": "3.4.7",
  "updatedAt": "2022-05-01T15:48:00.300Z",
  "devdoc": {
    "kind": "dev",
    "methods": {},
    "version": 1
  },
  "userdoc": {
    "kind": "user",
    "methods": {},
    "version": 1
  }
}